{
  "_format": "hh-sol-artifact-1",
  "contractName": "Orderbook",
  "sourceName": "contracts/Orderbook.sol",
  "abi": [
    {
      "inputs": [
        {
          "internalType": "address",
          "name": "balancerManager",
          "type": "address"
        },
        {
          "internalType": "address",
          "name": "security",
          "type": "address"
        },
        {
          "internalType": "address",
          "name": "currency",
          "type": "address"
        },
        {
          "internalType": "address",
          "name": "pool",
          "type": "address"
        }
      ],
      "stateMutability": "nonpayable",
      "type": "constructor"
    },
    {
      "anonymous": false,
      "inputs": [
        {
          "indexed": true,
          "internalType": "address",
          "name": "previousOwner",
          "type": "address"
        },
        {
          "indexed": true,
          "internalType": "address",
          "name": "newOwner",
          "type": "address"
        }
      ],
      "name": "OwnershipTransferred",
      "type": "event"
    },
    {
      "anonymous": false,
      "inputs": [
        {
          "indexed": true,
          "internalType": "address",
          "name": "pool",
          "type": "address"
        },
        {
          "indexed": false,
          "internalType": "address",
          "name": "party",
          "type": "address"
        },
        {
          "indexed": false,
          "internalType": "address",
          "name": "counterparty",
          "type": "address"
        },
        {
          "indexed": false,
          "internalType": "uint256",
          "name": "tradeToReportDate",
          "type": "uint256"
        }
      ],
      "name": "tradeExecuted",
      "type": "event"
    },
    {
      "inputs": [
        {
          "internalType": "bytes32",
          "name": "ref",
          "type": "bytes32"
        },
        {
          "internalType": "address",
          "name": "sender",
          "type": "address"
        }
      ],
      "name": "cancelOrder",
      "outputs": [
        {
          "internalType": "uint256",
          "name": "",
          "type": "uint256"
        }
      ],
      "stateMutability": "nonpayable",
      "type": "function"
    },
    {
      "inputs": [
        {
          "internalType": "bytes32",
          "name": "ref",
          "type": "bytes32"
        },
        {
          "internalType": "uint256",
          "name": "_price",
          "type": "uint256"
        },
        {
          "components": [
            {
              "internalType": "enum IVault.SwapKind",
              "name": "kind",
              "type": "uint8"
            },
            {
              "internalType": "contract IERC20",
              "name": "tokenIn",
              "type": "address"
            },
            {
              "internalType": "contract IERC20",
              "name": "tokenOut",
              "type": "address"
            },
            {
              "internalType": "uint256",
              "name": "amount",
              "type": "uint256"
            },
            {
              "internalType": "bytes32",
              "name": "poolId",
              "type": "bytes32"
            },
            {
              "internalType": "uint256",
              "name": "lastChangeBlock",
              "type": "uint256"
            },
            {
              "internalType": "address",
              "name": "from",
              "type": "address"
            },
            {
              "internalType": "address",
              "name": "to",
              "type": "address"
            },
            {
              "internalType": "bytes",
              "name": "userData",
              "type": "bytes"
            }
          ],
          "internalType": "struct IPoolSwapStructs.SwapRequest",
          "name": "_request",
          "type": "tuple"
        }
      ],
      "name": "editOrder",
      "outputs": [
        {
          "internalType": "uint256",
          "name": "",
          "type": "uint256"
        }
      ],
      "stateMutability": "nonpayable",
      "type": "function"
    },
    {
      "inputs": [],
      "name": "getCurrency",
      "outputs": [
        {
          "internalType": "address",
          "name": "",
          "type": "address"
        }
      ],
      "stateMutability": "view",
      "type": "function"
    },
    {
      "inputs": [
        {
          "internalType": "bytes32",
          "name": "_ref",
          "type": "bytes32"
        }
      ],
      "name": "getOrder",
      "outputs": [
        {
          "components": [
            {
              "internalType": "address",
              "name": "party",
              "type": "address"
            },
            {
              "internalType": "address",
              "name": "tokenIn",
              "type": "address"
            },
            {
              "internalType": "enum IOrder.OrderType",
              "name": "otype",
              "type": "uint8"
            },
            {
              "internalType": "enum IOrder.OrderStatus",
              "name": "status",
              "type": "uint8"
            },
            {
              "internalType": "uint256",
              "name": "qty",
              "type": "uint256"
            }
          ],
          "internalType": "struct IOrder.order",
          "name": "",
          "type": "tuple"
        }
      ],
      "stateMutability": "view",
      "type": "function"
    },
    {
      "inputs": [],
      "name": "getPoolId",
      "outputs": [
        {
          "internalType": "bytes32",
          "name": "",
          "type": "bytes32"
        }
      ],
      "stateMutability": "view",
      "type": "function"
    },
    {
      "inputs": [],
      "name": "getSecurity",
      "outputs": [
        {
          "internalType": "address",
          "name": "",
          "type": "address"
        }
      ],
      "stateMutability": "view",
      "type": "function"
    },
    {
      "inputs": [
        {
          "internalType": "address",
          "name": "_party",
          "type": "address"
        },
        {
          "internalType": "uint256",
          "name": "_timestamp",
          "type": "uint256"
        }
      ],
      "name": "getTrade",
      "outputs": [
        {
          "components": [
            {
              "internalType": "address",
              "name": "partyAddress",
              "type": "address"
            },
            {
              "internalType": "bytes32",
              "name": "partyRef",
              "type": "bytes32"
            },
            {
              "internalType": "bytes32",
              "name": "counterpartyRef",
              "type": "bytes32"
            },
            {
              "internalType": "uint256",
              "name": "dt",
              "type": "uint256"
            },
            {
              "internalType": "uint256",
              "name": "securityTraded",
              "type": "uint256"
            },
            {
              "internalType": "uint256",
              "name": "currencyTraded",
              "type": "uint256"
            }
          ],
          "internalType": "struct ITrade.trade",
          "name": "",
          "type": "tuple"
        }
      ],
      "stateMutability": "view",
      "type": "function"
    },
    {
      "inputs": [
        {
          "components": [
            {
              "internalType": "enum IVault.SwapKind",
              "name": "kind",
              "type": "uint8"
            },
            {
              "internalType": "contract IERC20",
              "name": "tokenIn",
              "type": "address"
            },
            {
              "internalType": "contract IERC20",
              "name": "tokenOut",
              "type": "address"
            },
            {
              "internalType": "uint256",
              "name": "amount",
              "type": "uint256"
            },
            {
              "internalType": "bytes32",
              "name": "poolId",
              "type": "bytes32"
            },
            {
              "internalType": "uint256",
              "name": "lastChangeBlock",
              "type": "uint256"
            },
            {
              "internalType": "address",
              "name": "from",
              "type": "address"
            },
            {
              "internalType": "address",
              "name": "to",
              "type": "address"
            },
            {
              "internalType": "bytes",
              "name": "userData",
              "type": "bytes"
            }
          ],
          "internalType": "struct IPoolSwapStructs.SwapRequest",
          "name": "_request",
          "type": "tuple"
        },
        {
          "components": [
            {
              "internalType": "enum IOrder.OrderType",
              "name": "trade",
              "type": "uint8"
            },
            {
              "internalType": "uint256",
              "name": "price",
              "type": "uint256"
            }
          ],
          "internalType": "struct IOrder.Params",
          "name": "_params",
          "type": "tuple"
        }
      ],
      "name": "newOrder",
      "outputs": [
        {
          "internalType": "bytes32",
          "name": "",
          "type": "bytes32"
        }
      ],
      "stateMutability": "nonpayable",
      "type": "function"
    },
    {
      "inputs": [
        {
          "internalType": "bytes32",
          "name": "partyRef",
          "type": "bytes32"
        },
        {
          "internalType": "bytes32",
          "name": "counterpartyRef",
          "type": "bytes32"
        },
        {
          "internalType": "uint256",
          "name": "executionDate",
          "type": "uint256"
        }
      ],
      "name": "orderFilled",
      "outputs": [],
      "stateMutability": "nonpayable",
      "type": "function"
    },
    {
      "inputs": [],
      "name": "owner",
      "outputs": [
        {
          "internalType": "address",
          "name": "",
          "type": "address"
        }
      ],
      "stateMutability": "view",
      "type": "function"
    },
    {
      "inputs": [],
      "name": "renounceOwnership",
      "outputs": [],
      "stateMutability": "nonpayable",
      "type": "function"
    },
    {
      "inputs": [
        {
          "internalType": "bytes32",
          "name": "_orderRef",
          "type": "bytes32"
        },
        {
          "internalType": "uint256",
          "name": "_qty",
          "type": "uint256"
        },
        {
          "internalType": "uint256",
          "name": "_price",
          "type": "uint256"
        }
      ],
      "name": "revertTrade",
      "outputs": [],
      "stateMutability": "nonpayable",
      "type": "function"
    },
    {
      "inputs": [
        {
          "internalType": "address",
          "name": "newOwner",
          "type": "address"
        }
      ],
      "name": "transferOwnership",
      "outputs": [],
      "stateMutability": "nonpayable",
      "type": "function"
    }
  ],
  "bytecode": "0x6101006040523480156200001257600080fd5b50604051620035a1380380620035a18339810160408190526200003591620000de565b620000403362000070565b6001600160601b0319606094851b811660c05292841b831660805290831b821660a05290911b1660e0526200013e565b600080546001600160a01b038381166001600160a01b0319831681178455604051919092169283917f8be0079c531659141344cd1fd0a4f28419497f9722a3daafe3b4186f6b6457e09190a35050565b80516001600160a01b0381168114620000d857600080fd5b92915050565b60008060008060808587031215620000f4578384fd5b620001008686620000c0565b9350620001118660208701620000c0565b9250620001228660408701620000c0565b9150620001338660608701620000c0565b905092959194509250565b60805160601c60a05160601c60c05160601c60e05160601c6133b8620001e96000398061020c52806125be5250806107cc52806109245280610a82525080610418528061073452806108df5280610a36528061118f528061136b52806116d752806121ec5250806101e5528061037452806103d952806106e352806109e15280610d74528061120d52806112ed528061143c52806119ad5280611f62528061205952506133b86000f3fe608060405234801561001057600080fd5b50600436106100df5760003560e01c8063715018a61161008c5780638da5cb5b116100665780638da5cb5b14610195578063ca142f751461019d578063d61aed7a146101bd578063f2fde38b146101d0576100df565b8063715018a6146101655780637ef938901461016f57806381b5da1d14610182576100df565b80635487e8cf116100bd5780635487e8cf1461012a5780635778472a1461013d5780636945c1fd1461015d576100df565b80632541897f146100e457806338fff2d01461010257806346764e5e14610117575b600080fd5b6100ec6101e3565b6040516100f99190612ffe565b60405180910390f35b61010a610207565b6040516100f99190613036565b61010a610125366004612ecf565b6102a1565b61010a610138366004612f31565b6104b7565b61015061014b366004612e45565b610797565b6040516100f9919061329c565b6100ec6108dd565b61016d610901565b005b61016d61017d366004612f1d565b610919565b61016d610190366004612ea4565b610a77565b6100ec610bf1565b6101b06101ab366004612e1a565b610c00565b6040516100f991906132f9565b61010a6101cb366004612e75565b610cc1565b61016d6101de366004612dfe565b610e2a565b7f000000000000000000000000000000000000000000000000000000000000000090565b6000807f00000000000000000000000000000000000000000000000000000000000000006001600160a01b03166338fff2d06040518163ffffffff1660e01b815260040160206040518083038186803b15801561026357600080fd5b505afa158015610277573d6000803e3d6000fd5b505050506040513d601f19601f8201168201806040525081019061029b9190612e5d565b91505090565b60006102c1336102af610bf1565b6001600160a01b0316146101aa610e59565b60026000858152600760205260409020600101547501000000000000000000000000000000000000000000900460ff1660048111156102fc57fe5b146103225760405162461bcd60e51b81526004016103199061322e565b60405180910390fd5b60c08201516000858152600760205260409020546001600160a01b039081169116146103605760405162461bcd60e51b8152600401610319906131f7565b6000848152600760205260408120600101547f00000000000000000000000000000000000000000000000000000000000000006001600160a01b039081169116146103ac5760016103af565b60005b90506103bc848683610e6b565b6000600760008781526020019081526020016000206002015490507f00000000000000000000000000000000000000000000000000000000000000006001600160a01b031684602001516001600160a01b0316148061045057507f00000000000000000000000000000000000000000000000000000000000000006001600160a01b031684602001516001600160a01b0316145b1561047a57610463846060015182610f2d565b6000878152600760205260409020600201556104ae565b600086815260076020526040902060020154606085015161049b9190610f46565b6000878152600760205260409020600201555b95945050505050565b60006104c5336102af610bf1565b60608301516104e65760405162461bcd60e51b81526004016103199061311b565b6000825160028111156104f557fe5b148061050d575060018251600281111561050b57fe5b145b6105295760405162461bcd60e51b8152600401610319906130ad565b6005544214610538574261053f565b6005546001015b600581905560c084015160405160009261055c9291602001612fc9565b60405160208183030381529060405280519060200120905061057c612c1d565b6040518060a001604052808660c001516001600160a01b0316815260200186602001516001600160a01b03168152602001856000015160028111156105bd57fe5b8152602001600281526060870151602091820152600084815260078252604090819020835181547fffffffffffffffffffffffff00000000000000000000000000000000000000009081166001600160a01b0392831617835593850151600183018054909516911617808455918401519394508493909290917fffffffffffffffffffffff00ffffffffffffffffffffffffffffffffffffffff167401000000000000000000000000000000000000000083600281111561067a57fe5b021790555060608201516001820180547fffffffffffffffffffff00ffffffffffffffffffffffffffffffffffffffffff1675010000000000000000000000000000000000000000008360048111156106cf57fe5b0217905550608082015181600201559050507f00000000000000000000000000000000000000000000000000000000000000006001600160a01b031681602001516001600160a01b031614156107325761072d846020015183610f54565b61077e565b7f00000000000000000000000000000000000000000000000000000000000000006001600160a01b031681602001516001600160a01b0316141561077e5761077e846020015183610fdb565b61078c828560200151611061565b925050505b92915050565b61079f612c1d565b6107a7610bf1565b6001600160a01b0316336001600160a01b031614806107ee5750336001600160a01b037f000000000000000000000000000000000000000000000000000000000000000016145b8061080f57506000828152600760205260409020546001600160a01b031633145b61082b5760405162461bcd60e51b815260040161031990613152565b600082815260076020908152604091829020825160a08101845281546001600160a01b0390811682526001830154908116938201939093529290919083019074010000000000000000000000000000000000000000900460ff16600281111561089057fe5b600281111561089b57fe5b81526020016001820160159054906101000a900460ff1660048111156108bd57fe5b60048111156108c857fe5b81526020016002820154815250509050919050565b7f000000000000000000000000000000000000000000000000000000000000000090565b61090d336102af610bf1565b6109176000611a05565b565b336001600160a01b037f00000000000000000000000000000000000000000000000000000000000000001614806109685750610953610bf1565b6001600160a01b0316336001600160a01b0316145b6109845760405162461bcd60e51b8152600401610319906131c0565b60008381526007602052604090206002810180548401905560010180547fffffffffffffffffffff00ffffffffffffffffffffffffffffffffffffffffff16750200000000000000000000000000000000000000000017908190557f00000000000000000000000000000000000000000000000000000000000000006001600160a01b0390811691161415610a2257610a1d8184610f54565b610a72565b6000838152600760205260409020600101547f00000000000000000000000000000000000000000000000000000000000000006001600160a01b0390811691161415610a7257610a728184610fdb565b505050565b336001600160a01b037f0000000000000000000000000000000000000000000000000000000000000000161480610ac65750610ab1610bf1565b6001600160a01b0316336001600160a01b0316145b610ae25760405162461bcd60e51b8152600401610319906131c0565b600092835260076020908152604080852080547fffffffffffffffffffffffff00000000000000000000000000000000000000009081168255600180830180547fffffffffffffffffffff0000000000000000000000000000000000000000000090811690915560028085018a9055978952848920805484168155808301805490921690915580880189905592546001600160a01b0390811689526008808752858a20888b528752858a208054851681558084018b9055808a018b905560038082018c905560048083018d905560059283018d905596549093168b52908752858a20978a5296909552928720805490911681559182018690559381018590559081018490559182018390550155565b6000546001600160a01b031690565b610c08612c4c565b610c10610bf1565b6001600160a01b0316336001600160a01b03161480610c375750336001600160a01b038416145b610c535760405162461bcd60e51b815260040161031990613265565b506001600160a01b03918216600090815260086020908152604080832093835292815290829020825160c0810184528154909416845260018101549184019190915260028101549183019190915260038101546060830152600481015460808301526005015460a082015290565b6000610ccf336102af610bf1565b60026000848152600760205260409020600101547501000000000000000000000000000000000000000000900460ff166004811115610d0a57fe5b14610d275760405162461bcd60e51b81526004016103199061322e565b6000838152600760205260409020546001600160a01b03838116911614610d605760405162461bcd60e51b8152600401610319906131f7565b6000838152600760205260408120600101547f00000000000000000000000000000000000000000000000000000000000000006001600160a01b03908116911614610dac576001610daf565b60005b9050610dbb8482611a6d565b505050600090815260076020526040812060028101805482547fffffffffffffffffffffffff0000000000000000000000000000000000000000168355600190920180547fffffffffffffffffffff000000000000000000000000000000000000000000001690559190915590565b610e36336102af610bf1565b610e4d6001600160a01b03821615156101ab610e59565b610e5681611a05565b50565b81610e6757610e6781611c7d565b5050565b8015610ecf576000828152600260205260409020546001548110610ea15760405162461bcd60e51b815260040161031990613076565b8360018281548110610eaf57fe5b6000918252602090912060029091020155610ec981611ca7565b50610a72565b6000828152600460205260409020546003548110610eff5760405162461bcd60e51b815260040161031990613189565b8360038281548110610f0d57fe5b6000918252602090912060029091020155610f2781611d7f565b50505050565b6000828201610f3f8482101583610e59565b9392505050565b6000610f3f83836001611e57565b604080518082019091528281526020810182815260038054600181018255600082905292517fc2575a0e9e593c00f959f8c92f12db2869c3395a3b0502d05e2516446f71f85b60029094029384015590517fc2575a0e9e593c00f959f8c92f12db2869c3395a3b0502d05e2516446f71f85c909201919091555460001901610a7281611e6d565b6040805180820190915282815260208101828152600180548082018255600082905292517fb10e2d527612073b26eecdfd717e6a320cf44b4afac2b0732d9fcbe2b7fa0cf660029094029384015590517fb10e2d527612073b26eecdfd717e6a320cf44b4afac2b0732d9fcbe2b7fa0cf7909201919091555460001901610a7281611ed9565b60008060008080600080600060606110798b8b611f45565b9b50909250905081611095578a98505050505050505050610791565b600092505b80518310156119595760008b8152600760205260409020600201546110be57611959565b8a8184815181106110cb57fe5b60200260200101516020015114158015611136575060008b815260076020819052604082205483516001600160a01b03909116929084908790811061110c57fe5b6020908102919091018101518101518252810191909152604001600020546001600160a01b031614155b8015611188575060006007600083868151811061114f57fe5b602002602001015160200151815260200190815260200160002060010160159054906101000a900460ff16600481111561118557fe5b14155b15611422577f00000000000000000000000000000000000000000000000000000000000000006001600160a01b0316600760008386815181106111c757fe5b6020908102919091018101518101518252810191909152604001600020600101546001600160a01b031614801561123b575060008b8152600760205260409020600101547f00000000000000000000000000000000000000000000000000000000000000006001600160a01b039081169116145b156112eb578981848151811061124d57fe5b602002602001015160000151101580611264575089155b80611286575080838151811061127657fe5b6020026020010151600001516000145b156112e65780838151811061129757fe5b6020026020010151600001516000146112c7578083815181106112b657fe5b6020026020010151600001516112c9565b895b96508083815181106112d757fe5b60200260200101516020015197505b611422565b7f00000000000000000000000000000000000000000000000000000000000000006001600160a01b03166007600083868151811061132557fe5b6020908102919091018101518101518252810191909152604001600020600101546001600160a01b0316148015611399575060008b8152600760205260409020600101547f00000000000000000000000000000000000000000000000000000000000000006001600160a01b039081169116145b1561142257898184815181106113ab57fe5b6020026020010151600001511115806113c2575089155b15611422578083815181106113d357fe5b602002602001015160000151600014611403578083815181106113f257fe5b602002602001015160000151611405565b895b965080838151811061141357fe5b60200260200101516020015195505b87156116bd5760008b8152600760205260409020600101547f00000000000000000000000000000000000000000000000000000000000000006001600160a01b03908116911614156116b85760008881526007602052604090206002015461148a908861233d565b60008c81526007602052604090206002015490955085106116045760008b81526007602052604090206002015494506114c3858861238e565b6000898152600760205260409020600201549094506114e29085610f46565b60008981526007602052604080822060029081019384558e8352908220018190558990525461154757600088815260076020526040902060010180547fffffffffffffffffffff00ffffffffffffffffffffffffffffffffffffffffff1690556115bc565b6000888152600760205260409020600190810180547fffffffffffffffffffff00ffffffffffffffffffffffffffffffffffffffffff1675010000000000000000000000000000000000000000008302179055506115bc8184815181106115aa57fe5b60200260200101516000015189610fdb565b60008b815260076020526040902060010180547fffffffffffffffffffff00ffffffffffffffffffffffffffffffffffffffffff1690556115ff8b8987876123c4565b6116b8565b84156116b857611614858861238e565b60008c8152600760205260409020600201549094506116339086610f46565b60008c8152600760205260408082206002808201949094558b8352908220928301829055600192830180547fffffffffffffffffffff00ffffffffffffffffffffffffffffffffffffffffff908116909155918e905291909101805490911675010000000000000000000000000000000000000000001790556116b88b8987876123c4565b61194e565b851561194e5760008b8152600760205260409020600101547f00000000000000000000000000000000000000000000000000000000000000006001600160a01b039081169116141561194e57600086815260076020526040902060020154611725908861238e565b60008c815260076020526040902060020154909450841061189a5760008b815260076020526040902060020154935061175e848861233d565b60008781526007602052604090206002015490955061177d9086610f46565b60008781526007602052604080822060029081019384558e835290822001819055879052546117e257600086815260076020526040902060010180547fffffffffffffffffffff00ffffffffffffffffffffffffffffffffffffffffff169055611857565b6000868152600760205260409020600190810180547fffffffffffffffffffff00ffffffffffffffffffffffffffffffffffffffffff16750100000000000000000000000000000000000000000083021790555061185781848151811061184557fe5b60200260200101516000015187610f54565b60008b815260076020526040902060010180547fffffffffffffffffffff00ffffffffffffffffffffffffffffffffffffffffff1690556116b88b8787876123c4565b831561194e576118aa848861233d565b60008c8152600760205260409020600201549095506118c99085610f46565b60008c815260076020526040808220600280820194909455898352908220928301829055600192830180547fffffffffffffffffffff00ffffffffffffffffffffffffffffffffffffffffff908116909155918e9052919091018054909116750100000000000000000000000000000000000000000017905561194e8b8787876123c4565b60019092019161109a565b6000808c8152600760205260409020600101547501000000000000000000000000000000000000000000900460ff16600481111561199357fe5b14156119f65760008b8152600760205260408120600101547f00000000000000000000000000000000000000000000000000000000000000006001600160a01b039081169116146119e55760016119e8565b60005b90506119f48c82611a6d565b505b50989998505050505050505050565b600080546001600160a01b038381167fffffffffffffffffffffffff0000000000000000000000000000000000000000831681178455604051919092169283917f8be0079c531659141344cd1fd0a4f28419497f9722a3daafe3b4186f6b6457e09190a35050565b8015611b7a576000828152600260205260409020546001548110611aa35760405162461bcd60e51b815260040161031990613076565b6001546000190181811415611ae0576001805480611abd57fe5b600082815260208120600260001990930192830201818155600101559055611b64565b60018181548110611aed57fe5b906000526020600020906002020160018381548110611b0857fe5b60009182526020909120825460029092020190815560019182015490820155805480611b3057fe5b600082815260208120600260001990930192830201818155600190810191909155915554821015611b6457611b6482611ca7565b5050600082815260026020526040812055610e67565b6000828152600460205260409020546003548110611baa5760405162461bcd60e51b815260040161031990613189565b6003546000190181811415611be7576003805480611bc457fe5b600082815260208120600260001990930192830201818155600101559055611c69565b60038181548110611bf457fe5b906000526020600020906002020160038381548110611c0f57fe5b6000918252602090912082546002909202019081556001918201549101556003805480611c3857fe5b600082815260208120600260001990930192830201818155600101559055600354821015611c6957611c6982611d7f565b505050600090815260046020526040812055565b610e56817f42414c000000000000000000000000000000000000000000000000000000000061268c565b6001545b6002828102600181019101838383108015611d01575060018181548110611cce57fe5b90600052602060002090600202016000015460018481548110611ced57fe5b906000526020600020906002020160000154115b15611d095750815b8382108015611d53575060018181548110611d2057fe5b90600052602060002090600202016000015460018381548110611d3f57fe5b906000526020600020906002020160000154115b15611d5b5750805b84811415611d6b57505050610e67565b611d7585826126ed565b9350611cab915050565b6003545b6002828102600181019101838383108015611dd9575060038181548110611da657fe5b90600052602060002090600202016000015460038481548110611dc557fe5b906000526020600020906002020160000154105b15611de15750815b8382108015611e2b575060038181548110611df857fe5b90600052602060002090600202016000015460038381548110611e1757fe5b906000526020600020906002020160000154105b15611e335750805b84811415611e4357505050610e67565b611e4d8582612822565b9350611d83915050565b6000611e668484111583610e59565b5050900390565b8015610e565760006002600019830104905060038181548110611e8c57fe5b90600052602060002090600202016000015460038381548110611eab57fe5b90600052602060002090600202016000015410611ec85750610e56565b611ed28282612822565b9050611e6d565b8015610e565760006002600019830104905060018181548110611ef857fe5b90600052602060002090600202016000015460018381548110611f1757fe5b90600052602060002090600202016000015411611f345750610e56565b611f3e82826126ed565b9050611ed9565b6000828152600760205260408120600101546060908290819083907f00000000000000000000000000000000000000000000000000000000000000006001600160a01b03908116911614611fec5760035467ffffffffffffffff81118015611fac57600080fd5b50604051908082528060200260200182016040528015611fe657816020015b611fd3612c81565b815260200190600190039081611fcb5790505b50612041565b60015467ffffffffffffffff8111801561200557600080fd5b5060405190808252806020026020018201604052801561203f57816020015b61202c612c81565b8152602001906001900390816120245790505b505b600088815260076020526040812060010154919250907f00000000000000000000000000000000000000000000000000000000000000006001600160a01b03908116911614156121d8575b600154156121d357600061209e61292e565b9050801580156120ac575087155b156120d057600654156120c557506006549650866120cb565b506121d3565b6120e5565b801580156120dd57508715155b156120e55750865b878110156120f357506121d3565b6120fb612975565b83838151811061210757fe5b602002602001018190525060008084848151811061212157fe5b602002602001015160000151116121385781612151565b83838151811061214457fe5b6020026020010151600001515b905061219c85612197836007600089898151811061216b57fe5b60200260200101516020015181526020019081526020016000206002015461233d90919063ffffffff16565b610f2d565b60008b81526007602052604090206002015490955085106121c95750929550909350859250612336915050565b505060010161208c565b61232c565b6000888152600760205260409020600101547f00000000000000000000000000000000000000000000000000000000000000006001600160a01b039081169116141561232c575b6003541580159061223f575086612234612ab1565b11158061223f575086155b1561232c57600061224e612ab1565b90508015801561225c575087155b156122805760065415612275575060065496508661227b565b5061232c565b612295565b8015801561228d57508715155b156122955750865b61229d612ae1565b8383815181106122a957fe5b60200260200101819052506122f884612197600760008787815181106122cb57fe5b6020026020010151602001518152602001908152602001600020600201548461238e90919063ffffffff16565b60008a8152600760205260409020600201549094508410612323575091945092508491506123369050565b5060010161221f565b5090935091508390505b9250925092565b600061234c8215156004610e59565b8261235957506000610791565b670de0b6b3a76400008381029061237c9085838161237357fe5b04146005610e59565b82818161238557fe5b04915050610791565b60008282026123b28415806123ab5750838583816123a857fe5b04145b6003610e59565b670de0b6b3a764000090049392505050565b60058054600101908190556123d7612c4c565b6040518060c001604052806007600089815260200190815260200160002060000160009054906101000a90046001600160a01b03166001600160a01b031681526020018781526020018681526020018381526020018581526020018481525090508060086000600760008a815260200190815260200160002060000160009054906101000a90046001600160a01b03166001600160a01b03166001600160a01b03168152602001908152602001600020600084815260200190815260200160002060008201518160000160006101000a8154816001600160a01b0302191690836001600160a01b031602179055506020820151816001015560408201518160020155606082015181600301556080820151816004015560a0820151816005015590505080600860006007600089815260200190815260200160002060000160009054906101000a90046001600160a01b03166001600160a01b03166001600160a01b03168152602001908152602001600020600084815260200190815260200160002060008201518160000160006101000a8154816001600160a01b0302191690836001600160a01b031602179055506020820151816001015560408201518160020155606082015181600301556080820151816004015560a082015181600501559050507f00000000000000000000000000000000000000000000000000000000000000006001600160a01b03167f7905ef94d8bcd34dab6c31415ecb3b825f4582c3a3d6753ccaac2c9bdacf7dc26007600089815260200190815260200160002060000160009054906101000a90046001600160a01b03166007600089815260200190815260200160002060000160009054906101000a90046001600160a01b0316846060015160405161266f93929190613012565b60405180910390a2612681838561233d565b600655505050505050565b62461bcd60e51b600090815260206004526007602452600a808404818106603090810160081b958390069590950190829004918206850160101b01602363ffffff0060e086901c160160181b0190930160c81b60445260e882901c90606490fd5b6126f5612c81565b6001838154811061270257fe5b90600052602060002090600202016040518060400160405290816000820154815260200160018201548152505090506001828154811061273e57fe5b90600052602060002090600202016001848154811061275957fe5b90600052602060002090600202016000820154816000015560018201548160010155905050806001838154811061278c57fe5b906000526020600020906002020160008201518160000155602082015181600101559050508260026000600186815481106127c357fe5b9060005260206000209060020201600101548152602001908152602001600020819055508160026000600185815481106127f957fe5b906000526020600020906002020160010154815260200190815260200160002081905550505050565b61282a612c81565b6003838154811061283757fe5b90600052602060002090600202016040518060400160405290816000820154815260200160018201548152505090506003828154811061287357fe5b90600052602060002090600202016003848154811061288e57fe5b9060005260206000209060020201600082015481600001556001820154816001015590505080600383815481106128c157fe5b906000526020600020906002020160008201518160000155602082015181600101559050508260046000600386815481106128f857fe5b9060005260206000209060020201600101548152602001908152602001600020819055508160046000600385815481106127f957fe5b6001546000906129505760405162461bcd60e51b8152600401610319906130e4565b600160008154811061295e57fe5b906000526020600020906002020160000154905090565b61297d612c81565b60015461299c5760405162461bcd60e51b8152600401610319906130e4565b6129a4612c81565b60016000815481106129b257fe5b60009182526020918290206040805180820190915260029092020180548252600190810154928201929092529054909150600019018015612a6c57600181815481106129fa57fe5b90600052602060002090600202016001600081548110612a1657fe5b60009182526020909120825460029092020190815560019182015490820155805480612a3e57fe5b6000828152602081206002600019909301928302018181556001018190559155612a6790611ca7565b612a96565b6001805480612a7757fe5b6000828152602081206002600019909301928302018181556001015590555b50602080820151600090815260029091526040812055905090565b600354600090612ad35760405162461bcd60e51b81526004016103199061303f565b600360008154811061295e57fe5b612ae9612c81565b600354612b085760405162461bcd60e51b81526004016103199061303f565b612b10612c81565b6003600081548110612b1e57fe5b600091825260209182902060408051808201909152600290920201805482526001015491810191909152600354909150600019018015612bd85760038181548110612b6557fe5b90600052602060002090600202016003600081548110612b8157fe5b6000918252602090912082546002909202019081556001918201549101556003805480612baa57fe5b6000828152602081206002600019909301928302018181556001018190559155612bd390611d7f565b612c02565b6003805480612be357fe5b6000828152602081206002600019909301928302018181556001015590555b50602080820151600090815260049091526040812055905090565b6040805160a0810182526000808252602082018190529091820190815260200160008152602001600081525090565b6040805160c081018252600080825260208201819052918101829052606081018290526080810182905260a081019190915290565b604080518082019091526000808252602082015290565b80356107918161336d565b600082601f830112612cb3578081fd5b813567ffffffffffffffff811115612cc9578182fd5b612cfa60207fffffffffffffffffffffffffffffffffffffffffffffffffffffffffffffffe0601f84011601613346565b9150808252836020828501011115612d1157600080fd5b8060208401602084013760009082016020015292915050565b80356002811061079157600080fd5b6000610120808385031215612d4c578182fd5b612d5581613346565b915050612d628383612d2a565b8152612d718360208401612c98565b6020820152612d838360408401612c98565b6040820152606082013560608201526080820135608082015260a082013560a0820152612db38360c08401612c98565b60c0820152612dc58360e08401612c98565b60e08201526101008083013567ffffffffffffffff811115612de657600080fd5b612df285828601612ca3565b82840152505092915050565b600060208284031215612e0f578081fd5b8135610f3f8161336d565b60008060408385031215612e2c578081fd5b8235612e378161336d565b946020939093013593505050565b600060208284031215612e56578081fd5b5035919050565b600060208284031215612e6e578081fd5b5051919050565b60008060408385031215612e87578182fd5b823591506020830135612e998161336d565b809150509250929050565b600080600060608486031215612eb8578081fd5b505081359360208301359350604090920135919050565b600080600060608486031215612ee3578283fd5b8335925060208401359150604084013567ffffffffffffffff811115612f07578182fd5b612f1386828701612d39565b9150509250925092565b600080600060608486031215612eb8578283fd5b6000808284036060811215612f44578283fd5b833567ffffffffffffffff811115612f5a578384fd5b612f6686828701612d39565b93505060407fffffffffffffffffffffffffffffffffffffffffffffffffffffffffffffffe082011215612f98578182fd5b50612fa36040613346565b602084013560038110612fb4578283fd5b81526040939093013560208401525092909150565b60609290921b7fffffffffffffffffffffffffffffffffffffffff000000000000000000000000168252601482015260340190565b6001600160a01b0391909116815260200190565b6001600160a01b039384168152919092166020820152604081019190915260600190565b90815260200190565b60208082526017908201527f53656c6c204f72646572626f6f6b20697320656d707479000000000000000000604082015260600190565b60208082526013908201527f427579204f72646572206e6f7420666f756e6400000000000000000000000000604082015260600190565b60208082526012908201527f496e76616c6964206f7264657220747970650000000000000000000000000000604082015260600190565b60208082526016908201527f427579204f72646572626f6f6b20697320656d70747900000000000000000000604082015260600190565b60208082526015908201527f54726164656420616d6f756e74206973207a65726f0000000000000000000000604082015260600190565b6020808252601d908201527f556e617574686f72697a65642061636365737320746f206f7264657273000000604082015260600190565b60208082526014908201527f53656c6c204f72646572206e6f7420666f756e64000000000000000000000000604082015260600190565b60208082526013908201527f556e617574686f72697a65642061636365737300000000000000000000000000604082015260600190565b6020808252601b908201527f53656e646572206973206e6f74206f726465722063726561746f720000000000604082015260600190565b60208082526017908201527f4f7264657220697320616c72656164792066696c6c6564000000000000000000604082015260600190565b6020808252601d908201527f556e617574686f72697a65642061636365737320746f20747261646573000000604082015260600190565b600060a0820190506001600160a01b03808451168352806020850151166020840152506040830151600381106132ce57fe5b60408301526060830151600581106132e257fe5b806060840152506080830151608083015292915050565b600060c0820190506001600160a01b0383511682526020830151602083015260408301516040830152606083015160608301526080830151608083015260a083015160a083015292915050565b60405181810167ffffffffffffffff8111828210171561336557600080fd5b604052919050565b6001600160a01b0381168114610e5657600080fdfea2646970667358221220b18579facd7347855de6f53b46f390c274d174391b09102afe9ed9765fa9e88764736f6c63430007010033",
  "linkReferences": {},
  "deployedLinkReferences": {}
}