{
  "_format": "hh-sol-artifact-1",
  "contractName": "Orderbook",
  "sourceName": "contracts/Orderbook.sol",
  "abi": [
    {
      "inputs": [
        {
          "internalType": "address",
          "name": "balancerManager",
          "type": "address"
        },
        {
          "internalType": "address",
          "name": "security",
          "type": "address"
        },
        {
          "internalType": "address",
          "name": "currency",
          "type": "address"
        },
        {
          "internalType": "address",
          "name": "pool",
          "type": "address"
        }
      ],
      "stateMutability": "nonpayable",
      "type": "constructor"
    },
    {
      "anonymous": false,
      "inputs": [
        {
          "indexed": true,
          "internalType": "address",
          "name": "previousOwner",
          "type": "address"
        },
        {
          "indexed": true,
          "internalType": "address",
          "name": "newOwner",
          "type": "address"
        }
      ],
      "name": "OwnershipTransferred",
      "type": "event"
    },
    {
      "anonymous": false,
      "inputs": [
        {
          "indexed": true,
          "internalType": "address",
          "name": "pool",
          "type": "address"
        },
        {
          "indexed": false,
          "internalType": "address",
          "name": "party",
          "type": "address"
        },
        {
          "indexed": false,
          "internalType": "address",
          "name": "counterparty",
          "type": "address"
        },
        {
          "indexed": false,
          "internalType": "uint256",
          "name": "tradeToReportDate",
          "type": "uint256"
        }
      ],
      "name": "tradeExecuted",
      "type": "event"
    },
    {
      "inputs": [
        {
          "internalType": "bytes32",
          "name": "ref",
          "type": "bytes32"
        },
        {
          "internalType": "address",
          "name": "sender",
          "type": "address"
        }
      ],
      "name": "cancelOrder",
      "outputs": [
        {
          "internalType": "uint256",
          "name": "",
          "type": "uint256"
        }
      ],
      "stateMutability": "nonpayable",
      "type": "function"
    },
    {
      "inputs": [
        {
          "internalType": "bytes32",
          "name": "ref",
          "type": "bytes32"
        },
        {
          "internalType": "uint256",
          "name": "_price",
          "type": "uint256"
        },
        {
          "components": [
            {
              "internalType": "enum IVault.SwapKind",
              "name": "kind",
              "type": "uint8"
            },
            {
              "internalType": "contract IERC20",
              "name": "tokenIn",
              "type": "address"
            },
            {
              "internalType": "contract IERC20",
              "name": "tokenOut",
              "type": "address"
            },
            {
              "internalType": "uint256",
              "name": "amount",
              "type": "uint256"
            },
            {
              "internalType": "bytes32",
              "name": "poolId",
              "type": "bytes32"
            },
            {
              "internalType": "uint256",
              "name": "lastChangeBlock",
              "type": "uint256"
            },
            {
              "internalType": "address",
              "name": "from",
              "type": "address"
            },
            {
              "internalType": "address",
              "name": "to",
              "type": "address"
            },
            {
              "internalType": "bytes",
              "name": "userData",
              "type": "bytes"
            }
          ],
          "internalType": "struct IPoolSwapStructs.SwapRequest",
          "name": "_request",
          "type": "tuple"
        }
      ],
      "name": "editOrder",
      "outputs": [
        {
          "internalType": "uint256",
          "name": "",
          "type": "uint256"
        }
      ],
      "stateMutability": "nonpayable",
      "type": "function"
    },
    {
      "inputs": [],
      "name": "getCurrency",
      "outputs": [
        {
          "internalType": "address",
          "name": "",
          "type": "address"
        }
      ],
      "stateMutability": "view",
      "type": "function"
    },
    {
      "inputs": [
        {
          "internalType": "bytes32",
          "name": "_ref",
          "type": "bytes32"
        }
      ],
      "name": "getOrder",
      "outputs": [
        {
          "components": [
            {
              "internalType": "address",
              "name": "party",
              "type": "address"
            },
            {
              "internalType": "address",
              "name": "tokenIn",
              "type": "address"
            },
            {
              "internalType": "enum IOrder.OrderType",
              "name": "otype",
              "type": "uint8"
            },
            {
              "internalType": "enum IOrder.OrderStatus",
              "name": "status",
              "type": "uint8"
            },
            {
              "internalType": "uint256",
              "name": "qty",
              "type": "uint256"
            }
          ],
          "internalType": "struct IOrder.order",
          "name": "",
          "type": "tuple"
        }
      ],
      "stateMutability": "view",
      "type": "function"
    },
    {
      "inputs": [],
      "name": "getPoolId",
      "outputs": [
        {
          "internalType": "bytes32",
          "name": "",
          "type": "bytes32"
        }
      ],
      "stateMutability": "view",
      "type": "function"
    },
    {
      "inputs": [],
      "name": "getSecurity",
      "outputs": [
        {
          "internalType": "address",
          "name": "",
          "type": "address"
        }
      ],
      "stateMutability": "view",
      "type": "function"
    },
    {
      "inputs": [
        {
          "internalType": "address",
          "name": "_party",
          "type": "address"
        },
        {
          "internalType": "uint256",
          "name": "_timestamp",
          "type": "uint256"
        }
      ],
      "name": "getTrade",
      "outputs": [
        {
          "components": [
            {
              "internalType": "address",
              "name": "partyAddress",
              "type": "address"
            },
            {
              "internalType": "bytes32",
              "name": "partyRef",
              "type": "bytes32"
            },
            {
              "internalType": "bytes32",
              "name": "counterpartyRef",
              "type": "bytes32"
            },
            {
              "internalType": "uint256",
              "name": "dt",
              "type": "uint256"
            },
            {
              "internalType": "uint256",
              "name": "securityTraded",
              "type": "uint256"
            },
            {
              "internalType": "uint256",
              "name": "currencyTraded",
              "type": "uint256"
            }
          ],
          "internalType": "struct ITrade.trade",
          "name": "",
          "type": "tuple"
        }
      ],
      "stateMutability": "view",
      "type": "function"
    },
    {
      "inputs": [
        {
          "components": [
            {
              "internalType": "enum IVault.SwapKind",
              "name": "kind",
              "type": "uint8"
            },
            {
              "internalType": "contract IERC20",
              "name": "tokenIn",
              "type": "address"
            },
            {
              "internalType": "contract IERC20",
              "name": "tokenOut",
              "type": "address"
            },
            {
              "internalType": "uint256",
              "name": "amount",
              "type": "uint256"
            },
            {
              "internalType": "bytes32",
              "name": "poolId",
              "type": "bytes32"
            },
            {
              "internalType": "uint256",
              "name": "lastChangeBlock",
              "type": "uint256"
            },
            {
              "internalType": "address",
              "name": "from",
              "type": "address"
            },
            {
              "internalType": "address",
              "name": "to",
              "type": "address"
            },
            {
              "internalType": "bytes",
              "name": "userData",
              "type": "bytes"
            }
          ],
          "internalType": "struct IPoolSwapStructs.SwapRequest",
          "name": "_request",
          "type": "tuple"
        },
        {
          "components": [
            {
              "internalType": "enum IOrder.OrderType",
              "name": "trade",
              "type": "uint8"
            },
            {
              "internalType": "uint256",
              "name": "price",
              "type": "uint256"
            }
          ],
          "internalType": "struct IOrder.Params",
          "name": "_params",
          "type": "tuple"
        }
      ],
      "name": "newOrder",
      "outputs": [
        {
          "internalType": "bytes32",
          "name": "",
          "type": "bytes32"
        }
      ],
      "stateMutability": "nonpayable",
      "type": "function"
    },
    {
      "inputs": [
        {
          "internalType": "bytes32",
          "name": "partyRef",
          "type": "bytes32"
        },
        {
          "internalType": "bytes32",
          "name": "counterpartyRef",
          "type": "bytes32"
        },
        {
          "internalType": "uint256",
          "name": "executionDate",
          "type": "uint256"
        }
      ],
      "name": "orderFilled",
      "outputs": [],
      "stateMutability": "nonpayable",
      "type": "function"
    },
    {
      "inputs": [],
      "name": "owner",
      "outputs": [
        {
          "internalType": "address",
          "name": "",
          "type": "address"
        }
      ],
      "stateMutability": "view",
      "type": "function"
    },
    {
      "inputs": [],
      "name": "renounceOwnership",
      "outputs": [],
      "stateMutability": "nonpayable",
      "type": "function"
    },
    {
      "inputs": [
        {
          "internalType": "bytes32",
          "name": "_orderRef",
          "type": "bytes32"
        },
        {
          "internalType": "uint256",
          "name": "_qty",
          "type": "uint256"
        },
        {
          "internalType": "uint256",
          "name": "_price",
          "type": "uint256"
        }
      ],
      "name": "revertTrade",
      "outputs": [],
      "stateMutability": "nonpayable",
      "type": "function"
    },
    {
      "inputs": [
        {
          "internalType": "address",
          "name": "newOwner",
          "type": "address"
        }
      ],
      "name": "transferOwnership",
      "outputs": [],
      "stateMutability": "nonpayable",
      "type": "function"
    }
  ],
  "bytecode": "0x6101006040523480156200001257600080fd5b5060405162003677380380620036778339810160408190526200003591620000de565b620000403362000070565b6001600160601b0319606094851b811660c05292841b831660805290831b821660a05290911b1660e0526200013e565b600080546001600160a01b038381166001600160a01b0319831681178455604051919092169283917f8be0079c531659141344cd1fd0a4f28419497f9722a3daafe3b4186f6b6457e09190a35050565b80516001600160a01b0381168114620000d857600080fd5b92915050565b60008060008060808587031215620000f4578384fd5b620001008686620000c0565b9350620001118660208701620000c0565b9250620001228660408701620000c0565b9150620001338660608701620000c0565b905092959194509250565b60805160601c60a05160601c60c05160601c60e05160601c61348e620001e96000398061020c528061293d5250806107cc52806109245280610a82525080610418528061073452806108df5280610a365280611483528061165f52806119af528061256b5250806101e5528061037452806103d952806106e352806109e15280610d74528061150152806115e152806117305280611c6952806122e152806123d8525061348e6000f3fe608060405234801561001057600080fd5b50600436106100df5760003560e01c8063715018a61161008c5780638da5cb5b116100665780638da5cb5b14610195578063ca142f751461019d578063d61aed7a146101bd578063f2fde38b146101d0576100df565b8063715018a6146101655780637ef938901461016f57806381b5da1d14610182576100df565b80635487e8cf116100bd5780635487e8cf1461012a5780635778472a1461013d5780636945c1fd1461015d576100df565b80632541897f146100e457806338fff2d01461010257806346764e5e14610117575b600080fd5b6100ec6101e3565b6040516100f99190613179565b60405180910390f35b61010a610207565b6040516100f991906131b1565b61010a61012536600461304a565b6102a1565b61010a6101383660046130ac565b6104b7565b61015061014b366004612fc0565b610797565b6040516100f99190613372565b6100ec6108dd565b61016d610901565b005b61016d61017d366004613098565b610919565b61016d61019036600461301f565b610a77565b6100ec610bf1565b6101b06101ab366004612f95565b610c00565b6040516100f991906133cf565b61010a6101cb366004612ff0565b610cc1565b61016d6101de366004612f79565b610e2a565b7f000000000000000000000000000000000000000000000000000000000000000090565b6000807f00000000000000000000000000000000000000000000000000000000000000006001600160a01b03166338fff2d06040518163ffffffff1660e01b815260040160206040518083038186803b15801561026357600080fd5b505afa158015610277573d6000803e3d6000fd5b505050506040513d601f19601f8201168201806040525081019061029b9190612fd8565b91505090565b60006102c1336102af610bf1565b6001600160a01b0316146101aa610e59565b60026000858152600760205260409020600101547501000000000000000000000000000000000000000000900460ff1660048111156102fc57fe5b146103225760405162461bcd60e51b815260040161031990613304565b60405180910390fd5b60c08201516000858152600760205260409020546001600160a01b039081169116146103605760405162461bcd60e51b8152600401610319906132cd565b6000848152600760205260408120600101547f00000000000000000000000000000000000000000000000000000000000000006001600160a01b039081169116146103ac5760016103af565b60005b90506103bc848683610e6b565b6000600760008781526020019081526020016000206002015490507f00000000000000000000000000000000000000000000000000000000000000006001600160a01b031684602001516001600160a01b0316148061045057507f00000000000000000000000000000000000000000000000000000000000000006001600160a01b031684602001516001600160a01b0316145b1561047a57610463846060015182610f0b565b6000878152600760205260409020600201556104ae565b600086815260076020526040902060020154606085015161049b9190610f24565b6000878152600760205260409020600201555b95945050505050565b60006104c5336102af610bf1565b60608301516104e65760405162461bcd60e51b815260040161031990613228565b6000825160028111156104f557fe5b148061050d575060018251600281111561050b57fe5b145b6105295760405162461bcd60e51b8152600401610319906131f1565b6005544214610538574261053f565b6005546001015b600581905560c084015160405160009261055c9291602001613144565b60405160208183030381529060405280519060200120905061057c612d98565b6040518060a001604052808660c001516001600160a01b0316815260200186602001516001600160a01b03168152602001856000015160028111156105bd57fe5b8152602001600281526060870151602091820152600084815260078252604090819020835181547fffffffffffffffffffffffff00000000000000000000000000000000000000009081166001600160a01b0392831617835593850151600183018054909516911617808455918401519394508493909290917fffffffffffffffffffffff00ffffffffffffffffffffffffffffffffffffffff167401000000000000000000000000000000000000000083600281111561067a57fe5b021790555060608201516001820180547fffffffffffffffffffff00ffffffffffffffffffffffffffffffffffffffffff1675010000000000000000000000000000000000000000008360048111156106cf57fe5b0217905550608082015181600201559050507f00000000000000000000000000000000000000000000000000000000000000006001600160a01b031681602001516001600160a01b031614156107325761072d846020015183610f32565b61077e565b7f00000000000000000000000000000000000000000000000000000000000000006001600160a01b031681602001516001600160a01b0316141561077e5761077e846020015183611147565b61078c828560200151611355565b925050505b92915050565b61079f612d98565b6107a7610bf1565b6001600160a01b0316336001600160a01b031614806107ee5750336001600160a01b037f000000000000000000000000000000000000000000000000000000000000000016145b8061080f57506000828152600760205260409020546001600160a01b031633145b61082b5760405162461bcd60e51b81526004016103199061325f565b600082815260076020908152604091829020825160a08101845281546001600160a01b0390811682526001830154908116938201939093529290919083019074010000000000000000000000000000000000000000900460ff16600281111561089057fe5b600281111561089b57fe5b81526020016001820160159054906101000a900460ff1660048111156108bd57fe5b60048111156108c857fe5b81526020016002820154815250509050919050565b7f000000000000000000000000000000000000000000000000000000000000000090565b61090d336102af610bf1565b6109176000611cc1565b565b336001600160a01b037f00000000000000000000000000000000000000000000000000000000000000001614806109685750610953610bf1565b6001600160a01b0316336001600160a01b0316145b6109845760405162461bcd60e51b815260040161031990613296565b60008381526007602052604090206002810180548401905560010180547fffffffffffffffffffff00ffffffffffffffffffffffffffffffffffffffffff16750200000000000000000000000000000000000000000017908190557f00000000000000000000000000000000000000000000000000000000000000006001600160a01b0390811691161415610a2257610a1d8184610f32565b610a72565b6000838152600760205260409020600101547f00000000000000000000000000000000000000000000000000000000000000006001600160a01b0390811691161415610a7257610a728184611147565b505050565b336001600160a01b037f0000000000000000000000000000000000000000000000000000000000000000161480610ac65750610ab1610bf1565b6001600160a01b0316336001600160a01b0316145b610ae25760405162461bcd60e51b815260040161031990613296565b600092835260076020908152604080852080547fffffffffffffffffffffffff00000000000000000000000000000000000000009081168255600180830180547fffffffffffffffffffff0000000000000000000000000000000000000000000090811690915560028085018a9055978952848920805484168155808301805490921690915580880189905592546001600160a01b0390811689526008808752858a20888b528752858a208054851681558084018b9055808a018b905560038082018c905560048083018d905560059283018d905596549093168b52908752858a20978a5296909552928720805490911681559182018690559381018590559081018490559182018390550155565b6000546001600160a01b031690565b610c08612dc7565b610c10610bf1565b6001600160a01b0316336001600160a01b03161480610c375750336001600160a01b038416145b610c535760405162461bcd60e51b81526004016103199061333b565b506001600160a01b03918216600090815260086020908152604080832093835292815290829020825160c0810184528154909416845260018101549184019190915260028101549183019190915260038101546060830152600481015460808301526005015460a082015290565b6000610ccf336102af610bf1565b60026000848152600760205260409020600101547501000000000000000000000000000000000000000000900460ff166004811115610d0a57fe5b14610d275760405162461bcd60e51b815260040161031990613304565b6000838152600760205260409020546001600160a01b03838116911614610d605760405162461bcd60e51b8152600401610319906132cd565b6000838152600760205260408120600101547f00000000000000000000000000000000000000000000000000000000000000006001600160a01b03908116911614610dac576001610daf565b60005b9050610dbb8482611d29565b505050600090815260076020526040812060028101805482547fffffffffffffffffffffffff0000000000000000000000000000000000000000168355600190920180547fffffffffffffffffffff000000000000000000000000000000000000000000001690559190915590565b610e36336102af610bf1565b610e4d6001600160a01b03821615156101ab610e59565b610e5681611cc1565b50565b81610e6757610e6781611e8f565b5050565b8015610ebc57600082815260026020526040902054600180548592908110610e8f57fe5b60009182526020808320600292830201939093558482529091526040902054610a1d57610a1d6000611eb9565b600082815260046020526040902054600380548592908110610eda57fe5b6000918252602080832060029092029091019290925583815260049091526040902054610a7257610a7260006120a1565b6000828201610f1d8482101583610e59565b9392505050565b6000610f1d83836001612286565b6040805180820190915282815260208101828152600380546001810182556000828152935160029182027fc2575a0e9e593c00f959f8c92f12db2869c3395a3b0502d05e2516446f71f85b81019190915592517fc2575a0e9e593c00f959f8c92f12db2869c3395a3b0502d05e2516446f71f85c9093019290925554600019019190610fc09083908361229c565b90505b60008211801561100e575060038281548110610fdb57fe5b90600052602060002090600202016000015460038281548110610ffa57fe5b906000526020600020906002020160000154115b156111415761101b612dfc565b6003828154811061102857fe5b90600052602060002090600202016040518060400160405290816000820154815260200160018201548152505090506003838154811061106457fe5b90600052602060002090600202016003838154811061107f57fe5b906000526020600020906002020160008201548160000155600182015481600101559050508160046000600386815481106110b657fe5b90600052602060002090600202016001015481526020019081526020016000208190555080600384815481106110e857fe5b9060005260206000209060020201600082015181600001556020820151816001015590505082600460008360200151815260200190815260200160002081905550819250611139836002600061229c565b915050610fc3565b50505050565b60408051808201909152828152602081018281526001805480820182556000828152935160029182027fb10e2d527612073b26eecdfd717e6a320cf44b4afac2b0732d9fcbe2b7fa0cf681019190915592517fb10e2d527612073b26eecdfd717e6a320cf44b4afac2b0732d9fcbe2b7fa0cf790930192909255546000190191906111d49083908361229c565b90505b6000821180156112225750600182815481106111ef57fe5b9060005260206000209060020201600001546001828154811061120e57fe5b906000526020600020906002020160000154105b156111415761122f612dfc565b6001828154811061123c57fe5b90600052602060002090600202016040518060400160405290816000820154815260200160018201548152505090506001838154811061127857fe5b90600052602060002090600202016001838154811061129357fe5b906000526020600020906002020160008201548160000155600182015481600101559050508160026000600186815481106112ca57fe5b90600052602060002090600202016001015481526020019081526020016000208190555080600184815481106112fc57fe5b906000526020600020906002020160008201518160000155602082015181600101559050508260026000836020015181526020019081526020016000208190555081925061134d836002600061229c565b9150506111d7565b600080600080806000806000606061136d8b8b6122c4565b9b50909250905081611389578a98505050505050505050610791565b600092505b8051831015611c155760008b8152600760205260409020600201546113b257611c15565b8a8184815181106113bf57fe5b6020026020010151602001511415801561142a575060008b815260076020819052604082205483516001600160a01b03909116929084908790811061140057fe5b6020908102919091018101518101518252810191909152604001600020546001600160a01b031614155b801561147c575060006007600083868151811061144357fe5b602002602001015160200151815260200190815260200160002060010160159054906101000a900460ff16600481111561147957fe5b14155b15611716577f00000000000000000000000000000000000000000000000000000000000000006001600160a01b0316600760008386815181106114bb57fe5b6020908102919091018101518101518252810191909152604001600020600101546001600160a01b031614801561152f575060008b8152600760205260409020600101547f00000000000000000000000000000000000000000000000000000000000000006001600160a01b039081169116145b156115df578981848151811061154157fe5b602002602001015160000151101580611558575089155b8061157a575080838151811061156a57fe5b6020026020010151600001516000145b156115da5780838151811061158b57fe5b6020026020010151600001516000146115bb578083815181106115aa57fe5b6020026020010151600001516115bd565b895b96508083815181106115cb57fe5b60200260200101516020015197505b611716565b7f00000000000000000000000000000000000000000000000000000000000000006001600160a01b03166007600083868151811061161957fe5b6020908102919091018101518101518252810191909152604001600020600101546001600160a01b031614801561168d575060008b8152600760205260409020600101547f00000000000000000000000000000000000000000000000000000000000000006001600160a01b039081169116145b15611716578981848151811061169f57fe5b6020026020010151600001511115806116b6575089155b15611716578083815181106116c757fe5b6020026020010151600001516000146116f7578083815181106116e657fe5b6020026020010151600001516116f9565b895b965080838151811061170757fe5b60200260200101516020015195505b87156119955760008b8152600760205260409020600101547f00000000000000000000000000000000000000000000000000000000000000006001600160a01b03908116911614156119905760008881526007602052604090206002015461177e90886126bc565b60008c81526007602052604090206002015490955085106118dc5760008b81526007602052604090206002015494506117b7858861270d565b6000898152600760205260409020600201549094506117d69085610f24565b60008981526007602052604080822060029081019384558e8352908220018190558990525461183b57600088815260076020526040902060010180547fffffffffffffffffffff00ffffffffffffffffffffffffffffffffffffffffff169055611894565b600088815260076020526040902060010180547fffffffffffffffffffff00ffffffffffffffffffffffffffffffffffffffffff1675010000000000000000000000000000000000000000001790556118948789611147565b60008b815260076020526040902060010180547fffffffffffffffffffff00ffffffffffffffffffffffffffffffffffffffffff1690556118d78b898787612743565b611990565b8415611990576118ec858861270d565b60008c81526007602052604090206002015490945061190b9086610f24565b60008c8152600760205260408082206002808201949094558b8352908220928301829055600192830180547fffffffffffffffffffff00ffffffffffffffffffffffffffffffffffffffffff908116909155918e905291909101805490911675010000000000000000000000000000000000000000001790556119908b898787612743565b611c0a565b8515611c0a5760008b8152600760205260409020600101547f00000000000000000000000000000000000000000000000000000000000000006001600160a01b0390811691161415611c0a576000868152600760205260409020600201546119fd908861270d565b60008c8152600760205260409020600201549094508410611b565760008b8152600760205260409020600201549350611a3684886126bc565b600087815260076020526040902060020154909550611a559086610f24565b60008781526007602052604080822060029081019384558e83529082200181905587905254611aba57600086815260076020526040902060010180547fffffffffffffffffffff00ffffffffffffffffffffffffffffffffffffffffff169055611b13565b600086815260076020526040902060010180547fffffffffffffffffffff00ffffffffffffffffffffffffffffffffffffffffff167501000000000000000000000000000000000000000000179055611b138787610f32565b60008b815260076020526040902060010180547fffffffffffffffffffff00ffffffffffffffffffffffffffffffffffffffffff1690556119908b878787612743565b8315611c0a57611b6684886126bc565b60008c815260076020526040902060020154909550611b859085610f24565b60008c815260076020526040808220600280820194909455898352908220928301829055600192830180547fffffffffffffffffffff00ffffffffffffffffffffffffffffffffffffffffff908116909155918e90529190910180549091167501000000000000000000000000000000000000000000179055611c0a8b878787612743565b60019092019161138e565b6000808c8152600760205260409020600101547501000000000000000000000000000000000000000000900460ff166004811115611c4f57fe5b1415611cb25760008b8152600760205260408120600101547f00000000000000000000000000000000000000000000000000000000000000006001600160a01b03908116911614611ca1576001611ca4565b60005b9050611cb08c82611d29565b505b50989998505050505050505050565b600080546001600160a01b038381167fffffffffffffffffffffffff0000000000000000000000000000000000000000831681178455604051919092169283917f8be0079c531659141344cd1fd0a4f28419497f9722a3daafe3b4186f6b6457e09190a35050565b8015611ddc57600082815260026020526040902054611d5057611d4a612a0b565b50611dd7565b600180546000198101908110611d6257fe5b90600052602060002090600202016001600260008581526020019081526020016000205481548110611d9057fe5b60009182526020909120825460029092020190815560019182015490820155805480611db857fe5b6000828152602081206002600019909301928302018181556001015590555b610e67565b600082815260046020526040902054611dfd57611df7612b47565b50610e67565b60038054611e0c906001612c7d565b81548110611e1657fe5b90600052602060002090600202016003600460008581526020019081526020016000205481548110611e4457fe5b6000918252602090912082546002909202019081556001918201549101556003805480611e6d57fe5b6000828152602081206002600019909301928302018181556001015590555050565b610e56817f42414c0000000000000000000000000000000000000000000000000000000000612c93565b60015460001901611ecb826002612cf4565b1015610e56576000611ede826002612cf4565b9050600060018281548110611eef57fe5b6000918252602082206002909102015491506001611f0d8482610f0b565b81548110611f1757fe5b906000526020600020906002020160000154905080821015611f4157611f3e836001610f0b565b92505b60018381548110611f4e57fe5b90600052602060002090600202016000015460018581548110611f6d57fe5b9060005260206000209060020201600001541115611f8d57505050610e56565b611f95612dfc565b60018581548110611fa257fe5b906000526020600020906002020160405180604001604052908160008201548152602001600182015481525050905060018481548110611fde57fe5b906000526020600020906002020160018681548110611ff957fe5b9060005260206000209060020201600082015481600001556001820154816001015590505084600260006001878154811061203057fe5b906000526020600020906002020160010154815260200190815260200160002081905550806001858154811061206257fe5b6000918252602080832084516002938402909101908155938101516001909401939093559282015181529190526040902083905550909150611eb99050565b600354600019016120b3826002612cf4565b1015610e565760006120c6826002612cf4565b90506000600382815481106120d757fe5b60009182526020822060029091020154915060036120f6846001610f0b565b8154811061210057fe5b90600052602060002090600202016000015490508082111561212a57612127836001610f0b565b92505b6003838154811061213757fe5b9060005260206000209060020201600001546003858154811061215657fe5b906000526020600020906002020160000154101561217657505050610e56565b61217e612dfc565b6003858154811061218b57fe5b9060005260206000209060020201604051806040016040529081600082015481526020016001820154815250509050600384815481106121c757fe5b9060005260206000209060020201600386815481106121e257fe5b9060005260206000209060020201600082015481600001556001820154816001015590505084600460006003878154811061221957fe5b906000526020600020906002020160010154815260200190815260200160002081905550806003858154811061224b57fe5b600091825260208083208451600290930201918255928301516001909101559181015182526004905260409020839055509091506120a19050565b60006122958484111583610e59565b5050900390565b6000816122b2576122ad8484612d0e565b6122bc565b6122bc8484612d2e565b949350505050565b6000828152600760205260408120600101546060908290819083907f00000000000000000000000000000000000000000000000000000000000000006001600160a01b0390811691161461236b5760035467ffffffffffffffff8111801561232b57600080fd5b5060405190808252806020026020018201604052801561236557816020015b612352612dfc565b81526020019060019003908161234a5790505b506123c0565b60015467ffffffffffffffff8111801561238457600080fd5b506040519080825280602002602001820160405280156123be57816020015b6123ab612dfc565b8152602001906001900390816123a35790505b505b600088815260076020526040812060010154919250907f00000000000000000000000000000000000000000000000000000000000000006001600160a01b0390811691161415612557575b6001541561255257600061241d612d61565b90508015801561242b575087155b1561244f5760065415612444575060065496508661244a565b50612552565b612464565b8015801561245c57508715155b156124645750865b878110156124725750612552565b61247a612a0b565b83838151811061248657fe5b60200260200101819052506000808484815181106124a057fe5b602002602001015160000151116124b757816124d0565b8383815181106124c357fe5b6020026020010151600001515b905061251b8561251683600760008989815181106124ea57fe5b6020026020010151602001518152602001908152602001600020600201546126bc90919063ffffffff16565b610f0b565b60008b815260076020526040902060020154909550851061254857509295509093508592506126b5915050565b505060010161240b565b6126ab565b6000888152600760205260409020600101547f00000000000000000000000000000000000000000000000000000000000000006001600160a01b03908116911614156126ab575b600354158015906125be5750866125b3612d88565b1115806125be575086155b156126ab5760006125cd612d88565b9050801580156125db575087155b156125ff57600654156125f457506006549650866125fa565b506126ab565b612614565b8015801561260c57508715155b156126145750865b61261c612b47565b83838151811061262857fe5b6020026020010181905250612677846125166007600087878151811061264a57fe5b6020026020010151602001518152602001908152602001600020600201548461270d90919063ffffffff16565b60008a81526007602052604090206002015490945084106126a2575091945092508491506126b59050565b5060010161259e565b5090935091508390505b9250925092565b60006126cb8215156004610e59565b826126d857506000610791565b670de0b6b3a7640000838102906126fb908583816126f257fe5b04146005610e59565b82818161270457fe5b04915050610791565b600082820261273184158061272a57508385838161272757fe5b04145b6003610e59565b670de0b6b3a764000090049392505050565b6005805460010190819055612756612dc7565b6040518060c001604052806007600089815260200190815260200160002060000160009054906101000a90046001600160a01b03166001600160a01b031681526020018781526020018681526020018381526020018581526020018481525090508060086000600760008a815260200190815260200160002060000160009054906101000a90046001600160a01b03166001600160a01b03166001600160a01b03168152602001908152602001600020600084815260200190815260200160002060008201518160000160006101000a8154816001600160a01b0302191690836001600160a01b031602179055506020820151816001015560408201518160020155606082015181600301556080820151816004015560a0820151816005015590505080600860006007600089815260200190815260200160002060000160009054906101000a90046001600160a01b03166001600160a01b03166001600160a01b03168152602001908152602001600020600084815260200190815260200160002060008201518160000160006101000a8154816001600160a01b0302191690836001600160a01b031602179055506020820151816001015560408201518160020155606082015181600301556080820151816004015560a082015181600501559050507f00000000000000000000000000000000000000000000000000000000000000006001600160a01b03167f7905ef94d8bcd34dab6c31415ecb3b825f4582c3a3d6753ccaac2c9bdacf7dc26007600089815260200190815260200160002060000160009054906101000a90046001600160a01b03166007600089815260200190815260200160002060000160009054906101000a90046001600160a01b031684606001516040516129ee9392919061318d565b60405180910390a2612a0083856126bc565b600655505050505050565b612a13612dfc565b600154612a325760405162461bcd60e51b8152600401610319906131ba565b612a3a612dfc565b6001600081548110612a4857fe5b906000526020600020906002020160405180604001604052908160008201548152602001600182015481525050905060018080805490500381548110612a8a57fe5b90600052602060002090600202016001600081548110612aa657fe5b906000526020600020906002020160008201548160000155600182015481600101559050506000600260006001600081548110612adf57fe5b9060005260206000209060020201600101548152602001908152602001600020819055506001805480612b0e57fe5b6000828152602081206002600019909301928302018181556001908101829055919092555415612b4157612b4181611eb9565b50905090565b612b4f612dfc565b600354612b6e5760405162461bcd60e51b8152600401610319906131ba565b612b76612dfc565b6003600081548110612b8457fe5b9060005260206000209060020201604051806040016040529081600082015481526020016001820154815250509050600360016003805490500381548110612bc857fe5b90600052602060002090600202016003600081548110612be457fe5b906000526020600020906002020160008201548160000155600182015481600101559050506000600460006003600081548110612c1d57fe5b9060005260206000209060020201600101548152602001908152602001600020819055506003805480612c4c57fe5b600082815260208120600260001990930192830201818155600101819055915560035415612b4157612b41816120a1565b6000612c8d838311156001610e59565b50900390565b62461bcd60e51b600090815260206004526007602452600a808404818106603090810160081b958390069590950190829004918206850160101b01602363ffffff0060e086901c160160181b0190930160c81b60445260e882901c90606490fd5b6000828202610f1d84158061272a57508385838161272757fe5b6000612d1d8215156004610e59565b818381612d2657fe5b049392505050565b6000612d3d8215156004610e59565b82612d4a57506000610791565b816001840381612d5657fe5b046001019050610791565b60006001600081548110612d7157fe5b906000526020600020906002020160000154905090565b60006003600081548110612d7157fe5b6040805160a0810182526000808252602082018190529091820190815260200160008152602001600081525090565b6040805160c081018252600080825260208201819052918101829052606081018290526080810182905260a081019190915290565b604080518082019091526000808252602082015290565b803561079181613443565b600082601f830112612e2e578081fd5b813567ffffffffffffffff811115612e44578182fd5b612e7560207fffffffffffffffffffffffffffffffffffffffffffffffffffffffffffffffe0601f8401160161341c565b9150808252836020828501011115612e8c57600080fd5b8060208401602084013760009082016020015292915050565b80356002811061079157600080fd5b6000610120808385031215612ec7578182fd5b612ed08161341c565b915050612edd8383612ea5565b8152612eec8360208401612e13565b6020820152612efe8360408401612e13565b6040820152606082013560608201526080820135608082015260a082013560a0820152612f2e8360c08401612e13565b60c0820152612f408360e08401612e13565b60e08201526101008083013567ffffffffffffffff811115612f6157600080fd5b612f6d85828601612e1e565b82840152505092915050565b600060208284031215612f8a578081fd5b8135610f1d81613443565b60008060408385031215612fa7578081fd5b8235612fb281613443565b946020939093013593505050565b600060208284031215612fd1578081fd5b5035919050565b600060208284031215612fe9578081fd5b5051919050565b60008060408385031215613002578182fd5b82359150602083013561301481613443565b809150509250929050565b600080600060608486031215613033578081fd5b505081359360208301359350604090920135919050565b60008060006060848603121561305e578283fd5b8335925060208401359150604084013567ffffffffffffffff811115613082578182fd5b61308e86828701612eb4565b9150509250925092565b600080600060608486031215613033578283fd5b60008082840360608112156130bf578283fd5b833567ffffffffffffffff8111156130d5578384fd5b6130e186828701612eb4565b93505060407fffffffffffffffffffffffffffffffffffffffffffffffffffffffffffffffe082011215613113578182fd5b5061311e604061341c565b60208401356003811061312f578283fd5b81526040939093013560208401525092909150565b60609290921b7fffffffffffffffffffffffffffffffffffffffff000000000000000000000000168252601482015260340190565b6001600160a01b0391909116815260200190565b6001600160a01b039384168152919092166020820152604081019190915260600190565b90815260200190565b60208082526012908201527f4f72646572626f6f6b20697320656d7074790000000000000000000000000000604082015260600190565b60208082526012908201527f496e76616c6964206f7264657220747970650000000000000000000000000000604082015260600190565b60208082526015908201527f54726164656420616d6f756e74206973207a65726f0000000000000000000000604082015260600190565b6020808252601d908201527f556e617574686f72697a65642061636365737320746f206f7264657273000000604082015260600190565b60208082526013908201527f556e617574686f72697a65642061636365737300000000000000000000000000604082015260600190565b6020808252601b908201527f53656e646572206973206e6f74206f726465722063726561746f720000000000604082015260600190565b60208082526017908201527f4f7264657220697320616c72656164792066696c6c6564000000000000000000604082015260600190565b6020808252601d908201527f556e617574686f72697a65642061636365737320746f20747261646573000000604082015260600190565b600060a0820190506001600160a01b03808451168352806020850151166020840152506040830151600381106133a457fe5b60408301526060830151600581106133b857fe5b806060840152506080830151608083015292915050565b600060c0820190506001600160a01b0383511682526020830151602083015260408301516040830152606083015160608301526080830151608083015260a083015160a083015292915050565b60405181810167ffffffffffffffff8111828210171561343b57600080fd5b604052919050565b6001600160a01b0381168114610e5657600080fdfea2646970667358221220cd46f4607bd14f9ba6d7f5f09860e0eaa3bc0d647ab6e82016d647bb595aeb9764736f6c63430007010033",
  "linkReferences": {},
  "deployedLinkReferences": {}
}