{
  "_format": "hh-sol-artifact-1",
  "contractName": "SecondaryIssuePoolFactory",
  "sourceName": "contracts/SecondaryIssuePoolFactory.sol",
  "abi": [
    {
      "inputs": [
        {
          "internalType": "contract IVault",
          "name": "vault",
          "type": "address"
        },
        {
          "internalType": "contract IProtocolFeePercentagesProvider",
          "name": "protocolFeeProvider",
          "type": "address"
        }
      ],
      "stateMutability": "nonpayable",
      "type": "constructor"
    },
    {
      "anonymous": false,
      "inputs": [],
      "name": "FactoryDisabled",
      "type": "event"
    },
    {
      "anonymous": false,
      "inputs": [
        {
          "indexed": true,
          "internalType": "address",
          "name": "pool",
          "type": "address"
        }
      ],
      "name": "PoolCreated",
      "type": "event"
    },
    {
      "inputs": [
        {
          "internalType": "string",
          "name": "name",
          "type": "string"
        },
        {
          "internalType": "string",
          "name": "symbol",
          "type": "string"
        },
        {
          "internalType": "address",
          "name": "security",
          "type": "address"
        },
        {
          "internalType": "address",
          "name": "currency",
          "type": "address"
        },
        {
          "internalType": "uint256",
          "name": "minOrderSize",
          "type": "uint256"
        },
        {
          "internalType": "uint256",
          "name": "tradeFeePercentage",
          "type": "uint256"
        }
      ],
      "name": "create",
      "outputs": [
        {
          "internalType": "address",
          "name": "",
          "type": "address"
        }
      ],
      "stateMutability": "nonpayable",
      "type": "function"
    },
    {
      "inputs": [],
      "name": "disable",
      "outputs": [],
      "stateMutability": "nonpayable",
      "type": "function"
    },
    {
      "inputs": [
        {
          "internalType": "bytes4",
          "name": "selector",
          "type": "bytes4"
        }
      ],
      "name": "getActionId",
      "outputs": [
        {
          "internalType": "bytes32",
          "name": "",
          "type": "bytes32"
        }
      ],
      "stateMutability": "view",
      "type": "function"
    },
    {
      "inputs": [],
      "name": "getAuthorizer",
      "outputs": [
        {
          "internalType": "contract IAuthorizer",
          "name": "",
          "type": "address"
        }
      ],
      "stateMutability": "view",
      "type": "function"
    },
    {
      "inputs": [],
      "name": "getCreationCode",
      "outputs": [
        {
          "internalType": "bytes",
          "name": "",
          "type": "bytes"
        }
      ],
      "stateMutability": "view",
      "type": "function"
    },
    {
      "inputs": [],
      "name": "getCreationCodeContracts",
      "outputs": [
        {
          "internalType": "address",
          "name": "contractA",
          "type": "address"
        },
        {
          "internalType": "address",
          "name": "contractB",
          "type": "address"
        }
      ],
      "stateMutability": "view",
      "type": "function"
    },
    {
      "inputs": [],
      "name": "getPauseConfiguration",
      "outputs": [
        {
          "internalType": "uint256",
          "name": "pauseWindowDuration",
          "type": "uint256"
        },
        {
          "internalType": "uint256",
          "name": "bufferPeriodDuration",
          "type": "uint256"
        }
      ],
      "stateMutability": "view",
      "type": "function"
    },
    {
      "inputs": [],
      "name": "getProtocolFeePercentagesProvider",
      "outputs": [
        {
          "internalType": "contract IProtocolFeePercentagesProvider",
          "name": "",
          "type": "address"
        }
      ],
      "stateMutability": "view",
      "type": "function"
    },
    {
      "inputs": [],
      "name": "getVault",
      "outputs": [
        {
          "internalType": "contract IVault",
          "name": "",
          "type": "address"
        }
      ],
      "stateMutability": "view",
      "type": "function"
    },
    {
      "inputs": [],
      "name": "isDisabled",
      "outputs": [
        {
          "internalType": "bool",
          "name": "",
          "type": "bool"
        }
      ],
      "stateMutability": "view",
      "type": "function"
    },
    {
      "inputs": [
        {
          "internalType": "address",
          "name": "pool",
          "type": "address"
        }
      ],
      "name": "isPoolFromFactory",
      "outputs": [
        {
          "internalType": "bool",
          "name": "",
          "type": "bool"
        }
      ],
      "stateMutability": "view",
      "type": "function"
    }
  ],
  "bytecode": "0x6101806040523480156200001257600080fd5b50604051620090c1380380620090c18339810160408190526200003591620001fc565b8181604051806020016200004990620001ee565b601f1982820381018352601f90910116604052805183903090839060006002820460a081905280830360e08190528185529091508362000095816200010f602090811b6200043717901c565b60601b6001600160601b0319166080528285018051838252620000c4826200010f602090811b6200043717901c565b6001600160601b0319606091821b811660c05296909352905261010095909552505092821b831661012052509290921b90911661014052505050426276a70001610160525062000250565b80517f602038038060206000396000f3fefefefefefefefefefefefefefefefefefefe808352600091602081018484f090845291506200015d6001600160a01b03831615156101ac62000163565b50919050565b816200017457620001748162000178565b5050565b6200018a816210905360ea1b6200018d565b50565b62461bcd60e51b600090815260206004526007602452600a808404818106603090810160081b958390069590950190829004918206850160101b01602363ffffff0060e086901c160160181b0190930160c81b60445260e882901c90606490fd5b6183378062000d8a83390190565b600080604083850312156200020f578182fd5b82516200021c816200023a565b60208401519092506200022f816200023a565b809150509250929050565b6001600160a01b03811681146200018a57600080fd5b60805160601c60a05160c05160601c60e051610100516101205160601c6101405160601c61016051610ac1620002c9600039806101ec52806102155250806102c052508061039b52508061034b5250806104915250806101c3528061050d5250806104b25250806101a252806104e95250610ac16000f3fe608060405234801561001057600080fd5b50600436106100a85760003560e01c80636c57f5a9116100715780636c57f5a914610121578063739238d61461012957806374dcc7a41461013e578063851c1bb3146101515780638d928af814610171578063aaabadc514610179576100a8565b8062c194db146100ad578063174481fa146100cb5780632da47c40146100e15780632f2770db146100f75780636634b75314610101575b600080fd5b6100b5610181565b6040516100c2919061098e565b60405180910390f35b6100d36101a0565b6040516100c2929190610941565b6100e96101e6565b6040516100c2929190610a68565b6100ff610250565b005b61011461010f3660046107c7565b610297565b6040516100c2919061095b565b6101146102b5565b6101316102be565b6040516100c2919061092d565b61013161014c366004610847565b6102e2565b61016461015f366004610803565b610347565b6040516100c29190610966565b610131610399565b6101316103bd565b606061019b60405180602001604052806000815250610489565b905090565b7f00000000000000000000000000000000000000000000000000000000000000007f00000000000000000000000000000000000000000000000000000000000000009091565b600080427f000000000000000000000000000000000000000000000000000000000000000081101561024257807f000000000000000000000000000000000000000000000000000000000000000003925062278d00915061024b565b60009250600091505b509091565b610258610562565b610260610593565b6001805460ff1916811790556040517f432acbfd662dbb5d8b378384a67159b47ca9d0f1b79f97cf64cf8585fa362d5090600090a1565b6001600160a01b031660009081526020819052604090205460ff1690565b60015460ff1690565b7f000000000000000000000000000000000000000000000000000000000000000090565b60008060006102ef6101e6565b915091506103386102fe610399565b8c8c8c8c8c8c8c8c8b8b336040516020016103249c9b9a999897969594939291906109e1565b6040516020818303038152906040526105a8565b9b9a5050505050505050505050565b60007f00000000000000000000000000000000000000000000000000000000000000008260405160200161037c929190610915565b604051602081830303815290604052805190602001209050919050565b7f000000000000000000000000000000000000000000000000000000000000000090565b60006103c7610399565b6001600160a01b031663aaabadc56040518163ffffffff1660e01b815260040160206040518083038186803b1580156103ff57600080fd5b505afa158015610413573d6000803e3d6000fd5b505050506040513d601f19601f8201168201806040525081019061019b919061082b565b80517f602038038060206000396000f3fefefefefefefefefefefefefefefefefefefe808352600091602081018484f090845291506104836001600160a01b03831615156101ac610611565b50919050565b8051604080517f00000000000000000000000000000000000000000000000000000000000000007f0000000000000000000000000000000000000000000000000000000000000000818101858101848101602090810190965280855293957f00000000000000000000000000000000000000000000000000000000000000009592947f000000000000000000000000000000000000000000000000000000000000000094938801866000828a3c846000888301883c5060208981019089850101610554818386610623565b505050505050505050919050565b60006105796000356001600160e01b031916610347565b90506105906105888233610661565b610191610611565b50565b6105a661059e6102b5565b1560d3610611565b565b60006105b2610593565b60006105bd836106f1565b6001600160a01b038116600081815260208190526040808220805460ff191660011790555192935090917f83a48fbcfc991335314e74d0496aab6a1987e992ddc85dddbcc4d6dd6ef2e9fc9190a292915050565b8161061f5761061f81610725565b5050565b5b60208110610643578151835260209283019290910190601f1901610624565b905182516020929092036101000a6000190180199091169116179052565b600061066b6103bd565b6001600160a01b0316639be2a8848484306040518463ffffffff1660e01b815260040161069a9392919061096f565b60206040518083038186803b1580156106b257600080fd5b505afa1580156106c6573d6000803e3d6000fd5b505050506040513d601f19601f820116820180604052508101906106ea91906107e3565b9392505050565b600060606106fe83610489565b905060008151602083016000f090506001600160a01b0381166106ea573d6000803e3d6000fd5b62461bcd60e51b600090815260206004526007602452600a808304818106603090810160081b83860601918390049283060160101b016642414c230000300160c81b604452610590916210905360ea1b906242414c90606490fd5b60008083601f840112610791578182fd5b50813567ffffffffffffffff8111156107a8578182fd5b6020830191508360208285010111156107c057600080fd5b9250929050565b6000602082840312156107d8578081fd5b81356106ea81610a76565b6000602082840312156107f4578081fd5b815180151581146106ea578182fd5b600060208284031215610814578081fd5b81356001600160e01b0319811681146106ea578182fd5b60006020828403121561083c578081fd5b81516106ea81610a76565b60008060008060008060008060c0898b031215610862578384fd5b883567ffffffffffffffff80821115610879578586fd5b6108858c838d01610780565b909a50985060208b013591508082111561089d578586fd5b506108aa8b828c01610780565b90975095505060408901356108be81610a76565b935060608901356108ce81610a76565b979a969950949793969295929450505060808201359160a0013590565b60008284528282602086013780602084860101526020601f19601f85011685010190509392505050565b9182526001600160e01b031916602082015260240190565b6001600160a01b0391909116815260200190565b6001600160a01b0392831681529116602082015260400190565b901515815260200190565b90815260200190565b9283526001600160a01b03918216602084015216604082015260600190565b6000602080835283518082850152825b818110156109ba5785810183015185820160400152820161099e565b818111156109cb5783604083870101525b50601f01601f1916929092016040019392505050565b6001600160a01b038d16815261014060208201819052600090610a079083018d8f6108eb565b8281036040840152610a1a818c8e6108eb565b6001600160a01b039a8b166060850152988a166080840152505060a081019590955260c085019390935260e08401919091526101008301529092166101209092019190915295945050505050565b918252602082015260400190565b6001600160a01b038116811461059057600080fdfea2646970667358221220f53eede1d667c4da08da033f9a04c17847a172bf17855e68a11dedcaf96ad8b364736f6c634300070100336102e06040523480156200001257600080fd5b506040516200833738038062008337833981016040819052620000359162000b88565b8960008a8a620000478b8b30620004d1565b6040805160038082526080820190925290602082016060803683370190505089898989828289898d85336001600160a01b031660001b8480604051806040016040528060018152602001603160f81b81525087878160039080519060200190620000b3929190620009f2565b508051620000c9906004906020840190620009f2565b50506005805460ff19166012179055508151602092830120608052805191012060a052507f8b73c3c69bb8fe3d512ecc4cf759cc79239f7b179b0ffacaa9a75d522b39400f60c05260e0526001600160601b0319606091821b81166101005291901b1661012052506200014790506276a700831115610194620005a0565b6200015b62278d00821115610195620005a0565b42909101610140819052016101605285516200017d906002111560c8620005a0565b620001976200018b620005b5565b8751111560c9620005a0565b620001ad86620005ba60201b62001e9f1760201c565b620001b884620005c6565b6040516309b2760f60e01b81526000906001600160a01b038c16906309b2760f90620001e9908d9060040162000d51565b602060405180830381600087803b1580156200020457600080fd5b505af115801562000219573d6000803e3d6000fd5b505050506040513d601f19601f820116820180604052508101906200023f919062000b50565b604051633354e3e960e11b81529091506001600160a01b038c16906366a9c7d290620002749084908b908b9060040162000cb5565b600060405180830381600087803b1580156200028f57600080fd5b505af1158015620002a4573d6000803e3d6000fd5b505050508061018081815250508a6001600160a01b031663d2946c2b6040518163ffffffff1660e01b815260040160206040518083038186803b158015620002eb57600080fd5b505afa15801562000300573d6000803e3d6000fd5b505050506040513d601f19601f8201168201806040525081019062000326919062000b69565b6001600160a01b03166101a0816001600160a01b031660601b815250505050505050505050505050866001600160a01b03166101c0816001600160a01b031660601b81525050856001600160a01b03166101e0816001600160a01b031660601b8152505089600a60006101000a8154816001600160a01b0302191690836001600160a01b031602179055506000806000620003c98a8a306200065a60201b60201c565b6102608190526102808390526102a082905291945092509050620003ed8a62000750565b61020052620003fc8962000750565b610220526102408890526001600160601b0319606085901b166102c05260405184908b908b9030906200042f9062000a77565b6200043e949392919062000c8a565b604051809103906000f0801580156200045b573d6000803e3d6000fd5b50600980546001600160a01b0319166001600160a01b0392831617908190556040518c8316927f32e7b5e5c88bb4ec1dca71e1e00fc2444e236858d09faa9ddbb9d8c710549ecb92620004b6928d928f9216908a9062000d6f565b60405180910390a25050505050505050505050505062000db8565b606060008080620004e48787876200065a565b60408051600380825260808201909252939650919450925060208201606080368337019050509350868484815181106200051a57fe5b60200260200101906001600160a01b031690816001600160a01b031681525050858483815181106200054857fe5b60200260200101906001600160a01b031690816001600160a01b031681525050848482815181106200057657fe5b60200260200101906001600160a01b031690816001600160a01b0316815250505050509392505050565b81620005b157620005b18162000824565b5050565b600390565b80620005b18162000839565b620005df620005d4620008c5565b82101560cb620005a0565b620005f8620005ed620008ce565b82111560ca620005a0565b6200061a8160c0603f600854620008da60201b62001ea917909392919060201c565b6008556040517fa9ba3ffe0b6c366b81232caab38605a0699ad5398d6cce76f91ee809e322dafc906200064f90839062000d66565b60405180910390a150565b6000806000846001600160a01b0316866001600160a01b03161015620006e357836001600160a01b0316856001600160a01b03161015620006a657506000915060019050600262000747565b836001600160a01b0316866001600160a01b03161015620006d257506000915060029050600162000747565b506001915060029050600062000747565b846001600160a01b0316846001600160a01b031610156200070f57506002915060019050600062000747565b856001600160a01b0316846001600160a01b031610156200073b57506002915060009050600162000747565b50600191506000905060025b93509350939050565b60006001600160a01b038216301415620007745750670de0b6b3a76400006200081f565b6000826001600160a01b031663313ce5676040518163ffffffff1660e01b815260040160206040518083038186803b158015620007b057600080fd5b505afa158015620007c5573d6000803e3d6000fd5b505050506040513d601f19601f82011682018060405250810190620007eb919062000c67565b60ff16905060006200080a601283620008ff60201b62001ecc1760201c565b905080600a0a670de0b6b3a764000002925050505b919050565b62000836816210905360ea1b6200091c565b50565b6002815110156200084a5762000836565b6000816000815181106200085a57fe5b602002602001015190506000600190505b8251811015620008c05760008382815181106200088457fe5b60200260200101519050620008b5816001600160a01b0316846001600160a01b0316106065620005a060201b60201c565b91506001016200086b565b505050565b64e8d4a5100090565b67016345785d8a000090565b6000620008e98484846200097d565b506001901b60001901811b1992909216911b1790565b600062000911838311156001620005a0565b508082035b92915050565b62461bcd60e51b600090815260206004526007602452600a808404818106603090810160081b958390069590950190829004918206850160101b01602363ffffff0060e086901c160160181b0190930160c81b60445260e882901c90606490fd5b6200098e61010083106064620005a0565b620009c760018210158015620009bf5750620009bb60ff8461010003620009d860201b62001ee21760201c565b8211155b6064620005a0565b620008c083821c156101b4620005a0565b6000818310620009e95781620009eb565b825b9392505050565b828054600181600116156101000203166002900490600052602060002090601f016020900481019282601f1062000a3557805160ff191683800117855562000a65565b8280016001018555821562000a65579182015b8281111562000a6557825182559160200191906001019062000a48565b5062000a7392915062000a85565b5090565b61330f806200502883390190565b5b8082111562000a73576000815560010162000a86565b8051620009168162000da2565b600082601f83011262000aba578081fd5b81516001600160401b038082111562000ad1578283fd5b6040516020601f8401601f191682018101838111838210171562000af3578586fd5b8060405250819450838252868185880101111562000b1057600080fd5b600092505b8383101562000b34578583018101518284018201529182019162000b15565b8383111562000b465760008185840101525b5050505092915050565b60006020828403121562000b62578081fd5b5051919050565b60006020828403121562000b7b578081fd5b8151620009eb8162000da2565b6000806000806000806000806000806101408b8d03121562000ba8578586fd5b62000bb48c8c62000a9c565b60208c0151909a506001600160401b038082111562000bd1578788fd5b62000bdf8e838f0162000aa9565b9a5060408d015191508082111562000bf5578788fd5b5062000c048d828e0162000aa9565b98505062000c168c60608d0162000a9c565b965062000c278c60808d0162000a9c565b955060a08b0151945060c08b0151935060e08b015192506101008b0151915062000c568c6101208d0162000a9c565b90509295989b9194979a5092959850565b60006020828403121562000c79578081fd5b815160ff81168114620009eb578182fd5b6001600160a01b03948516815292841660208401529083166040830152909116606082015260800190565b60006060820185835260206060818501528186518084526080860191508288019350845b8181101562000d015762000cee855162000d96565b8352938301939183019160010162000cd9565b505084810360408601528551808252908201925081860190845b8181101562000d435762000d30835162000d96565b8552938301939183019160010162000d1b565b509298975050505050505050565b602081016003831062000d6057fe5b91905290565b90815260200190565b9384526001600160a01b039283166020850152908216604084015216606082015260800190565b6001600160a01b031690565b6001600160a01b03811681146200083657600080fd5b60805160a05160c05160e0516101005160601c6101205160601c6101405161016051610180516101a05160601c6101c05160601c6101e05160601c61020051610220516102405161026051610280516102a0516102c05160601c61411062000f1860003980610e9e52806129ce525080611fe25280612a3a5280612a94525080611f7c52508061132052806114e1528061151e528061155c52806120375250806113e952806118c8525080610e5b528061200a5280612a6d525080610e275280611fa4525080610582528061061852806109a15280610a325280610ddc5280610fa9528061146c52806119665250806105c15280610658528061083252806109185280610a965280610b045280610f6a528061142d5280611802525080611c7952508061185552508061223352508061220f525080611b61525080611b3d525080611ac7525080612b25525080612b67525080612b4652506141106000f3fe608060405234801561001057600080fd5b50600436106102535760003560e01c806370a0823111610146578063a457c2d7116100c3578063d2946c2b11610087578063d2946c2b14610499578063d505accf146104a1578063d5c096c4146104b4578063dd62ed3e146104c7578063ed24911d146104da578063fd19cac8146104e257610253565b8063a457c2d71461045b578063a9059cbb1461046e578063aaabadc514610481578063b35056b814610489578063b7b814fc1461049157610253565b806387ec68171161010a57806387ec68171461041d578063893d20e8146104305780638d928af81461043857806390193b7c1461044057806395d89b411461045357610253565b806370a08231146103bb57806374f3b009146103ce5780637ecebe00146103ef5780638456cb5914610402578063851c1bb31461040a57610253565b806338e9922e116101d457806350dd6ed91161019857806350dd6ed91461036f57806354a844ba1461038257806355c676281461038a5780636028bfd4146103925780636945c1fd146103b357610253565b806338e9922e1461032f57806338fff2d014610344578063395093511461034c5780633f4ba83a1461035f5780634d6d0fd01461036757610253565b80631dd746ea1161021b5780631dd746ea146102d557806323b872dd146102ea5780632541897f146102fd578063313ce567146103125780633644e5151461032757610253565b806301ec954a1461025857806306fdde0314610281578063095ea7b31461029657806318160ddd146102b65780631c0de051146102be575b600080fd5b61026b6102663660046137bb565b6104ea565b6040516102789190613c93565b60405180910390f35b6102896116a1565b6040516102789190613dd7565b6102a96102a436600461350d565b611737565b6040516102789190613c70565b61026b61174e565b6102c6611754565b60405161027893929190613c7b565b6102dd61177d565b6040516102789190613c2f565b6102a96102f836600461345d565b61178c565b610305611800565b6040516102789190613bc1565b61031a611824565b6040516102789190614034565b61026b61182d565b61034261033d3660046139ba565b611837565b005b61026b611853565b6102a961035a36600461350d565b611877565b6103426118b2565b61026b6118c6565b61034261037d36600461367a565b6118ea565b610342611908565b61026b61191a565b6103a56103a0366004613570565b61192d565b60405161027892919061401b565b610305611964565b61026b6103c9366004613409565b611988565b6103e16103dc366004613570565b6119a3565b604051610278929190613c42565b61026b6103fd366004613409565b611aa6565b610342611ab1565b61026b610418366004613636565b611ac3565b6103a561042b366004613570565b611b15565b610305611b3b565b610305611b5f565b61026b61044e366004613409565b611b83565b610289611b9e565b6102a961046936600461350d565b611bff565b6102a961047c36600461350d565b611c3d565b610305611c4a565b6102a9611c54565b610342611c65565b610305611c77565b6103426104af36600461349d565b611c9b565b6103e16104c2366004613570565b611d26565b61026b6104d5366004613425565b611e49565b61026b611e86565b610305611e90565b600084608001516105176104fc611b5f565b6001600160a01b0316336001600160a01b03161460cd611efa565b61052c610522611853565b82146101f4611efa565b610534611f08565b60008651600181111561054357fe5b148061055b575060018651600181111561055957fe5b145b6105805760405162461bcd60e51b815260040161057790613e94565b60405180910390fd5b7f00000000000000000000000000000000000000000000000000000000000000006001600160a01b031686604001516001600160a01b031614806105f957507f00000000000000000000000000000000000000000000000000000000000000006001600160a01b031686604001516001600160a01b0316145b80610610575060408601516001600160a01b031630145b8061065057507f00000000000000000000000000000000000000000000000000000000000000006001600160a01b031686602001516001600160a01b0316145b8061069057507f00000000000000000000000000000000000000000000000000000000000000006001600160a01b031686602001516001600160a01b0316145b806106a7575060208601516001600160a01b031630145b6106c35760405162461bcd60e51b815260040161057790613dea565b60606106cd611f1b565b90506106d9868261208e565b6106e16132d0565b6000808080808c5160018111156106f457fe5b14156107255761071b8c60600151878c8151811061070e57fe5b60200260200101516120fd565b60608d0152610754565b60018c51600181111561073457fe5b14156107545761074e8c60600151878b8151811061070e57fe5b60608d01525b6101008c015151156113d0578b61010001518060200190518101906107799190613613565b909450925064131a5b5a5d60da1b915083610f34576107966132e7565b60095460c08e015160405163ca142f7560e01b81526001600160a01b039092169163ca142f75916107cb918890600401613c16565b60c06040518083038186803b1580156107e357600080fd5b505afa1580156107f7573d6000803e3d6000fd5b505050506040513d601f19601f8201168201806040525081019061081b9190613954565b60095460c08f015182519293506001600160a01b037f000000000000000000000000000000000000000000000000000000000000000081169392811692635778472a92908216911614610872578360400151610878565b83602001515b6040518263ffffffff1660e01b81526004016108949190613c93565b60a06040518083038186803b1580156108ac57600080fd5b505afa1580156108c0573d6000803e3d6000fd5b505050506040513d601f19601f820116820180604052508101906108e491906138da565b602001516001600160a01b031614610907576763757272656e637960c01b610914565b67736563757269747960c01b5b92507f00000000000000000000000000000000000000000000000000000000000000006001600160a01b03168d604001516001600160a01b0316148015610967575060008d51600181111561096557fe5b145b1561099f57806080015191508c606001518160a001511461099a5760405162461bcd60e51b815260040161057790613f0a565b610a2e565b7f00000000000000000000000000000000000000000000000000000000000000006001600160a01b03168d604001516001600160a01b03161480156109f0575060008d5160018111156109ee57fe5b145b15610a23578060a0015191508c6060015181608001511461099a5760405162461bcd60e51b815260040161057790613eba565b610a2e610163612109565b60007f00000000000000000000000000000000000000000000000000000000000000006001600160a01b03168e604001516001600160a01b0316148015610a81575060208e01516001600160a01b031630145b15610a9457506314d95b1b60e21b610b02565b7f00000000000000000000000000000000000000000000000000000000000000006001600160a01b03168e604001516001600160a01b0316148015610ae5575060208e01516001600160a01b031630145b15610af757506242757960e81b610b02565b610b02610163612109565b7f00000000000000000000000000000000000000000000000000000000000000006001600160a01b03167fd6a806535ec4f172139ede2e9d6bbbe20957ca8a454fd40c9747fe139efe42478f60c001516001600160a01b031684600001516001600160a01b031614610b78578360400151610b7e565b83602001515b67736563757269747960c01b8714610c19576009546040808701519051632bbc239560e11b81526001600160a01b0390921691635778472a91610bc391600401613c93565b60a06040518083038186803b158015610bdb57600080fd5b505afa158015610bef573d6000803e3d6000fd5b505050506040513d601f19601f82011682018060405250810190610c1391906138da565b51610c9e565b6009546020860151604051632bbc239560e11b81526001600160a01b0390921691635778472a91610c4c91600401613c93565b60a06040518083038186803b158015610c6457600080fd5b505afa158015610c78573d6000803e3d6000fd5b505050506040513d601f19601f82011682018060405250810190610c9c91906138da565b515b6763757272656e637960c01b8814610d39576009546040808801519051632bbc239560e11b81526001600160a01b0390921691635778472a91610ce391600401613c93565b60a06040518083038186803b158015610cfb57600080fd5b505afa158015610d0f573d6000803e3d6000fd5b505050506040513d601f19601f82011682018060405250810190610d3391906138da565b51610dbe565b6009546020870151604051632bbc239560e11b81526001600160a01b0390921691635778472a91610d6c91600401613c93565b60a06040518083038186803b158015610d8457600080fd5b505afa158015610d98573d6000803e3d6000fd5b505050506040513d601f19601f82011682018060405250810190610dbc91906138da565b515b85610dda88608001518960a0015161211990919063ffffffff16565b7f00000000000000000000000000000000000000000000000000000000000000008a8a60600151604051610e15989796959493929190613cd2565b60405180910390a2610e4b82608001517f000000000000000000000000000000000000000000000000000000000000000061216a565b608083015260a0820151610e7f907f000000000000000000000000000000000000000000000000000000000000000061216a565b60a08301526009546040516371eedc7f60e01b81526001600160a01b037f00000000000000000000000000000000000000000000000000000000000000008116926371eedc7f92610ed69287921690600401613fca565b600060405180830381600087803b158015610ef057600080fd5b505af1158015610f04573d6000803e3d6000fd5b50505050610f2583898d81518110610f1857fe5b602002602001015161216a565b99505050505050505050611698565b8184148015610f4257508215155b15610f635760408051808201909152806001815260200184905294506113cb565b82611131577f00000000000000000000000000000000000000000000000000000000000000006001600160a01b03168c604001516001600160a01b03161480610fe157507f00000000000000000000000000000000000000000000000000000000000000006001600160a01b03168c604001516001600160a01b0316145b8015610ff9575060208c01516001600160a01b031630145b8015611011575060008c51600181111561100f57fe5b145b156111215760095460c08d0151604051636b0d76bd60e11b81526001600160a01b039092169163d61aed7a9161104c91889190600401613c9c565b602060405180830381600087803b15801561106657600080fd5b505af115801561107a573d6000803e3d6000fd5b505050506040513d601f19601f8201168201806040525081019061109e9190613558565b90508b6060015181146110c35760405162461bcd60e51b815260040161057790613e51565b6000805160206140bb8339815191528c60c001518d602001518e604001518f6060015187428a6040516110fc9796959493929190613bd5565b60405180910390a161111481878b81518110610f1857fe5b9750505050505050611698565b61112c610163612109565b6113cb565b82156113c05760208c01516001600160a01b03163014801561115f575060008c51600181111561115d57fe5b145b1561124257600960009054906101000a90046001600160a01b03166001600160a01b03166346764e5e85858f6040518463ffffffff1660e01b81526004016111a993929190613d9a565b602060405180830381600087803b1580156111c357600080fd5b505af11580156111d7573d6000803e3d6000fd5b505050506040513d601f19601f820116820180604052508101906111fb9190613558565b905061120b818d60600151611ecc565b90506000805160206140bb8339815191528c60c001518d604001518e602001518487428a6040516110fc9796959493929190613bd5565b60408c01516001600160a01b03163014801561126a575060008c51600181111561126857fe5b145b1561112157600960009054906101000a90046001600160a01b03166001600160a01b03166346764e5e85858f6040518463ffffffff1660e01b81526004016112b493929190613d9a565b602060405180830381600087803b1580156112ce57600080fd5b505af11580156112e2573d6000803e3d6000fd5b505050506040513d601f19601f820116820180604052508101906113069190613558565b90506113168c6060015182612176565b90508b606001518b7f00000000000000000000000000000000000000000000000000000000000000008151811061134957fe5b6020026020010151101561136f5760405162461bcd60e51b815260040161057790613f5a565b6000805160206140bb8339815191528c60c001518d602001518e604001518487428a6040516113a49796959493929190613bd5565b60405180910390a16111148c60600151878b81518110610f1857fe5b6113cb610163612109565b6113e7565b604080518082019091526000808252602082015294505b7f00000000000000000000000000000000000000000000000000000000000000008c60600151101561142b5760405162461bcd60e51b815260040161057790613e1a565b7f00000000000000000000000000000000000000000000000000000000000000006001600160a01b03168c602001516001600160a01b031614806114a457507f00000000000000000000000000000000000000000000000000000000000000006001600160a01b03168c602001516001600160a01b0316145b80156114bc575060408c01516001600160a01b031630145b80156114d4575060008c5160018111156114d257fe5b145b1561162b578b606001518b7f00000000000000000000000000000000000000000000000000000000000000008151811061150a57fe5b6020026020010151111561161b576115598b7f00000000000000000000000000000000000000000000000000000000000000008151811061154757fe5b60200260200101518d60600151611ecc565b8b7f00000000000000000000000000000000000000000000000000000000000000008151811061158557fe5b6020908102919091010152600954604051635487e8cf60e01b81526001600160a01b0390911690635487e8cf906115c2908f908990600401613f91565b602060405180830381600087803b1580156115dc57600080fd5b505af11580156115f0573d6000803e3d6000fd5b505050506040513d601f19601f820116820180604052508101906116149190613558565b9150611626565b611626610201612109565b611636565b611636610163612109565b6000805160206140bb8339815191528c60c001518d602001518e604001518f60600151896020015142886040516116739796959493929190613bd5565b60405180910390a161168f8c60600151878b81518110610f1857fe5b97505050505050505b50949350505050565b60038054604080516020601f600260001961010060018816150201909516949094049384018190048102820181019092528281526060939092909183018282801561172d5780601f106117025761010080835404028352916020019161172d565b820191906000526020600020905b81548152906001019060200180831161171057829003601f168201915b5050505050905090565b6000611744338484612188565b5060015b92915050565b60025490565b60008060006117616121f0565b15925061176c61220d565b9150611776612231565b9050909192565b6060611787611f1b565b905090565b6000806117998533611e49565b90506117bd336001600160a01b03871614806117b55750838210155b61019e611efa565b6117c8858585612255565b336001600160a01b038616148015906117e357506000198114155b156117f5576117f58533858403612188565b506001949350505050565b7f000000000000000000000000000000000000000000000000000000000000000090565b60055460ff1690565b6000611787611e86565b61183f612335565b611847611f08565b61185081612363565b50565b7f000000000000000000000000000000000000000000000000000000000000000090565b3360008181526001602090815260408083206001600160a01b038716845290915281205490916117449185906118ad9086612176565b612188565b6118ba612335565b6118c460006123dc565b565b7f000000000000000000000000000000000000000000000000000000000000000090565b6118f2612335565b6118fa611f08565b611904828261244f565b5050565b611910612335565b6118c46001612544565b6008546000906117879060c0603f61259b565b60006060611943865161193e6125aa565b6125af565b611958898989898989896125bc61260e612677565b97509795505050505050565b7f000000000000000000000000000000000000000000000000000000000000000090565b6001600160a01b031660009081526020819052604090205490565b606080886119b26104fc611b5f565b6119bd610522611853565b606060006119ca866127a1565b156119f2576119d76127d0565b6119e9896119e361174e565b886127e3565b92509050611a44565b6119fa61280f565b6060611a04611f1b565b9050611a108a8261208e565b611a348d8d8d8d8d611a20611c54565b611a2a578d611a2d565b60005b878e6125bc565b93509150611a42838261260e565b505b611a4e8b82612817565b81895167ffffffffffffffff81118015611a6757600080fd5b50604051908082528060200260200182016040528015611a91578160200160208202803683370190505b509450945050505b5097509795505050505050565b600061174882611b83565b611ab9612335565b6118c460016123dc565b60007f000000000000000000000000000000000000000000000000000000000000000082604051602001611af8929190613b7e565b604051602081830303815290604052805190602001209050919050565b60006060611b26865161193e6125aa565b6119588989898989898961282161283d612677565b7f000000000000000000000000000000000000000000000000000000000000000090565b7f000000000000000000000000000000000000000000000000000000000000000090565b6001600160a01b031660009081526006602052604090205490565b60048054604080516020601f600260001961010060018816150201909516949094049384018190048102820181019092528281526060939092909183018282801561172d5780601f106117025761010080835404028352916020019161172d565b600080611c0c3385611e49565b9050808310611c2657611c2133856000612188565b611c33565b611c333385858403612188565b5060019392505050565b6000611744338484612255565b60006117876128a6565b6008546000906117879060ff612920565b611c6d612335565b6118c46000612544565b7f000000000000000000000000000000000000000000000000000000000000000090565b60007f6e71edae12b1b97f4d1f60370fef10105fa2faae0126114a169c64845d6126c9888888611cca8c611b83565b89604051602001611ce096959493929190613d19565b604051602081830303815290604052805190602001209050611d118882611d0887878761292a565b886101f8612969565b611d1c888888612188565b5050505050505050565b60608088611d356104fc611b5f565b611d40610522611853565b611d4861280f565b6060611d52611f1b565b9050611d5c61174e565b611e095760006060611d718d8d8d868b6129c0565b91509150611d8a611d80612ae5565b83101560cc611efa565b611d9c6000611d97612ae5565b612aec565b611daf8b611da8612ae5565b8403612aec565b611db9818461283d565b808a5167ffffffffffffffff81118015611dd257600080fd5b50604051908082528060200260200182016040528015611dfc578160200160208202803683370190505b5095509550505050611a99565b611e13888261208e565b60006060611e3b8d8d8d8d8d611e27611c54565b611e31578d611e34565b60005b898e612821565b91509150611daf8b83612aec565b6000611e53611b5f565b6001600160a01b0316826001600160a01b03161415611e755750600019611748565b611e7f8383612af6565b9050611748565b6000611787612b21565b6009546001600160a01b031681565b8061190481612bbe565b6000611eb6848484612c3c565b506001901b60001901811b1992909216911b1790565b6000611edc838311156001611efa565b50900390565b6000818310611ef15781611ef3565b825b9392505050565b816119045761190481612109565b6118c4611f136121f0565b610192611efa565b60606000611f276125aa565b905060608167ffffffffffffffff81118015611f4257600080fd5b50604051908082528060200260200182016040528015611f6c578160200160208202803683370190505b50905060005b82811015612087577f0000000000000000000000000000000000000000000000000000000000000000811415611fe0577f0000000000000000000000000000000000000000000000000000000000000000828281518110611fcf57fe5b60200260200101818152505061207f565b7f0000000000000000000000000000000000000000000000000000000000000000811415612035577f0000000000000000000000000000000000000000000000000000000000000000828281518110611fcf57fe5b7f000000000000000000000000000000000000000000000000000000000000000081141561207f57670de0b6b3a764000082828151811061207257fe5b6020026020010181815250505b600101611f72565b5091505090565b8151815161209d9082906125af565b60005b818110156120f7576120d88482815181106120b757fe5b60200260200101518483815181106120cb57fe5b6020026020010151612c83565b8482815181106120e457fe5b60209081029190910101526001016120a0565b50505050565b6000611ef38383612c83565b611850816210905360ea1b612cb9565b60006121288215156004611efa565b8261213557506000611748565b670de0b6b3a7640000838102906121589085838161214f57fe5b04146005611efa565b82818161216157fe5b04915050611748565b6000611ef38383612119565b6000828201611ef38482101583611efa565b6001600160a01b0380841660008181526001602090815260408083209487168084529490915290819020849055517f8c5be1e5ebec7d5bd14f71427d1e84f3dd0314c0f7b2291e5b200ac8c7c3b925906121e3908590613c93565b60405180910390a3505050565b60006121fa612231565b42118061178757505060075460ff161590565b7f000000000000000000000000000000000000000000000000000000000000000090565b7f000000000000000000000000000000000000000000000000000000000000000090565b61226c6001600160a01b0384161515610198611efa565b6122836001600160a01b0383161515610199611efa565b61228e838383612c37565b6001600160a01b0383166000908152602081905260409020546122b490826101a0612d1a565b6001600160a01b0380851660009081526020819052604080822093909355908416815220546122e39082612176565b6001600160a01b0380841660008181526020819052604090819020939093559151908516907fddf252ad1be2c89b69c2b068fc378daa952ba7f163c4a11628f55a4df523b3ef906121e3908590613c93565b600061234c6000356001600160e01b031916611ac3565b905061185061235b8233612d30565b610191611efa565b61237861236e612e19565b82101560cb611efa565b61238d612383612e22565b82111560ca611efa565b60085461239e908260c0603f611ea9565b6008556040517fa9ba3ffe0b6c366b81232caab38605a0699ad5398d6cce76f91ee809e322dafc906123d1908390613c93565b60405180910390a150565b80156123fc576123f76123ed61220d565b4210610193611efa565b612411565b612411612407612231565b42106101a9611efa565b6007805460ff19168215151790556040517f9e3a5e37224532dea67b89face185703738a228a6e8a23dee546960180d3be64906123d1908390613c70565b6000612459611853565b90506000612465611b5f565b6001600160a01b031663b05f8e4883866040518363ffffffff1660e01b8152600401612492929190613c9c565b60806040518083038186803b1580156124aa57600080fd5b505afa1580156124be573d6000803e3d6000fd5b505050506040513d601f19601f820116820180604052508101906124e291906139d2565b604051630639cdb560e21b81529094506001600160a01b03851693506318e736d49250612516915085908790600401613d79565b600060405180830381600087803b15801561253057600080fd5b505af1158015611d1c573d6000803e3d6000fd5b600854612553908260ff612e2e565b6008556040517feff3d4d215b42bf0960be9c6d5e05c22cba4df6627a3a523e2acee733b5854c890612586908390613c70565b60405180910390a180611850576118506118c4565b6001901b6000190191901c1690565b600390565b6119048183146067611efa565b6000606060006125cb84612e55565b905060018160018111156125db57fe5b146125f0576125eb610163612109565b612600565b6125fa8885612e6b565b90935091505b509850989650505050505050565b8151815161261d9082906125af565b60005b818110156120f75761265884828151811061263757fe5b602002602001015184838151811061264b57fe5b6020026020010151612119565b84828151811061266457fe5b6020908102919091010152600101612620565b333014612735576000306001600160a01b031660003660405161269b929190613b96565b6000604051808303816000865af19150503d80600081146126d8576040519150601f19603f3d011682016040523d82523d6000602084013e6126dd565b606091505b5050905080600081146126ec57fe5b60046000803e6000516001600160e01b0319166343adbafb60e01b8114612717573d6000803e3d6000fd5b506020600460003e604060205260243d03602460403e601c3d016000f35b61273d61280f565b6060612747611f1b565b9050612753878261208e565b6000606061276b8c8c8c8c8c8c898d8d63ffffffff16565b9150915061277d81848663ffffffff16565b8051601f1982018390526343adbafb603f1983015260200260231982016044820181fd5b6000808251118015611748575060ff8016828060200190518101906127c69190613a12565b60ff161492915050565b6118c46127db611c54565b6101b6611efa565b6000606060006127f284612f0e565b90506060612801878784612f24565b919791965090945050505050565b6118c4611f08565b6119048282612fd3565b60006060612830610163612109565b9850989650505050505050565b8151815161284c9082906125af565b60005b818110156120f75761288784828151811061286657fe5b602002602001015184838151811061287a57fe5b602002602001015161309f565b84828151811061289357fe5b602090810291909101015260010161284f565b60006128b0611b5f565b6001600160a01b031663aaabadc56040518163ffffffff1660e01b815260040160206040518083038186803b1580156128e857600080fd5b505afa1580156128fc573d6000803e3d6000fd5b505050506040513d601f19601f82011682018060405250810190611787919061365e565b1c60019081161490565b60408051604180825260808201909252606091829190602082018180368337019050509050836020820152826040820152846060820153949350505050565b6000612974856130ed565b905061298a612984878387613109565b83611efa565b612999428410156101b8611efa565b5050506001600160a01b039092166000908152600660205260409020805460010190555050565b600060606129cc611f08565b7f0000000000000000000000000000000000000000000000000000000000000000612a076001600160a01b0388811690831614610156611efa565b612a27816001600160a01b0316876001600160a01b031614610156611efa565b6060612a32856131b8565b9050612a91817f000000000000000000000000000000000000000000000000000000000000000081518110612a6357fe5b60200260200101517f00000000000000000000000000000000000000000000000000000000000000006120fd565b817f000000000000000000000000000000000000000000000000000000000000000081518110612abd57fe5b60209081029190910101526dffffffffffffffffffffffffffff999098509650505050505050565b620f424090565b61190482826131ce565b6001600160a01b03918216600090815260016020908152604080832093909416825291909152205490565b60007f00000000000000000000000000000000000000000000000000000000000000007f00000000000000000000000000000000000000000000000000000000000000007f0000000000000000000000000000000000000000000000000000000000000000612b8e613261565b30604051602001612ba3959493929190613d4d565b60405160208183030381529060405280519060200120905090565b600281511015612bcd57611850565b600081600081518110612bdc57fe5b602002602001015190506000600190505b8251811015612c37576000838281518110612c0457fe5b60200260200101519050612c2d816001600160a01b0316846001600160a01b0316106065611efa565b9150600101612bed565b505050565b612c4b61010083106064611efa565b612c7460018210158015612c6d5750612c6960ff8461010003611ee2565b8211155b6064611efa565b612c3783821c156101b4611efa565b6000828202612ca7841580612ca0575083858381612c9d57fe5b04145b6003611efa565b670de0b6b3a764000090049392505050565b62461bcd60e51b600090815260206004526007602452600a808404818106603090810160081b958390069590950190829004918206850160101b01602363ffffff0060e086901c160160181b0190930160c81b60445260e882901c90606490fd5b6000612d298484111583611efa565b5050900390565b600073ba1ba1ba1ba1ba1ba1ba1ba1ba1ba1ba1ba1ba1b612d4f611b3b565b6001600160a01b031614158015612d6a5750612d6a83613265565b15612d9257612d77611b3b565b6001600160a01b0316336001600160a01b0316149050611748565b612d9a6128a6565b6001600160a01b0316639be2a8848484306040518463ffffffff1660e01b8152600401612dc993929190613cb3565b60206040518083038186803b158015612de157600080fd5b505afa158015612df5573d6000803e3d6000fd5b505050506040513d601f19601f82011682018060405250810190611e7f9190613538565b64e8d4a5100090565b67016345785d8a000090565b60006001821b1984168284612e44576000612e47565b60015b60ff16901b17949350505050565b60008180602001905181019061174891906136c8565b600060606000612e7a846132a1565b90506060855167ffffffffffffffff81118015612e9657600080fd5b50604051908082528060200260200182016040528015612ec0578160200160208202803683370190505b50905060005b8651811015612f0257868181518110612edb57fe5b6020026020010151828281518110612eef57fe5b6020908102919091010152600101612ec6565b50909590945092505050565b600081806020019051810190611ef39190613a2e565b60606000612f328385612119565b9050845167ffffffffffffffff81118015612f4c57600080fd5b50604051908082528060200260200182016040528015612f76578160200160208202803683370190505b50915060005b8551811015612fca57612fab82878381518110612f9557fe5b6020026020010151612c8390919063ffffffff16565b838281518110612fb757fe5b6020908102919091010152600101612f7c565b50509392505050565b612fea6001600160a01b038316151561019b611efa565b612ff682600083612c37565b6001600160a01b03821660009081526020819052604090205461301c90826101b2612d1a565b6001600160a01b03831660009081526020819052604090205561304f61304a8261304461174e565b906132b7565b6132c5565b60006001600160a01b0316826001600160a01b03167fddf252ad1be2c89b69c2b068fc378daa952ba7f163c4a11628f55a4df523b3ef836040516130939190613c93565b60405180910390a35050565b60006130ae8215156004611efa565b826130bb57506000611748565b670de0b6b3a7640000838102906130d59085838161214f57fe5b8260018203816130e157fe5b04600101915050611748565b60006130f7612b21565b82604051602001611af8929190613ba6565b600061311b82516041146101b9611efa565b60208281015160408085015160608601518251600080825295019283905292939092811a91600190613154908990859088908890613db9565b6020604051602081039080840390855afa158015613176573d6000803e3d6000fd5b5050604051601f1901519150506001600160a01b038116158015906131ac5750876001600160a01b0316816001600160a01b0316145b98975050505050505050565b606081806020019051810190611ef39190613711565b6131da60008383612c37565b6131ef61304a826131e961174e565b90612176565b6001600160a01b0382166000908152602081905260409020546132129082612176565b6001600160a01b0383166000818152602081905260408082209390935591519091907fddf252ad1be2c89b69c2b068fc378daa952ba7f163c4a11628f55a4df523b3ef90613093908590613c93565b4690565b6000613277631c74c91760e11b611ac3565b821480613292575061328f6350dd6ed960e01b611ac3565b82145b806117485750611748826132ca565b600081806020019051810190611ef391906136e4565b6000611ef383836001612d1a565b600255565b50600090565b604080518082019091526000808252602082015290565b6040805160c081018252600080825260208201819052918101829052606081018290526080810182905260a081019190915290565b803561174881614089565b600082601f830112613337578081fd5b813561334a61334582614069565b614042565b81815291506020808301908481018184028601820187101561336b57600080fd5b60005b8481101561338a5781358452928201929082019060010161336e565b505050505092915050565b600082601f8301126133a5578081fd5b813567ffffffffffffffff8111156133bb578182fd5b6133ce601f8201601f1916602001614042565b91508082528360208285010111156133e557600080fd5b8060208401602084013760009082016020015292915050565b80356117488161409e565b60006020828403121561341a578081fd5b8135611ef381614089565b60008060408385031215613437578081fd5b823561344281614089565b9150602083013561345281614089565b809150509250929050565b600080600060608486031215613471578081fd5b833561347c81614089565b9250602084013561348c81614089565b929592945050506040919091013590565b600080600080600080600060e0888a0312156134b7578485fd5b87356134c281614089565b965060208801356134d281614089565b9550604088013594506060880135935060808801356134f0816140ab565b9699959850939692959460a0840135945060c09093013592915050565b6000806040838503121561351f578182fd5b823561352a81614089565b946020939093013593505050565b600060208284031215613549578081fd5b81518015158114611ef3578182fd5b600060208284031215613569578081fd5b5051919050565b600080600080600080600060e0888a03121561358a578081fd5b87359650602088013561359c81614089565b955060408801356135ac81614089565b9450606088013567ffffffffffffffff808211156135c8578283fd5b6135d48b838c01613327565b955060808a0135945060a08a0135935060c08a01359150808211156135f7578283fd5b506136048a828b01613395565b91505092959891949750929550565b60008060408385031215613625578182fd5b505080516020909101519092909150565b600060208284031215613647578081fd5b81356001600160e01b031981168114611ef3578182fd5b60006020828403121561366f578081fd5b8151611ef381614089565b6000806040838503121561368c578182fd5b823561369781614089565b9150602083013567ffffffffffffffff8111156136b2578182fd5b6136be85828601613395565b9150509250929050565b6000602082840312156136d9578081fd5b8151611ef38161409e565b600080604083850312156136f6578182fd5b82516137018161409e565b6020939093015192949293505050565b60008060408385031215613723578182fd5b825160048110613731578283fd5b8092505060208084015167ffffffffffffffff81111561374f578283fd5b8401601f8101861361375f578283fd5b805161376d61334582614069565b81815283810190838501858402850186018a1015613789578687fd5b8694505b838510156137ab57805183526001949094019391850191850161378d565b5080955050505050509250929050565b600080600080608085870312156137d0578182fd5b843567ffffffffffffffff808211156137e7578384fd5b818701915061012080838a0312156137fd578485fd5b61380681614042565b905061381289846133fe565b8152613821896020850161331c565b6020820152613833896040850161331c565b6040820152606083013560608201526080830135608082015260a083013560a08201526138638960c0850161331c565b60c08201526138758960e0850161331c565b60e0820152610100808401358381111561388d578687fd5b6138998b828701613395565b8284015250508096505060208701359150808211156138b6578384fd5b506138c387828801613327565b949794965050505060408301359260600135919050565b600060a082840312156138eb578081fd5b6138f560a0614042565b825161390081614089565b8152602083015161391081614089565b6020820152604083015160038110613926578283fd5b604082015260608301516005811061393c578283fd5b60608201526080928301519281019290925250919050565b600060c08284031215613965578081fd5b61396f60c0614042565b825161397a81614089565b808252506020830151602082015260408301516040820152606083015160608201526080830151608082015260a083015160a08201528091505092915050565b6000602082840312156139cb578081fd5b5035919050565b600080600080608085870312156139e7578182fd5b8451935060208501519250604085015191506060850151613a0781614089565b939692955090935050565b600060208284031215613a23578081fd5b8151611ef3816140ab565b60008060408385031215613a40578182fd5b8251613701816140ab565b6001600160a01b03169052565b6000815180845260208085019450808401835b83811015613a8757815187529582019590820190600101613a6b565b509495945050505050565b60008151808452815b81811015613ab757602081850181015186830182015201613a9b565b81811115613ac85782602083870101525b50601f01601f19169290920160200192915050565b6000610120825160028110613aee57fe5b808552506020830151613b046020860182613a4b565b506040830151613b176040860182613a4b565b50606083015160608501526080830151608085015260a083015160a085015260c0830151613b4860c0860182613a4b565b5060e0830151613b5b60e0860182613a4b565b50610100808401518282870152613b7483870182613a92565b9695505050505050565b9182526001600160e01b031916602082015260240190565b6000828483379101908152919050565b61190160f01b81526002810192909252602282015260420190565b6001600160a01b0391909116815260200190565b6001600160a01b03978816815295871660208701529390951660408501526060840191909152608083015260a082019290925260c081019190915260e00190565b6001600160a01b03929092168252602082015260400190565b600060208252611ef36020830184613a58565b600060408252613c556040830185613a58565b8281036020840152613c678185613a58565b95945050505050565b901515815260200190565b92151583526020830191909152604082015260600190565b90815260200190565b9182526001600160a01b0316602082015260400190565b9283526001600160a01b03918216602084015216604082015260600190565b9788526001600160a01b03968716602089015294861660408801526060870193909352608086019190915290921660a084015260c083019190915260e08201526101000190565b9586526001600160a01b0394851660208701529290931660408501526060840152608083019190915260a082015260c00190565b9485526020850193909352604084019190915260608301526001600160a01b0316608082015260a00190565b600083825260406020830152613d926040830184613a92565b949350505050565b600084825283602083015260606040830152613c676060830184613add565b93845260ff9290921660208401526040830152606082015260800190565b600060208252611ef36020830184613a92565b602080825260169082015275496e76616c6964207377617070656420746f6b656e7360501b604082015260600190565b60208082526018908201527f4f726465722062656c6f77206d696e696d756d2073697a650000000000000000604082015260600190565b60208082526023908201527f496e73756666696369656e7420706f6f6c20746f6b656e7320737761707065646040820152621034b760e91b606082015260800190565b6020808252600c908201526b0496e76616c696420737761760a41b604082015260600190565b60208082526030908201527f496e73756666696369656e7420706f6f6c20746f6b656e73207377617070656460408201526f20696e20666f722063757272656e637960801b606082015260800190565b60208082526030908201527f496e73756666696369656e7420706f6f6c20746f6b656e73207377617070656460408201526f20696e20666f7220736563757269747960801b606082015260800190565b6020808252601d908201527f494e53554646494349454e545f494e5445524e414c5f42414c414e4345000000604082015260600190565b600060608252613fa46060830185613add565b9050825160038110613fb257fe5b80602084015250602083015160408301529392505050565b82516001600160a01b0390811682526020808501519083015260408085015190830152606080850151908301526080808501519083015260a09384015193820193909352911660c082015260e00190565b600083825260406020830152613d926040830184613a58565b60ff91909116815260200190565b60405181810167ffffffffffffffff8111828210171561406157600080fd5b604052919050565b600067ffffffffffffffff82111561407f578081fd5b5060209081020190565b6001600160a01b038116811461185057600080fd5b6002811061185057600080fd5b60ff8116811461185057600080fdfe9b85ff671b830162b81f1cb1253d54a6fee66e6f9760fc15cfc3fecccca8f118a264697066735822122047eb79d26f0a05f4eabed3bd702deaf4108925efbf3ab2e63e21246601d64aac64736f6c634300070100336101006040523480156200001257600080fd5b506040516200330f3803806200330f8339810160408190526200003591620000de565b620000403362000070565b6001600160601b0319606094851b811660c05292841b831660805290831b821660a05290911b1660e0526200013e565b600080546001600160a01b038381166001600160a01b0319831681178455604051919092169283917f8be0079c531659141344cd1fd0a4f28419497f9722a3daafe3b4186f6b6457e09190a35050565b80516001600160a01b0381168114620000d857600080fd5b92915050565b60008060008060808587031215620000f4578384fd5b620001008686620000c0565b9350620001118660208701620000c0565b9250620001228660408701620000c0565b9150620001338660608701620000c0565b905092959194509250565b60805160601c60a05160601c60c05160601c60e05160601c61312b620001e4600039806101fc525080610739528061088052806109b15250806103f652806106a1528061083b52806109655280611340528061151c52806117dc52806122c45250806101d5528061035252806103b7528061065052806109105280610c6152806113be528061149e52806115ed52806119f4528061203a5280612131525061312b6000f3fe608060405234801561001057600080fd5b50600436106100cf5760003560e01c8063715018a61161008c5780638da5cb5b116100665780638da5cb5b14610185578063ca142f751461018d578063d61aed7a146101ad578063f2fde38b146101c0576100cf565b8063715018a6146101555780637ef938901461015f57806381b5da1d14610172576100cf565b80632541897f146100d457806338fff2d0146100f257806346764e5e146101075780635487e8cf1461011a5780635778472a1461012d5780636945c1fd1461014d575b600080fd5b6100dc6101d3565b6040516100e99190612e69565b60405180910390f35b6100fa6101f7565b6040516100e99190612e7d565b6100fa610115366004612d6b565b610291565b6100fa610128366004612dcd565b610495565b61014061013b366004612ce1565b610704565b6040516100e99190613016565b6100dc610839565b61015d61085d565b005b61015d61016d366004612db9565b610875565b61015d610180366004612d40565b6109a6565b6100dc610af0565b6101a061019b366004612cb6565b610aff565b6040516100e99190613071565b6100fa6101bb366004612d11565b610bc0565b61015d6101ce366004612c9a565b610ce7565b7f000000000000000000000000000000000000000000000000000000000000000090565b6000807f00000000000000000000000000000000000000000000000000000000000000006001600160a01b03166338fff2d06040518163ffffffff1660e01b815260040160206040518083038186803b15801561025357600080fd5b505afa158015610267573d6000803e3d6000fd5b505050506040513d601f19601f8201168201806040525081019061028b9190612cf9565b91505090565b60006102b13361029f610af0565b6001600160a01b0316146101aa610d16565b6002600085815260076020526040902060010154600160a81b900460ff1660048111156102da57fe5b146103005760405162461bcd60e51b81526004016102f790612fa8565b60405180910390fd5b60c08201516000858152600760205260409020546001600160a01b0390811691161461033e5760405162461bcd60e51b81526004016102f790612f71565b6000848152600760205260408120600101547f00000000000000000000000000000000000000000000000000000000000000006001600160a01b0390811691161461038a57600161038d565b60005b905061039a848683610d28565b6000600760008781526020019081526020016000206002015490507f00000000000000000000000000000000000000000000000000000000000000006001600160a01b031684602001516001600160a01b0316148061042e57507f00000000000000000000000000000000000000000000000000000000000000006001600160a01b031684602001516001600160a01b0316145b1561045857610441846060015182610dc8565b60008781526007602052604090206002015561048c565b60008681526007602052604090206002015460608501516104799190610de1565b6000878152600760205260409020600201555b95945050505050565b60006104a33361029f610af0565b60608301516104c45760405162461bcd60e51b81526004016102f790612ede565b6000825160028111156104d357fe5b14806104eb57506001825160028111156104e957fe5b145b6105075760405162461bcd60e51b81526004016102f790612eb2565b6005544214610516574261051d565b6005546001015b600581905560c084015160405160009261053a9291602001612e47565b60405160208183030381529060405280519060200120905061055a612ad7565b6040518060a001604052808660c001516001600160a01b0316815260200186602001516001600160a01b031681526020018560000151600281111561059b57fe5b8152602001600281526060870151602091820152600084815260078252604090819020835181546001600160a01b03199081166001600160a01b03928316178355938501516001830180549095169116178084559184015193945084939092909160ff60a01b1916600160a01b83600281111561061457fe5b0217905550606082015160018201805460ff60a81b1916600160a81b83600481111561063c57fe5b0217905550608082015181600201559050507f00000000000000000000000000000000000000000000000000000000000000006001600160a01b031681602001516001600160a01b0316141561069f5761069a846020015183610def565b6106eb565b7f00000000000000000000000000000000000000000000000000000000000000006001600160a01b031681602001516001600160a01b031614156106eb576106eb846020015183611004565b6106f9828560200151611212565b925050505b92915050565b61070c612ad7565b610714610af0565b6001600160a01b0316336001600160a01b0316148061075b5750336001600160a01b037f000000000000000000000000000000000000000000000000000000000000000016145b8061077c57506000828152600760205260409020546001600160a01b031633145b6107985760405162461bcd60e51b81526004016102f790612f0d565b600082815260076020908152604091829020825160a08101845281546001600160a01b03908116825260018301549081169382019390935292909190830190600160a01b900460ff1660028111156107ec57fe5b60028111156107f757fe5b81526020016001820160159054906101000a900460ff16600481111561081957fe5b600481111561082457fe5b81526020016002820154815250509050919050565b7f000000000000000000000000000000000000000000000000000000000000000090565b6108693361029f610af0565b6108736000611a4c565b565b336001600160a01b037f00000000000000000000000000000000000000000000000000000000000000001614806108c457506108af610af0565b6001600160a01b0316336001600160a01b0316145b6108e05760405162461bcd60e51b81526004016102f790612f44565b600083815260076020526040902060028101805484019055600101805460ff60a81b1916600160a91b17908190557f00000000000000000000000000000000000000000000000000000000000000006001600160a01b03908116911614156109515761094c8184610def565b6109a1565b6000838152600760205260409020600101547f00000000000000000000000000000000000000000000000000000000000000006001600160a01b03908116911614156109a1576109a18184611004565b505050565b336001600160a01b037f00000000000000000000000000000000000000000000000000000000000000001614806109f557506109e0610af0565b6001600160a01b0316336001600160a01b0316145b610a115760405162461bcd60e51b81526004016102f790612f44565b600092835260076020908152604080852080546001600160a01b03199081168255600180830180546001600160b01b031990811690915560028085018a9055978952848920805484168155808301805490921690915580880189905592546001600160a01b0390811689526008808752858a20888b528752858a208054851681558084018b9055808a018b905560038082018c905560048083018d905560059283018d905596549093168b52908752858a20978a5296909552928720805490911681559182018690559381018590559081018490559182018390550155565b6000546001600160a01b031690565b610b07612b06565b610b0f610af0565b6001600160a01b0316336001600160a01b03161480610b365750336001600160a01b038416145b610b525760405162461bcd60e51b81526004016102f790612fdf565b506001600160a01b03918216600090815260086020908152604080832093835292815290829020825160c0810184528154909416845260018101549184019190915260028101549183019190915260038101546060830152600481015460808301526005015460a082015290565b6000610bce3361029f610af0565b6002600084815260076020526040902060010154600160a81b900460ff166004811115610bf757fe5b14610c145760405162461bcd60e51b81526004016102f790612fa8565b6000838152600760205260409020546001600160a01b03838116911614610c4d5760405162461bcd60e51b81526004016102f790612f71565b6000838152600760205260408120600101547f00000000000000000000000000000000000000000000000000000000000000006001600160a01b03908116911614610c99576001610c9c565b60005b9050610ca88482611a9c565b505050600090815260076020526040812060028101805482546001600160a01b0319168355600190920180546001600160b01b03191690559190915590565b610cf33361029f610af0565b610d0a6001600160a01b03821615156101ab610d16565b610d1381611a4c565b50565b81610d2457610d2481611c02565b5050565b8015610d7957600082815260026020526040902054600180548592908110610d4c57fe5b6000918252602080832060029283020193909355848252909152604090205461094c5761094c6000611c12565b600082815260046020526040902054600380548592908110610d9757fe5b60009182526020808320600290920290910192909255838152600490915260409020546109a1576109a16000611dfa565b6000828201610dda8482101583610d16565b9392505050565b6000610dda83836001611fdf565b6040805180820190915282815260208101828152600380546001810182556000828152935160029182027fc2575a0e9e593c00f959f8c92f12db2869c3395a3b0502d05e2516446f71f85b81019190915592517fc2575a0e9e593c00f959f8c92f12db2869c3395a3b0502d05e2516446f71f85c9093019290925554600019019190610e7d90839083611ff5565b90505b600082118015610ecb575060038281548110610e9857fe5b90600052602060002090600202016000015460038281548110610eb757fe5b906000526020600020906002020160000154115b15610ffe57610ed8612b3b565b60038281548110610ee557fe5b906000526020600020906002020160405180604001604052908160008201548152602001600182015481525050905060038381548110610f2157fe5b906000526020600020906002020160038381548110610f3c57fe5b90600052602060002090600202016000820154816000015560018201548160010155905050816004600060038681548110610f7357fe5b9060005260206000209060020201600101548152602001908152602001600020819055508060038481548110610fa557fe5b9060005260206000209060020201600082015181600001556020820151816001015590505082600460008360200151815260200190815260200160002081905550819250610ff68360026000611ff5565b915050610e80565b50505050565b60408051808201909152828152602081018281526001805480820182556000828152935160029182027fb10e2d527612073b26eecdfd717e6a320cf44b4afac2b0732d9fcbe2b7fa0cf681019190915592517fb10e2d527612073b26eecdfd717e6a320cf44b4afac2b0732d9fcbe2b7fa0cf7909301929092555460001901919061109190839083611ff5565b90505b6000821180156110df5750600182815481106110ac57fe5b906000526020600020906002020160000154600182815481106110cb57fe5b906000526020600020906002020160000154105b15610ffe576110ec612b3b565b600182815481106110f957fe5b90600052602060002090600202016040518060400160405290816000820154815260200160018201548152505090506001838154811061113557fe5b90600052602060002090600202016001838154811061115057fe5b9060005260206000209060020201600082015481600001556001820154816001015590505081600260006001868154811061118757fe5b90600052602060002090600202016001015481526020019081526020016000208190555080600184815481106111b957fe5b906000526020600020906002020160008201518160000155602082015181600101559050508260026000836020015181526020019081526020016000208190555081925061120a8360026000611ff5565b915050611094565b600080600080806000806000606061122a8b8b61201d565b9b50909250905081611246578a985050505050505050506106fe565b600092505b80518310156119b25760008b81526007602052604090206002015461126f576119b2565b8a81848151811061127c57fe5b602002602001015160200151141580156112e7575060008b815260076020819052604082205483516001600160a01b0390911692908490879081106112bd57fe5b6020908102919091018101518101518252810191909152604001600020546001600160a01b031614155b8015611339575060006007600083868151811061130057fe5b602002602001015160200151815260200190815260200160002060010160159054906101000a900460ff16600481111561133657fe5b14155b156115d3577f00000000000000000000000000000000000000000000000000000000000000006001600160a01b03166007600083868151811061137857fe5b6020908102919091018101518101518252810191909152604001600020600101546001600160a01b03161480156113ec575060008b8152600760205260409020600101547f00000000000000000000000000000000000000000000000000000000000000006001600160a01b039081169116145b1561149c57898184815181106113fe57fe5b602002602001015160000151101580611415575089155b80611437575080838151811061142757fe5b6020026020010151600001516000145b156114975780838151811061144857fe5b6020026020010151600001516000146114785780838151811061146757fe5b60200260200101516000015161147a565b895b965080838151811061148857fe5b60200260200101516020015197505b6115d3565b7f00000000000000000000000000000000000000000000000000000000000000006001600160a01b0316600760008386815181106114d657fe5b6020908102919091018101518101518252810191909152604001600020600101546001600160a01b031614801561154a575060008b8152600760205260409020600101547f00000000000000000000000000000000000000000000000000000000000000006001600160a01b039081169116145b156115d3578981848151811061155c57fe5b602002602001015160000151111580611573575089155b156115d35780838151811061158457fe5b6020026020010151600001516000146115b4578083815181106115a357fe5b6020026020010151600001516115b6565b895b96508083815181106115c457fe5b60200260200101516020015195505b87156117c25760008b8152600760205260409020600101547f00000000000000000000000000000000000000000000000000000000000000006001600160a01b03908116911614156117bd5760008881526007602052604090206002015461163b9088612415565b60008c81526007602052604090206002015490955085106117365760008b81526007602052604090206002015494506116748588612466565b6000898152600760205260409020600201549094506116939085610de1565b60008981526007602052604080822060029081019384558e835290822001819055899052546116dd576000888152600760205260409020600101805460ff60a81b19169055611709565b6000888152600760205260409020600101805460ff60a81b1916600160a81b1790556117098789611004565b60008b8152600760205260409020600101805460ff60a81b191690556117318b89878761249c565b6117bd565b84156117bd576117468588612466565b60008c8152600760205260409020600201549094506117659086610de1565b60008c8152600760205260408082206002808201949094558b83529082209283018290556001928301805460ff60a81b19908116909155918e9052919091018054909116600160a81b1790556117bd8b89878761249c565b6119a7565b85156119a75760008b8152600760205260409020600101547f00000000000000000000000000000000000000000000000000000000000000006001600160a01b03908116911614156119a75760008681526007602052604090206002015461182a9088612466565b60008c81526007602052604090206002015490945084106119205760008b81526007602052604090206002015493506118638488612415565b6000878152600760205260409020600201549095506118829086610de1565b60008781526007602052604080822060029081019384558e835290822001819055879052546118cc576000868152600760205260409020600101805460ff60a81b191690556118f8565b6000868152600760205260409020600101805460ff60a81b1916600160a81b1790556118f88787610def565b60008b8152600760205260409020600101805460ff60a81b191690556117bd8b87878761249c565b83156119a7576119308488612415565b60008c81526007602052604090206002015490955061194f9085610de1565b60008c8152600760205260408082206002808201949094558983529082209283018290556001928301805460ff60a81b19908116909155918e9052919091018054909116600160a81b1790556119a78b87878761249c565b60019092019161124b565b6000808c815260076020526040902060010154600160a81b900460ff1660048111156119da57fe5b1415611a3d5760008b8152600760205260408120600101547f00000000000000000000000000000000000000000000000000000000000000006001600160a01b03908116911614611a2c576001611a2f565b60005b9050611a3b8c82611a9c565b505b50989998505050505050505050565b600080546001600160a01b038381166001600160a01b0319831681178455604051919092169283917f8be0079c531659141344cd1fd0a4f28419497f9722a3daafe3b4186f6b6457e09190a35050565b8015611b4f57600082815260026020526040902054611ac357611abd61274a565b50611b4a565b600180546000198101908110611ad557fe5b90600052602060002090600202016001600260008581526020019081526020016000205481548110611b0357fe5b60009182526020909120825460029092020190815560019182015490820155805480611b2b57fe5b6000828152602081206002600019909301928302018181556001015590555b610d24565b600082815260046020526040902054611b7057611b6a612886565b50610d24565b60038054611b7f9060016129bc565b81548110611b8957fe5b90600052602060002090600202016003600460008581526020019081526020016000205481548110611bb757fe5b6000918252602090912082546002909202019081556001918201549101556003805480611be057fe5b6000828152602081206002600019909301928302018181556001015590555050565b610d13816210905360ea1b6129d2565b60015460001901611c24826002612a33565b1015610d13576000611c37826002612a33565b9050600060018281548110611c4857fe5b6000918252602082206002909102015491506001611c668482610dc8565b81548110611c7057fe5b906000526020600020906002020160000154905080821015611c9a57611c97836001610dc8565b92505b60018381548110611ca757fe5b90600052602060002090600202016000015460018581548110611cc657fe5b9060005260206000209060020201600001541115611ce657505050610d13565b611cee612b3b565b60018581548110611cfb57fe5b906000526020600020906002020160405180604001604052908160008201548152602001600182015481525050905060018481548110611d3757fe5b906000526020600020906002020160018681548110611d5257fe5b90600052602060002090600202016000820154816000015560018201548160010155905050846002600060018781548110611d8957fe5b9060005260206000209060020201600101548152602001908152602001600020819055508060018581548110611dbb57fe5b6000918252602080832084516002938402909101908155938101516001909401939093559282015181529190526040902083905550909150611c129050565b60035460001901611e0c826002612a33565b1015610d13576000611e1f826002612a33565b9050600060038281548110611e3057fe5b6000918252602082206002909102015491506003611e4f846001610dc8565b81548110611e5957fe5b906000526020600020906002020160000154905080821115611e8357611e80836001610dc8565b92505b60038381548110611e9057fe5b90600052602060002090600202016000015460038581548110611eaf57fe5b9060005260206000209060020201600001541015611ecf57505050610d13565b611ed7612b3b565b60038581548110611ee457fe5b906000526020600020906002020160405180604001604052908160008201548152602001600182015481525050905060038481548110611f2057fe5b906000526020600020906002020160038681548110611f3b57fe5b90600052602060002090600202016000820154816000015560018201548160010155905050846004600060038781548110611f7257fe5b9060005260206000209060020201600101548152602001908152602001600020819055508060038581548110611fa457fe5b60009182526020808320845160029093020191825592830151600190910155918101518252600490526040902083905550909150611dfa9050565b6000611fee8484111583610d16565b5050900390565b60008161200b576120068484612a4d565b612015565b6120158484612a6d565b949350505050565b6000828152600760205260408120600101546060908290819083907f00000000000000000000000000000000000000000000000000000000000000006001600160a01b039081169116146120c45760035467ffffffffffffffff8111801561208457600080fd5b506040519080825280602002602001820160405280156120be57816020015b6120ab612b3b565b8152602001906001900390816120a35790505b50612119565b60015467ffffffffffffffff811180156120dd57600080fd5b5060405190808252806020026020018201604052801561211757816020015b612104612b3b565b8152602001906001900390816120fc5790505b505b600088815260076020526040812060010154919250907f00000000000000000000000000000000000000000000000000000000000000006001600160a01b03908116911614156122b0575b600154156122ab576000612176612aa0565b905080158015612184575087155b156121a8576006541561219d57506006549650866121a3565b506122ab565b6121bd565b801580156121b557508715155b156121bd5750865b878110156121cb57506122ab565b6121d361274a565b8383815181106121df57fe5b60200260200101819052506000808484815181106121f957fe5b602002602001015160000151116122105781612229565b83838151811061221c57fe5b6020026020010151600001515b90506122748561226f836007600089898151811061224357fe5b60200260200101516020015181526020019081526020016000206002015461241590919063ffffffff16565b610dc8565b60008b81526007602052604090206002015490955085106122a1575092955090935085925061240e915050565b5050600101612164565b612404565b6000888152600760205260409020600101547f00000000000000000000000000000000000000000000000000000000000000006001600160a01b0390811691161415612404575b6003541580159061231757508661230c612ac7565b111580612317575086155b15612404576000612326612ac7565b905080158015612334575087155b15612358576006541561234d5750600654965086612353565b50612404565b61236d565b8015801561236557508715155b1561236d5750865b612375612886565b83838151811061238157fe5b60200260200101819052506123d08461226f600760008787815181106123a357fe5b6020026020010151602001518152602001908152602001600020600201548461246690919063ffffffff16565b60008a81526007602052604090206002015490945084106123fb5750919450925084915061240e9050565b506001016122f7565b5090935091508390505b9250925092565b60006124248215156004610d16565b82612431575060006106fe565b670de0b6b3a7640000838102906124549085838161244b57fe5b04146005610d16565b82818161245d57fe5b049150506106fe565b600082820261248a84158061248357508385838161248057fe5b04145b6003610d16565b670de0b6b3a764000090049392505050565b60058054600101908190556124af612b06565b6040518060c001604052806007600089815260200190815260200160002060000160009054906101000a90046001600160a01b03166001600160a01b031681526020018781526020018681526020018381526020018581526020018481525090508060086000600760008a815260200190815260200160002060000160009054906101000a90046001600160a01b03166001600160a01b03166001600160a01b03168152602001908152602001600020600084815260200190815260200160002060008201518160000160006101000a8154816001600160a01b0302191690836001600160a01b031602179055506020820151816001015560408201518160020155606082015181600301556080820151816004015560a0820151816005015590505080600860006007600089815260200190815260200160002060000160009054906101000a90046001600160a01b03166001600160a01b03166001600160a01b03168152602001908152602001600020600084815260200190815260200160002060008201518160000160006101000a8154816001600160a01b0302191690836001600160a01b031602179055506020820151816001015560408201518160020155606082015181600301556080820151816004015560a082015181600501559050506007600086815260200190815260200160002060000160009054906101000a90046001600160a01b03166001600160a01b03166007600088815260200190815260200160002060000160009054906101000a90046001600160a01b03166001600160a01b03167f5e3a1ca940fad878b1f3c880bf445af7783b270f53fd4259bee42d061b2dfe16836060015160405161272d9190612e7d565b60405180910390a361273f8385612415565b600655505050505050565b612752612b3b565b6001546127715760405162461bcd60e51b81526004016102f790612e86565b612779612b3b565b600160008154811061278757fe5b9060005260206000209060020201604051806040016040529081600082015481526020016001820154815250509050600180808054905003815481106127c957fe5b906000526020600020906002020160016000815481106127e557fe5b90600052602060002090600202016000820154816000015560018201548160010155905050600060026000600160008154811061281e57fe5b906000526020600020906002020160010154815260200190815260200160002081905550600180548061284d57fe5b60008281526020812060026000199093019283020181815560019081018290559190925554156128805761288081611c12565b50905090565b61288e612b3b565b6003546128ad5760405162461bcd60e51b81526004016102f790612e86565b6128b5612b3b565b60036000815481106128c357fe5b906000526020600020906002020160405180604001604052908160008201548152602001600182015481525050905060036001600380549050038154811061290757fe5b9060005260206000209060020201600360008154811061292357fe5b90600052602060002090600202016000820154816000015560018201548160010155905050600060046000600360008154811061295c57fe5b906000526020600020906002020160010154815260200190815260200160002081905550600380548061298b57fe5b6000828152602081206002600019909301928302018181556001018190559155600354156128805761288081611dfa565b60006129cc838311156001610d16565b50900390565b62461bcd60e51b600090815260206004526007602452600a808404818106603090810160081b958390069590950190829004918206850160101b01602363ffffff0060e086901c160160181b0190930160c81b60445260e882901c90606490fd5b6000828202610dda84158061248357508385838161248057fe5b6000612a5c8215156004610d16565b818381612a6557fe5b049392505050565b6000612a7c8215156004610d16565b82612a89575060006106fe565b816001840381612a9557fe5b0460010190506106fe565b60006001600081548110612ab057fe5b906000526020600020906002020160000154905090565b60006003600081548110612ab057fe5b6040805160a0810182526000808252602082018190529091820190815260200160008152602001600081525090565b6040805160c081018252600080825260208201819052918101829052606081018290526080810182905260a081019190915290565b604080518082019091526000808252602082015290565b80356106fe816130e0565b600082601f830112612b6d578081fd5b813567ffffffffffffffff811115612b83578182fd5b612b96601f8201601f19166020016130b9565b9150808252836020828501011115612bad57600080fd5b8060208401602084013760009082016020015292915050565b8035600281106106fe57600080fd5b6000610120808385031215612be8578182fd5b612bf1816130b9565b915050612bfe8383612bc6565b8152612c0d8360208401612b52565b6020820152612c1f8360408401612b52565b6040820152606082013560608201526080820135608082015260a082013560a0820152612c4f8360c08401612b52565b60c0820152612c618360e08401612b52565b60e08201526101008083013567ffffffffffffffff811115612c8257600080fd5b612c8e85828601612b5d565b82840152505092915050565b600060208284031215612cab578081fd5b8135610dda816130e0565b60008060408385031215612cc8578081fd5b8235612cd3816130e0565b946020939093013593505050565b600060208284031215612cf2578081fd5b5035919050565b600060208284031215612d0a578081fd5b5051919050565b60008060408385031215612d23578182fd5b823591506020830135612d35816130e0565b809150509250929050565b600080600060608486031215612d54578081fd5b505081359360208301359350604090920135919050565b600080600060608486031215612d7f578283fd5b8335925060208401359150604084013567ffffffffffffffff811115612da3578182fd5b612daf86828701612bd5565b9150509250925092565b600080600060608486031215612d54578283fd5b6000808284036060811215612de0578283fd5b833567ffffffffffffffff811115612df6578384fd5b612e0286828701612bd5565b9350506040601f1982011215612e16578182fd5b50612e2160406130b9565b602084013560038110612e32578283fd5b81526040939093013560208401525092909150565b60609290921b6bffffffffffffffffffffffff19168252601482015260340190565b6001600160a01b0391909116815260200190565b90815260200190565b6020808252601290820152714f72646572626f6f6b20697320656d70747960701b604082015260600190565b602080825260129082015271496e76616c6964206f72646572207479706560701b604082015260600190565b60208082526015908201527454726164656420616d6f756e74206973207a65726f60581b604082015260600190565b6020808252601d908201527f556e617574686f72697a65642061636365737320746f206f7264657273000000604082015260600190565b602080825260139082015272556e617574686f72697a65642061636365737360681b604082015260600190565b6020808252601b908201527f53656e646572206973206e6f74206f726465722063726561746f720000000000604082015260600190565b60208082526017908201527f4f7264657220697320616c72656164792066696c6c6564000000000000000000604082015260600190565b6020808252601d908201527f556e617574686f72697a65642061636365737320746f20747261646573000000604082015260600190565b81516001600160a01b03908116825260208084015190911690820152604082015160a08201906003811061304657fe5b604083015260608301516005811061305a57fe5b806060840152506080830151608083015292915050565b81516001600160a01b031681526020808301519082015260408083015190820152606080830151908201526080808301519082015260a0918201519181019190915260c00190565b60405181810167ffffffffffffffff811182821017156130d857600080fd5b604052919050565b6001600160a01b0381168114610d1357600080fdfea2646970667358221220918c45746cbc9f3ca25ae6412b4699391656f2a4975d4ec95a92a1e85a4d593a64736f6c63430007010033",
  "linkReferences": {},
  "deployedLinkReferences": {}
}