{
  "_format": "hh-sol-artifact-1",
  "contractName": "SecondaryIssuePool",
  "sourceName": "contracts/SecondaryIssuePool.sol",
  "abi": [
    {
      "inputs": [
        {
          "internalType": "contract IVault",
          "name": "vault",
          "type": "address"
        },
        {
          "internalType": "string",
          "name": "name",
          "type": "string"
        },
        {
          "internalType": "string",
          "name": "symbol",
          "type": "string"
        },
        {
          "internalType": "address",
          "name": "security",
          "type": "address"
        },
        {
          "internalType": "address",
          "name": "currency",
          "type": "address"
        },
        {
          "internalType": "uint256",
          "name": "minOrderSize",
          "type": "uint256"
        },
        {
          "internalType": "uint256",
          "name": "tradeFeePercentage",
          "type": "uint256"
        },
        {
          "internalType": "uint256",
          "name": "pauseWindowDuration",
          "type": "uint256"
        },
        {
          "internalType": "uint256",
          "name": "bufferPeriodDuration",
          "type": "uint256"
        },
        {
          "internalType": "address",
          "name": "owner",
          "type": "address"
        }
      ],
      "stateMutability": "nonpayable",
      "type": "constructor"
    },
    {
      "anonymous": false,
      "inputs": [
        {
          "indexed": true,
          "internalType": "address",
          "name": "owner",
          "type": "address"
        },
        {
          "indexed": true,
          "internalType": "address",
          "name": "spender",
          "type": "address"
        },
        {
          "indexed": false,
          "internalType": "uint256",
          "name": "value",
          "type": "uint256"
        }
      ],
      "name": "Approval",
      "type": "event"
    },
    {
      "anonymous": false,
      "inputs": [
        {
          "indexed": true,
          "internalType": "address",
          "name": "security",
          "type": "address"
        },
        {
          "indexed": false,
          "internalType": "uint256",
          "name": "minOrderSize",
          "type": "uint256"
        },
        {
          "indexed": false,
          "internalType": "address",
          "name": "currency",
          "type": "address"
        },
        {
          "indexed": false,
          "internalType": "address",
          "name": "orderBook",
          "type": "address"
        },
        {
          "indexed": false,
          "internalType": "address",
          "name": "issueManager",
          "type": "address"
        }
      ],
      "name": "Offer",
      "type": "event"
    },
    {
      "anonymous": false,
      "inputs": [
        {
          "indexed": false,
          "internalType": "address",
          "name": "creator",
          "type": "address"
        },
        {
          "indexed": false,
          "internalType": "address",
          "name": "tokenIn",
          "type": "address"
        },
        {
          "indexed": false,
          "internalType": "address",
          "name": "tokenOut",
          "type": "address"
        },
        {
          "indexed": false,
          "internalType": "uint256",
          "name": "amountOffered",
          "type": "uint256"
        },
        {
          "indexed": false,
          "internalType": "uint256",
          "name": "priceOffered",
          "type": "uint256"
        },
        {
          "indexed": false,
          "internalType": "uint256",
          "name": "timestamp",
          "type": "uint256"
        },
        {
          "indexed": false,
          "internalType": "bytes32",
          "name": "orderRef",
          "type": "bytes32"
        }
      ],
      "name": "OrderBook",
      "type": "event"
    },
    {
      "anonymous": false,
      "inputs": [
        {
          "indexed": false,
          "internalType": "bool",
          "name": "paused",
          "type": "bool"
        }
      ],
      "name": "PausedStateChanged",
      "type": "event"
    },
    {
      "anonymous": false,
      "inputs": [
        {
          "indexed": false,
          "internalType": "bool",
          "name": "enabled",
          "type": "bool"
        }
      ],
      "name": "RecoveryModeStateChanged",
      "type": "event"
    },
    {
      "anonymous": false,
      "inputs": [
        {
          "indexed": false,
          "internalType": "uint256",
          "name": "swapFeePercentage",
          "type": "uint256"
        }
      ],
      "name": "SwapFeePercentageChanged",
      "type": "event"
    },
    {
      "anonymous": false,
      "inputs": [
        {
          "indexed": true,
          "internalType": "address",
          "name": "security",
          "type": "address"
        },
        {
          "indexed": false,
          "internalType": "bytes32",
          "name": "orderRef",
          "type": "bytes32"
        },
        {
          "indexed": false,
          "internalType": "address",
          "name": "party",
          "type": "address"
        },
        {
          "indexed": false,
          "internalType": "address",
          "name": "counterparty",
          "type": "address"
        },
        {
          "indexed": false,
          "internalType": "bytes32",
          "name": "orderType",
          "type": "bytes32"
        },
        {
          "indexed": false,
          "internalType": "uint256",
          "name": "price",
          "type": "uint256"
        },
        {
          "indexed": false,
          "internalType": "address",
          "name": "currency",
          "type": "address"
        },
        {
          "indexed": false,
          "internalType": "uint256",
          "name": "amount",
          "type": "uint256"
        },
        {
          "indexed": false,
          "internalType": "uint256",
          "name": "executionDate",
          "type": "uint256"
        }
      ],
      "name": "TradeReport",
      "type": "event"
    },
    {
      "anonymous": false,
      "inputs": [
        {
          "indexed": true,
          "internalType": "address",
          "name": "from",
          "type": "address"
        },
        {
          "indexed": true,
          "internalType": "address",
          "name": "to",
          "type": "address"
        },
        {
          "indexed": false,
          "internalType": "uint256",
          "name": "value",
          "type": "uint256"
        }
      ],
      "name": "Transfer",
      "type": "event"
    },
    {
      "inputs": [],
      "name": "DOMAIN_SEPARATOR",
      "outputs": [
        {
          "internalType": "bytes32",
          "name": "",
          "type": "bytes32"
        }
      ],
      "stateMutability": "view",
      "type": "function"
    },
    {
      "inputs": [],
      "name": "_orderbook",
      "outputs": [
        {
          "internalType": "contract Orderbook",
          "name": "",
          "type": "address"
        }
      ],
      "stateMutability": "view",
      "type": "function"
    },
    {
      "inputs": [
        {
          "internalType": "address",
          "name": "owner",
          "type": "address"
        },
        {
          "internalType": "address",
          "name": "spender",
          "type": "address"
        }
      ],
      "name": "allowance",
      "outputs": [
        {
          "internalType": "uint256",
          "name": "",
          "type": "uint256"
        }
      ],
      "stateMutability": "view",
      "type": "function"
    },
    {
      "inputs": [
        {
          "internalType": "address",
          "name": "spender",
          "type": "address"
        },
        {
          "internalType": "uint256",
          "name": "amount",
          "type": "uint256"
        }
      ],
      "name": "approve",
      "outputs": [
        {
          "internalType": "bool",
          "name": "",
          "type": "bool"
        }
      ],
      "stateMutability": "nonpayable",
      "type": "function"
    },
    {
      "inputs": [
        {
          "internalType": "address",
          "name": "account",
          "type": "address"
        }
      ],
      "name": "balanceOf",
      "outputs": [
        {
          "internalType": "uint256",
          "name": "",
          "type": "uint256"
        }
      ],
      "stateMutability": "view",
      "type": "function"
    },
    {
      "inputs": [],
      "name": "decimals",
      "outputs": [
        {
          "internalType": "uint8",
          "name": "",
          "type": "uint8"
        }
      ],
      "stateMutability": "view",
      "type": "function"
    },
    {
      "inputs": [
        {
          "internalType": "address",
          "name": "spender",
          "type": "address"
        },
        {
          "internalType": "uint256",
          "name": "amount",
          "type": "uint256"
        }
      ],
      "name": "decreaseAllowance",
      "outputs": [
        {
          "internalType": "bool",
          "name": "",
          "type": "bool"
        }
      ],
      "stateMutability": "nonpayable",
      "type": "function"
    },
    {
      "inputs": [],
      "name": "disableRecoveryMode",
      "outputs": [],
      "stateMutability": "nonpayable",
      "type": "function"
    },
    {
      "inputs": [],
      "name": "enableRecoveryMode",
      "outputs": [],
      "stateMutability": "nonpayable",
      "type": "function"
    },
    {
      "inputs": [
        {
          "internalType": "bytes4",
          "name": "selector",
          "type": "bytes4"
        }
      ],
      "name": "getActionId",
      "outputs": [
        {
          "internalType": "bytes32",
          "name": "",
          "type": "bytes32"
        }
      ],
      "stateMutability": "view",
      "type": "function"
    },
    {
      "inputs": [],
      "name": "getAuthorizer",
      "outputs": [
        {
          "internalType": "contract IAuthorizer",
          "name": "",
          "type": "address"
        }
      ],
      "stateMutability": "view",
      "type": "function"
    },
    {
      "inputs": [],
      "name": "getCurrency",
      "outputs": [
        {
          "internalType": "address",
          "name": "",
          "type": "address"
        }
      ],
      "stateMutability": "view",
      "type": "function"
    },
    {
      "inputs": [],
      "name": "getDomainSeparator",
      "outputs": [
        {
          "internalType": "bytes32",
          "name": "",
          "type": "bytes32"
        }
      ],
      "stateMutability": "view",
      "type": "function"
    },
    {
      "inputs": [],
      "name": "getMinOrderSize",
      "outputs": [
        {
          "internalType": "uint256",
          "name": "",
          "type": "uint256"
        }
      ],
      "stateMutability": "view",
      "type": "function"
    },
    {
      "inputs": [
        {
          "internalType": "address",
          "name": "account",
          "type": "address"
        }
      ],
      "name": "getNextNonce",
      "outputs": [
        {
          "internalType": "uint256",
          "name": "",
          "type": "uint256"
        }
      ],
      "stateMutability": "view",
      "type": "function"
    },
    {
      "inputs": [],
      "name": "getOwner",
      "outputs": [
        {
          "internalType": "address",
          "name": "",
          "type": "address"
        }
      ],
      "stateMutability": "view",
      "type": "function"
    },
    {
      "inputs": [],
      "name": "getPausedState",
      "outputs": [
        {
          "internalType": "bool",
          "name": "paused",
          "type": "bool"
        },
        {
          "internalType": "uint256",
          "name": "pauseWindowEndTime",
          "type": "uint256"
        },
        {
          "internalType": "uint256",
          "name": "bufferPeriodEndTime",
          "type": "uint256"
        }
      ],
      "stateMutability": "view",
      "type": "function"
    },
    {
      "inputs": [],
      "name": "getPoolId",
      "outputs": [
        {
          "internalType": "bytes32",
          "name": "",
          "type": "bytes32"
        }
      ],
      "stateMutability": "view",
      "type": "function"
    },
    {
      "inputs": [],
      "name": "getProtocolFeesCollector",
      "outputs": [
        {
          "internalType": "contract IProtocolFeesCollector",
          "name": "",
          "type": "address"
        }
      ],
      "stateMutability": "view",
      "type": "function"
    },
    {
      "inputs": [],
      "name": "getScalingFactors",
      "outputs": [
        {
          "internalType": "uint256[]",
          "name": "",
          "type": "uint256[]"
        }
      ],
      "stateMutability": "view",
      "type": "function"
    },
    {
      "inputs": [],
      "name": "getSecurity",
      "outputs": [
        {
          "internalType": "address",
          "name": "",
          "type": "address"
        }
      ],
      "stateMutability": "view",
      "type": "function"
    },
    {
      "inputs": [],
      "name": "getSwapFeePercentage",
      "outputs": [
        {
          "internalType": "uint256",
          "name": "",
          "type": "uint256"
        }
      ],
      "stateMutability": "view",
      "type": "function"
    },
    {
      "inputs": [],
      "name": "getVault",
      "outputs": [
        {
          "internalType": "contract IVault",
          "name": "",
          "type": "address"
        }
      ],
      "stateMutability": "view",
      "type": "function"
    },
    {
      "inputs": [],
      "name": "inRecoveryMode",
      "outputs": [
        {
          "internalType": "bool",
          "name": "",
          "type": "bool"
        }
      ],
      "stateMutability": "view",
      "type": "function"
    },
    {
      "inputs": [
        {
          "internalType": "address",
          "name": "spender",
          "type": "address"
        },
        {
          "internalType": "uint256",
          "name": "addedValue",
          "type": "uint256"
        }
      ],
      "name": "increaseAllowance",
      "outputs": [
        {
          "internalType": "bool",
          "name": "",
          "type": "bool"
        }
      ],
      "stateMutability": "nonpayable",
      "type": "function"
    },
    {
      "inputs": [],
      "name": "name",
      "outputs": [
        {
          "internalType": "string",
          "name": "",
          "type": "string"
        }
      ],
      "stateMutability": "view",
      "type": "function"
    },
    {
      "inputs": [
        {
          "internalType": "address",
          "name": "owner",
          "type": "address"
        }
      ],
      "name": "nonces",
      "outputs": [
        {
          "internalType": "uint256",
          "name": "",
          "type": "uint256"
        }
      ],
      "stateMutability": "view",
      "type": "function"
    },
    {
      "inputs": [
        {
          "internalType": "bytes32",
          "name": "poolId",
          "type": "bytes32"
        },
        {
          "internalType": "address",
          "name": "sender",
          "type": "address"
        },
        {
          "internalType": "address",
          "name": "recipient",
          "type": "address"
        },
        {
          "internalType": "uint256[]",
          "name": "balances",
          "type": "uint256[]"
        },
        {
          "internalType": "uint256",
          "name": "lastChangeBlock",
          "type": "uint256"
        },
        {
          "internalType": "uint256",
          "name": "protocolSwapFeePercentage",
          "type": "uint256"
        },
        {
          "internalType": "bytes",
          "name": "userData",
          "type": "bytes"
        }
      ],
      "name": "onExitPool",
      "outputs": [
        {
          "internalType": "uint256[]",
          "name": "",
          "type": "uint256[]"
        },
        {
          "internalType": "uint256[]",
          "name": "",
          "type": "uint256[]"
        }
      ],
      "stateMutability": "nonpayable",
      "type": "function"
    },
    {
      "inputs": [
        {
          "internalType": "bytes32",
          "name": "poolId",
          "type": "bytes32"
        },
        {
          "internalType": "address",
          "name": "sender",
          "type": "address"
        },
        {
          "internalType": "address",
          "name": "recipient",
          "type": "address"
        },
        {
          "internalType": "uint256[]",
          "name": "balances",
          "type": "uint256[]"
        },
        {
          "internalType": "uint256",
          "name": "lastChangeBlock",
          "type": "uint256"
        },
        {
          "internalType": "uint256",
          "name": "protocolSwapFeePercentage",
          "type": "uint256"
        },
        {
          "internalType": "bytes",
          "name": "userData",
          "type": "bytes"
        }
      ],
      "name": "onJoinPool",
      "outputs": [
        {
          "internalType": "uint256[]",
          "name": "",
          "type": "uint256[]"
        },
        {
          "internalType": "uint256[]",
          "name": "",
          "type": "uint256[]"
        }
      ],
      "stateMutability": "nonpayable",
      "type": "function"
    },
    {
      "inputs": [
        {
          "components": [
            {
              "internalType": "enum IVault.SwapKind",
              "name": "kind",
              "type": "uint8"
            },
            {
              "internalType": "contract IERC20",
              "name": "tokenIn",
              "type": "address"
            },
            {
              "internalType": "contract IERC20",
              "name": "tokenOut",
              "type": "address"
            },
            {
              "internalType": "uint256",
              "name": "amount",
              "type": "uint256"
            },
            {
              "internalType": "bytes32",
              "name": "poolId",
              "type": "bytes32"
            },
            {
              "internalType": "uint256",
              "name": "lastChangeBlock",
              "type": "uint256"
            },
            {
              "internalType": "address",
              "name": "from",
              "type": "address"
            },
            {
              "internalType": "address",
              "name": "to",
              "type": "address"
            },
            {
              "internalType": "bytes",
              "name": "userData",
              "type": "bytes"
            }
          ],
          "internalType": "struct IPoolSwapStructs.SwapRequest",
          "name": "request",
          "type": "tuple"
        },
        {
          "internalType": "uint256[]",
          "name": "balances",
          "type": "uint256[]"
        },
        {
          "internalType": "uint256",
          "name": "indexIn",
          "type": "uint256"
        },
        {
          "internalType": "uint256",
          "name": "indexOut",
          "type": "uint256"
        }
      ],
      "name": "onSwap",
      "outputs": [
        {
          "internalType": "uint256",
          "name": "",
          "type": "uint256"
        }
      ],
      "stateMutability": "nonpayable",
      "type": "function"
    },
    {
      "inputs": [],
      "name": "pause",
      "outputs": [],
      "stateMutability": "nonpayable",
      "type": "function"
    },
    {
      "inputs": [
        {
          "internalType": "address",
          "name": "owner",
          "type": "address"
        },
        {
          "internalType": "address",
          "name": "spender",
          "type": "address"
        },
        {
          "internalType": "uint256",
          "name": "value",
          "type": "uint256"
        },
        {
          "internalType": "uint256",
          "name": "deadline",
          "type": "uint256"
        },
        {
          "internalType": "uint8",
          "name": "v",
          "type": "uint8"
        },
        {
          "internalType": "bytes32",
          "name": "r",
          "type": "bytes32"
        },
        {
          "internalType": "bytes32",
          "name": "s",
          "type": "bytes32"
        }
      ],
      "name": "permit",
      "outputs": [],
      "stateMutability": "nonpayable",
      "type": "function"
    },
    {
      "inputs": [
        {
          "internalType": "bytes32",
          "name": "poolId",
          "type": "bytes32"
        },
        {
          "internalType": "address",
          "name": "sender",
          "type": "address"
        },
        {
          "internalType": "address",
          "name": "recipient",
          "type": "address"
        },
        {
          "internalType": "uint256[]",
          "name": "balances",
          "type": "uint256[]"
        },
        {
          "internalType": "uint256",
          "name": "lastChangeBlock",
          "type": "uint256"
        },
        {
          "internalType": "uint256",
          "name": "protocolSwapFeePercentage",
          "type": "uint256"
        },
        {
          "internalType": "bytes",
          "name": "userData",
          "type": "bytes"
        }
      ],
      "name": "queryExit",
      "outputs": [
        {
          "internalType": "uint256",
          "name": "bptIn",
          "type": "uint256"
        },
        {
          "internalType": "uint256[]",
          "name": "amountsOut",
          "type": "uint256[]"
        }
      ],
      "stateMutability": "view",
      "type": "function"
    },
    {
      "inputs": [
        {
          "internalType": "bytes32",
          "name": "poolId",
          "type": "bytes32"
        },
        {
          "internalType": "address",
          "name": "sender",
          "type": "address"
        },
        {
          "internalType": "address",
          "name": "recipient",
          "type": "address"
        },
        {
          "internalType": "uint256[]",
          "name": "balances",
          "type": "uint256[]"
        },
        {
          "internalType": "uint256",
          "name": "lastChangeBlock",
          "type": "uint256"
        },
        {
          "internalType": "uint256",
          "name": "protocolSwapFeePercentage",
          "type": "uint256"
        },
        {
          "internalType": "bytes",
          "name": "userData",
          "type": "bytes"
        }
      ],
      "name": "queryJoin",
      "outputs": [
        {
          "internalType": "uint256",
          "name": "bptOut",
          "type": "uint256"
        },
        {
          "internalType": "uint256[]",
          "name": "amountsIn",
          "type": "uint256[]"
        }
      ],
      "stateMutability": "view",
      "type": "function"
    },
    {
      "inputs": [
        {
          "internalType": "contract IERC20",
          "name": "token",
          "type": "address"
        },
        {
          "internalType": "bytes",
          "name": "poolConfig",
          "type": "bytes"
        }
      ],
      "name": "setAssetManagerPoolConfig",
      "outputs": [],
      "stateMutability": "nonpayable",
      "type": "function"
    },
    {
      "inputs": [
        {
          "internalType": "uint256",
          "name": "swapFeePercentage",
          "type": "uint256"
        }
      ],
      "name": "setSwapFeePercentage",
      "outputs": [],
      "stateMutability": "nonpayable",
      "type": "function"
    },
    {
      "inputs": [],
      "name": "symbol",
      "outputs": [
        {
          "internalType": "string",
          "name": "",
          "type": "string"
        }
      ],
      "stateMutability": "view",
      "type": "function"
    },
    {
      "inputs": [],
      "name": "totalSupply",
      "outputs": [
        {
          "internalType": "uint256",
          "name": "",
          "type": "uint256"
        }
      ],
      "stateMutability": "view",
      "type": "function"
    },
    {
      "inputs": [
        {
          "internalType": "address",
          "name": "recipient",
          "type": "address"
        },
        {
          "internalType": "uint256",
          "name": "amount",
          "type": "uint256"
        }
      ],
      "name": "transfer",
      "outputs": [
        {
          "internalType": "bool",
          "name": "",
          "type": "bool"
        }
      ],
      "stateMutability": "nonpayable",
      "type": "function"
    },
    {
      "inputs": [
        {
          "internalType": "address",
          "name": "sender",
          "type": "address"
        },
        {
          "internalType": "address",
          "name": "recipient",
          "type": "address"
        },
        {
          "internalType": "uint256",
          "name": "amount",
          "type": "uint256"
        }
      ],
      "name": "transferFrom",
      "outputs": [
        {
          "internalType": "bool",
          "name": "",
          "type": "bool"
        }
      ],
      "stateMutability": "nonpayable",
      "type": "function"
    },
    {
      "inputs": [],
      "name": "unpause",
      "outputs": [],
      "stateMutability": "nonpayable",
      "type": "function"
    }
  ],
  "bytecode": "0x6102e06040523480156200001257600080fd5b5060405162008abf38038062008abf833981016040819052620000359162000b88565b8960008a8a620000478b8b30620004d1565b6040805160038082526080820190925290602082016060803683370190505089898989828289898d85336001600160a01b031660001b8480604051806040016040528060018152602001603160f81b81525087878160039080519060200190620000b3929190620009f2565b508051620000c9906004906020840190620009f2565b50506005805460ff19166012179055508151602092830120608052805191012060a052507f8b73c3c69bb8fe3d512ecc4cf759cc79239f7b179b0ffacaa9a75d522b39400f60c05260e0526001600160601b0319606091821b81166101005291901b1661012052506200014790506276a700831115610194620005a0565b6200015b62278d00821115610195620005a0565b42909101610140819052016101605285516200017d906002111560c8620005a0565b620001976200018b620005b5565b8751111560c9620005a0565b620001ad86620005ba60201b620021841760201c565b620001b884620005c6565b6040516309b2760f60e01b81526000906001600160a01b038c16906309b2760f90620001e9908d9060040162000d51565b602060405180830381600087803b1580156200020457600080fd5b505af115801562000219573d6000803e3d6000fd5b505050506040513d601f19601f820116820180604052508101906200023f919062000b50565b604051633354e3e960e11b81529091506001600160a01b038c16906366a9c7d290620002749084908b908b9060040162000cb5565b600060405180830381600087803b1580156200028f57600080fd5b505af1158015620002a4573d6000803e3d6000fd5b505050508061018081815250508a6001600160a01b031663d2946c2b6040518163ffffffff1660e01b815260040160206040518083038186803b158015620002eb57600080fd5b505afa15801562000300573d6000803e3d6000fd5b505050506040513d601f19601f8201168201806040525081019062000326919062000b69565b6001600160a01b03166101a0816001600160a01b031660601b815250505050505050505050505050866001600160a01b03166101c0816001600160a01b031660601b81525050856001600160a01b03166101e0816001600160a01b031660601b8152505089600a60006101000a8154816001600160a01b0302191690836001600160a01b031602179055506000806000620003c98a8a306200065a60201b60201c565b6102608190526102808390526102a082905291945092509050620003ed8a62000750565b61020052620003fc8962000750565b610220526102408890526001600160601b0319606085901b166102c05260405184908b908b9030906200042f9062000a77565b6200043e949392919062000c8a565b604051809103906000f0801580156200045b573d6000803e3d6000fd5b50600980546001600160a01b0319166001600160a01b0392831617908190556040518c8316927f32e7b5e5c88bb4ec1dca71e1e00fc2444e236858d09faa9ddbb9d8c710549ecb92620004b6928d928f9216908a9062000d6f565b60405180910390a25050505050505050505050505062000db8565b606060008080620004e48787876200065a565b60408051600380825260808201909252939650919450925060208201606080368337019050509350868484815181106200051a57fe5b60200260200101906001600160a01b031690816001600160a01b031681525050858483815181106200054857fe5b60200260200101906001600160a01b031690816001600160a01b031681525050848482815181106200057657fe5b60200260200101906001600160a01b031690816001600160a01b0316815250505050509392505050565b81620005b157620005b18162000824565b5050565b600390565b80620005b18162000839565b620005df620005d4620008c5565b82101560cb620005a0565b620005f8620005ed620008ce565b82111560ca620005a0565b6200061a8160c0603f600854620008da60201b6200218e17909392919060201c565b6008556040517fa9ba3ffe0b6c366b81232caab38605a0699ad5398d6cce76f91ee809e322dafc906200064f90839062000d66565b60405180910390a150565b6000806000846001600160a01b0316866001600160a01b03161015620006e357836001600160a01b0316856001600160a01b03161015620006a657506000915060019050600262000747565b836001600160a01b0316866001600160a01b03161015620006d257506000915060029050600162000747565b506001915060029050600062000747565b846001600160a01b0316846001600160a01b031610156200070f57506002915060019050600062000747565b856001600160a01b0316846001600160a01b031610156200073b57506002915060009050600162000747565b50600191506000905060025b93509350939050565b60006001600160a01b038216301415620007745750670de0b6b3a76400006200081f565b6000826001600160a01b031663313ce5676040518163ffffffff1660e01b815260040160206040518083038186803b158015620007b057600080fd5b505afa158015620007c5573d6000803e3d6000fd5b505050506040513d601f19601f82011682018060405250810190620007eb919062000c67565b60ff16905060006200080a601283620008ff60201b620021b11760201c565b905080600a0a670de0b6b3a764000002925050505b919050565b62000836816210905360ea1b6200091c565b50565b6002815110156200084a5762000836565b6000816000815181106200085a57fe5b602002602001015190506000600190505b8251811015620008c05760008382815181106200088457fe5b60200260200101519050620008b5816001600160a01b0316846001600160a01b0316106065620005a060201b60201c565b91506001016200086b565b505050565b64e8d4a5100090565b67016345785d8a000090565b6000620008e98484846200097d565b506001901b60001901811b1992909216911b1790565b600062000911838311156001620005a0565b508082035b92915050565b62461bcd60e51b600090815260206004526007602452600a808404818106603090810160081b958390069590950190829004918206850160101b01602363ffffff0060e086901c160160181b0190930160c81b60445260e882901c90606490fd5b6200098e61010083106064620005a0565b620009c760018210158015620009bf5750620009bb60ff8461010003620009d860201b620021c71760201c565b8211155b6064620005a0565b620008c083821c156101b4620005a0565b6000818310620009e95781620009eb565b825b9392505050565b828054600181600116156101000203166002900490600052602060002090601f016020900481019282601f1062000a3557805160ff191683800117855562000a65565b8280016001018555821562000a65579182015b8281111562000a6557825182559160200191906001019062000a48565b5062000a7392915062000a85565b5090565b6135a1806200551e83390190565b5b8082111562000a73576000815560010162000a86565b8051620009168162000da2565b600082601f83011262000aba578081fd5b81516001600160401b038082111562000ad1578283fd5b6040516020601f8401601f191682018101838111838210171562000af3578586fd5b8060405250819450838252868185880101111562000b1057600080fd5b600092505b8383101562000b34578583018101518284018201529182019162000b15565b8383111562000b465760008185840101525b5050505092915050565b60006020828403121562000b62578081fd5b5051919050565b60006020828403121562000b7b578081fd5b8151620009eb8162000da2565b6000806000806000806000806000806101408b8d03121562000ba8578586fd5b62000bb48c8c62000a9c565b60208c0151909a506001600160401b038082111562000bd1578788fd5b62000bdf8e838f0162000aa9565b9a5060408d015191508082111562000bf5578788fd5b5062000c048d828e0162000aa9565b98505062000c168c60608d0162000a9c565b965062000c278c60808d0162000a9c565b955060a08b0151945060c08b0151935060e08b015192506101008b0151915062000c568c6101208d0162000a9c565b90509295989b9194979a5092959850565b60006020828403121562000c79578081fd5b815160ff81168114620009eb578182fd5b6001600160a01b03948516815292841660208401529083166040830152909116606082015260800190565b60006060820185835260206060818501528186518084526080860191508288019350845b8181101562000d015762000cee855162000d96565b8352938301939183019160010162000cd9565b505084810360408601528551808252908201925081860190845b8181101562000d435762000d30835162000d96565b8552938301939183019160010162000d1b565b509298975050505050505050565b602081016003831062000d6057fe5b91905290565b90815260200190565b9384526001600160a01b039283166020850152908216604084015216606082015260800190565b6001600160a01b031690565b6001600160a01b03811681146200083657600080fd5b60805160a05160c05160e0516101005160601c6101205160601c6101405161016051610180516101a05160601c6101c05160601c6101e05160601c61020051610220516102405161026051610280516102a0516102c05160601c61460662000f18600039806110bb5280612da75250806122c75280612e135280612e6d525080612261525080611594528061179b52806117d85280611816528061231c5250806116895280611bad52508061105f52806122ef5280612e4652508061102b528061228952508061061c52806106b25280610aca5280610b755280610fe052806111c652806117265280611c4b52508061065b52806106f252806109175280610a275280610bf25280610c7a528061118752806116e75280611ae7525080611f5e525080611b3a52508061253252508061250e525080611e46525080611e22525080611dac525080612efe525080612f40525080612f1f52506146066000f3fe608060405234801561001057600080fd5b50600436106102d35760003560e01c806370a0823111610186578063a457c2d7116100e3578063d2946c2b11610097578063dd62ed3e11610071578063dd62ed3e14610547578063ed24911d1461055a578063fd19cac814610562576102d3565b8063d2946c2b14610519578063d505accf14610521578063d5c096c414610534576102d3565b8063aaabadc5116100c8578063aaabadc514610501578063b35056b814610509578063b7b814fc14610511576102d3565b8063a457c2d7146104db578063a9059cbb146104ee576102d3565b806387ec68171161013a5780638d928af81161011f5780638d928af8146104b857806390193b7c146104c057806395d89b41146104d3576102d3565b806387ec68171461049d578063893d20e8146104b0576102d3565b80637ecebe001161016b5780637ecebe001461046f5780638456cb5914610482578063851c1bb31461048a576102d3565b806370a082311461043b57806374f3b0091461044e576102d3565b806338e9922e1161023457806350dd6ed9116101e857806355c67628116101cd57806355c676281461040a5780636028bfd4146104125780636945c1fd14610433576102d3565b806350dd6ed9146103ef57806354a844ba14610402576102d3565b8063395093511161021957806339509351146103cc5780633f4ba83a146103df5780634d6d0fd0146103e7576102d3565b806338e9922e146103af57806338fff2d0146103c4576102d3565b80631dd746ea1161028b5780632541897f116102705780632541897f1461037d578063313ce567146103925780633644e515146103a7576102d3565b80631dd746ea1461035557806323b872dd1461036a576102d3565b8063095ea7b3116102bc578063095ea7b31461031657806318160ddd146103365780631c0de0511461033e576102d3565b806301ec954a146102d857806306fdde0314610301575b600080fd5b6102eb6102e6366004613c34565b61056a565b6040516102f8919061415d565b60405180910390f35b610309611986565b6040516102f891906142a1565b61032961032436600461396e565b611a1c565b6040516102f8919061413a565b6102eb611a33565b610346611a39565b6040516102f893929190614145565b61035d611a62565b6040516102f891906140f9565b6103296103783660046138be565b611a71565b610385611ae5565b6040516102f8919061408b565b61039a611b09565b6040516102f8919061454a565b6102eb611b12565b6103c26103bd366004613e33565b611b1c565b005b6102eb611b38565b6103296103da36600461396e565b611b5c565b6103c2611b97565b6102eb611bab565b6103c26103fd366004613af3565b611bcf565b6103c2611bed565b6102eb611bff565b6104256104203660046139d1565b611c12565b6040516102f8929190614531565b610385611c49565b6102eb61044936600461386a565b611c6d565b61046161045c3660046139d1565b611c88565b6040516102f892919061410c565b6102eb61047d36600461386a565b611d8b565b6103c2611d96565b6102eb610498366004613a97565b611da8565b6104256104ab3660046139d1565b611dfa565b610385611e20565b610385611e44565b6102eb6104ce36600461386a565b611e68565b610309611e83565b6103296104e936600461396e565b611ee4565b6103296104fc36600461396e565b611f22565b610385611f2f565b610329611f39565b6103c2611f4a565b610385611f5c565b6103c261052f3660046138fe565b611f80565b6104616105423660046139d1565b61200b565b6102eb610555366004613886565b61212e565b6102eb61216b565b610385612175565b6000846080015161059761057c611e44565b6001600160a01b0316336001600160a01b03161460cd6121df565b6105ac6105a2611b38565b82146101f46121df565b6105b46121ed565b6000865160018111156105c357fe5b14806105db57506001865160018111156105d957fe5b145b61061a576040517f08c379a00000000000000000000000000000000000000000000000000000000081526004016106119061437f565b60405180910390fd5b7f00000000000000000000000000000000000000000000000000000000000000006001600160a01b031686604001516001600160a01b0316148061069357507f00000000000000000000000000000000000000000000000000000000000000006001600160a01b031686604001516001600160a01b0316145b806106aa575060408601516001600160a01b031630145b806106ea57507f00000000000000000000000000000000000000000000000000000000000000006001600160a01b031686602001516001600160a01b0316145b8061072a57507f00000000000000000000000000000000000000000000000000000000000000006001600160a01b031686602001516001600160a01b0316145b80610741575060208601516001600160a01b031630145b610777576040517f08c379a0000000000000000000000000000000000000000000000000000000008152600401610611906142b4565b6060610781612200565b905061078d8682612373565b610795613713565b6000808080808c5160018111156107a857fe5b14156107d9576107cf8c60600151878c815181106107c257fe5b60200260200101516123e2565b60608d0152610808565b60018c5160018111156107e857fe5b1415610808576108028c60600151878b815181106107c257fe5b60608d01525b6101008c01515115611670578b610100015180602001905181019061082d9190613a74565b90945092507f4c696d69740000000000000000000000000000000000000000000000000000009150836111515761086261372a565b60095460c08e01516040517fca142f750000000000000000000000000000000000000000000000000000000081526001600160a01b039092169163ca142f75916108b09188906004016140e0565b60c06040518083038186803b1580156108c857600080fd5b505afa1580156108dc573d6000803e3d6000fd5b505050506040513d601f19601f820116820180604052508101906109009190613dcd565b60095460c08f015182519293506001600160a01b037f000000000000000000000000000000000000000000000000000000000000000081169392811692635778472a9290821691161461095757836040015161095d565b83602001515b6040518263ffffffff1660e01b8152600401610979919061415d565b60a06040518083038186803b15801561099157600080fd5b505afa1580156109a5573d6000803e3d6000fd5b505050506040513d601f19601f820116820180604052508101906109c99190613d53565b602001516001600160a01b031614610a01577f63757272656e6379000000000000000000000000000000000000000000000000610a23565b7f73656375726974790000000000000000000000000000000000000000000000005b92507f00000000000000000000000000000000000000000000000000000000000000006001600160a01b03168d604001516001600160a01b0316148015610a76575060008d516001811115610a7457fe5b145b15610ac857806080015191508c606001518160a0015114610ac3576040517f08c379a000000000000000000000000000000000000000000000000000000000815260040161061190614413565b610b71565b7f00000000000000000000000000000000000000000000000000000000000000006001600160a01b03168d604001516001600160a01b0316148015610b19575060008d516001811115610b1757fe5b145b15610b66578060a0015191508c60600151816080015114610ac3576040517f08c379a0000000000000000000000000000000000000000000000000000000008152600401610611906143b6565b610b716101636123ee565b60007f00000000000000000000000000000000000000000000000000000000000000006001600160a01b03168e604001516001600160a01b0316148015610bc4575060208e01516001600160a01b031630145b15610bf057507f53656c6c00000000000000000000000000000000000000000000000000000000610c78565b7f00000000000000000000000000000000000000000000000000000000000000006001600160a01b03168e604001516001600160a01b0316148015610c41575060208e01516001600160a01b031630145b15610c6d57507f4275790000000000000000000000000000000000000000000000000000000000610c78565b610c786101636123ee565b7f00000000000000000000000000000000000000000000000000000000000000006001600160a01b03167fd6a806535ec4f172139ede2e9d6bbbe20957ca8a454fd40c9747fe139efe42478f60c001516001600160a01b031684600001516001600160a01b031614610cee578360400151610cf4565b83602001515b7f73656375726974790000000000000000000000000000000000000000000000008714610dbd5760095460408087015190517f5778472a0000000000000000000000000000000000000000000000000000000081526001600160a01b0390921691635778472a91610d679160040161415d565b60a06040518083038186803b158015610d7f57600080fd5b505afa158015610d93573d6000803e3d6000fd5b505050506040513d601f19601f82011682018060405250810190610db79190613d53565b51610e5b565b60095460208601516040517f5778472a0000000000000000000000000000000000000000000000000000000081526001600160a01b0390921691635778472a91610e099160040161415d565b60a06040518083038186803b158015610e2157600080fd5b505afa158015610e35573d6000803e3d6000fd5b505050506040513d601f19601f82011682018060405250810190610e599190613d53565b515b7f63757272656e63790000000000000000000000000000000000000000000000008814610f245760095460408088015190517f5778472a0000000000000000000000000000000000000000000000000000000081526001600160a01b0390921691635778472a91610ece9160040161415d565b60a06040518083038186803b158015610ee657600080fd5b505afa158015610efa573d6000803e3d6000fd5b505050506040513d601f19601f82011682018060405250810190610f1e9190613d53565b51610fc2565b60095460208701516040517f5778472a0000000000000000000000000000000000000000000000000000000081526001600160a01b0390921691635778472a91610f709160040161415d565b60a06040518083038186803b158015610f8857600080fd5b505afa158015610f9c573d6000803e3d6000fd5b505050506040513d601f19601f82011682018060405250810190610fc09190613d53565b515b85610fde88608001518960a0015161241890919063ffffffff16565b7f00000000000000000000000000000000000000000000000000000000000000008a8a6060015160405161101998979695949392919061419c565b60405180910390a261104f82608001517f0000000000000000000000000000000000000000000000000000000000000000612469565b608083015260a0820151611083907f0000000000000000000000000000000000000000000000000000000000000000612469565b60a08301526009546040517f71eedc7f0000000000000000000000000000000000000000000000000000000081526001600160a01b037f00000000000000000000000000000000000000000000000000000000000000008116926371eedc7f926110f392879216906004016144e0565b600060405180830381600087803b15801561110d57600080fd5b505af1158015611121573d6000803e3d6000fd5b5050505061114283898d8151811061113557fe5b6020026020010151612469565b9950505050505050505061197d565b818414801561115f57508215155b1561118057604080518082019091528060018152602001849052945061166b565b82611393577f00000000000000000000000000000000000000000000000000000000000000006001600160a01b03168c604001516001600160a01b031614806111fe57507f00000000000000000000000000000000000000000000000000000000000000006001600160a01b03168c604001516001600160a01b0316145b8015611216575060208c01516001600160a01b031630145b801561122e575060008c51600181111561122c57fe5b145b156113835760095460c08d01516040517fd61aed7a0000000000000000000000000000000000000000000000000000000081526001600160a01b039092169163d61aed7a9161128291889190600401614166565b602060405180830381600087803b15801561129c57600080fd5b505af11580156112b0573d6000803e3d6000fd5b505050506040513d601f19601f820116820180604052508101906112d491906139b9565b90508b606001518114611313576040517f08c379a000000000000000000000000000000000000000000000000000000000815260040161061190614322565b7f9b85ff671b830162b81f1cb1253d54a6fee66e6f9760fc15cfc3fecccca8f1188c60c001518d602001518e604001518f6060015187428a60405161135e979695949392919061409f565b60405180910390a161137681878b8151811061113557fe5b975050505050505061197d565b61138e6101636123ee565b61166b565b82156116605760208c01516001600160a01b0316301480156113c1575060008c5160018111156113bf57fe5b145b156114b657600960009054906101000a90046001600160a01b03166001600160a01b03166346764e5e85858f6040518463ffffffff1660e01b815260040161140b93929190614264565b602060405180830381600087803b15801561142557600080fd5b505af1158015611439573d6000803e3d6000fd5b505050506040513d601f19601f8201168201806040525081019061145d91906139b9565b905061146d818d606001516121b1565b90507f9b85ff671b830162b81f1cb1253d54a6fee66e6f9760fc15cfc3fecccca8f1188c60c001518d604001518e602001518487428a60405161135e979695949392919061409f565b60408c01516001600160a01b0316301480156114de575060008c5160018111156114dc57fe5b145b1561138357600960009054906101000a90046001600160a01b03166001600160a01b03166346764e5e85858f6040518463ffffffff1660e01b815260040161152893929190614264565b602060405180830381600087803b15801561154257600080fd5b505af1158015611556573d6000803e3d6000fd5b505050506040513d601f19601f8201168201806040525081019061157a91906139b9565b905061158a8c6060015182612475565b90508b606001518b7f0000000000000000000000000000000000000000000000000000000000000000815181106115bd57fe5b602002602001015110156115fd576040517f08c379a000000000000000000000000000000000000000000000000000000000815260040161061190614470565b7f9b85ff671b830162b81f1cb1253d54a6fee66e6f9760fc15cfc3fecccca8f1188c60c001518d602001518e604001518487428a604051611644979695949392919061409f565b60405180910390a16113768c60600151878b8151811061113557fe5b61166b6101636123ee565b611687565b604080518082019091526000808252602082015294505b7f00000000000000000000000000000000000000000000000000000000000000008c6060015110156116e5576040517f08c379a0000000000000000000000000000000000000000000000000000000008152600401610611906142eb565b7f00000000000000000000000000000000000000000000000000000000000000006001600160a01b03168c602001516001600160a01b0316148061175e57507f00000000000000000000000000000000000000000000000000000000000000006001600160a01b03168c602001516001600160a01b0316145b8015611776575060408c01516001600160a01b031630145b801561178e575060008c51600181111561178c57fe5b145b156118fe578b606001518b7f0000000000000000000000000000000000000000000000000000000000000000815181106117c457fe5b602002602001015111156118ee576118138b7f00000000000000000000000000000000000000000000000000000000000000008151811061180157fe5b60200260200101518d606001516121b1565b8b7f00000000000000000000000000000000000000000000000000000000000000008151811061183f57fe5b60209081029190910101526009546040517f5487e8cf0000000000000000000000000000000000000000000000000000000081526001600160a01b0390911690635487e8cf90611895908f9089906004016144a7565b602060405180830381600087803b1580156118af57600080fd5b505af11580156118c3573d6000803e3d6000fd5b505050506040513d601f19601f820116820180604052508101906118e791906139b9565b91506118f9565b6118f96102016123ee565b611909565b6119096101636123ee565b7f9b85ff671b830162b81f1cb1253d54a6fee66e6f9760fc15cfc3fecccca8f1188c60c001518d602001518e604001518f6060015189602001514288604051611958979695949392919061409f565b60405180910390a16119748c60600151878b8151811061113557fe5b97505050505050505b50949350505050565b60038054604080516020601f6002600019610100600188161502019095169490940493840181900481028201810190925282815260609390929091830182828015611a125780601f106119e757610100808354040283529160200191611a12565b820191906000526020600020905b8154815290600101906020018083116119f557829003601f168201915b5050505050905090565b6000611a29338484612487565b5060015b92915050565b60025490565b6000806000611a466124ef565b159250611a5161250c565b9150611a5b612530565b9050909192565b6060611a6c612200565b905090565b600080611a7e853361212e565b9050611aa2336001600160a01b0387161480611a9a5750838210155b61019e6121df565b611aad858585612554565b336001600160a01b03861614801590611ac857506000198114155b15611ada57611ada8533858403612487565b506001949350505050565b7f000000000000000000000000000000000000000000000000000000000000000090565b60055460ff1690565b6000611a6c61216b565b611b24612634565b611b2c6121ed565b611b358161267a565b50565b7f000000000000000000000000000000000000000000000000000000000000000090565b3360008181526001602090815260408083206001600160a01b03871684529091528120549091611a29918590611b929086612475565b612487565b611b9f612634565b611ba960006126f3565b565b7f000000000000000000000000000000000000000000000000000000000000000090565b611bd7612634565b611bdf6121ed565b611be98282612784565b5050565b611bf5612634565b611ba96001612892565b600854600090611a6c9060c0603f6128e9565b60006060611c288651611c236128f8565b6128fd565b611c3d8989898989898961290a61295c6129c5565b97509795505050505050565b7f000000000000000000000000000000000000000000000000000000000000000090565b6001600160a01b031660009081526020819052604090205490565b60608088611c9761057c611e44565b611ca26105a2611b38565b60606000611caf86612b7a565b15611cd757611cbc612ba9565b611cce89611cc8611a33565b88612bbc565b92509050611d29565b611cdf612be8565b6060611ce9612200565b9050611cf58a82612373565b611d198d8d8d8d8d611d05611f39565b611d0f578d611d12565b60005b878e61290a565b93509150611d27838261295c565b505b611d338b82612bf0565b81895167ffffffffffffffff81118015611d4c57600080fd5b50604051908082528060200260200182016040528015611d76578160200160208202803683370190505b509450945050505b5097509795505050505050565b6000611a2d82611e68565b611d9e612634565b611ba960016126f3565b60007f000000000000000000000000000000000000000000000000000000000000000082604051602001611ddd929190614015565b604051602081830303815290604052805190602001209050919050565b60006060611e0b8651611c236128f8565b611c3d89898989898989612bfa612c166129c5565b7f000000000000000000000000000000000000000000000000000000000000000090565b7f000000000000000000000000000000000000000000000000000000000000000090565b6001600160a01b031660009081526006602052604090205490565b60048054604080516020601f6002600019610100600188161502019095169490940493840181900481028201810190925282815260609390929091830182828015611a125780601f106119e757610100808354040283529160200191611a12565b600080611ef1338561212e565b9050808310611f0b57611f0633856000612487565b611f18565b611f183385858403612487565b5060019392505050565b6000611a29338484612554565b6000611a6c612c7f565b600854600090611a6c9060ff612cf9565b611f52612634565b611ba96000612892565b7f000000000000000000000000000000000000000000000000000000000000000090565b60007f6e71edae12b1b97f4d1f60370fef10105fa2faae0126114a169c64845d6126c9888888611faf8c611e68565b89604051602001611fc5969594939291906141e3565b604051602081830303815290604052805190602001209050611ff68882611fed878787612d03565b886101f8612d42565b612001888888612487565b5050505050505050565b6060808861201a61057c611e44565b6120256105a2611b38565b61202d612be8565b6060612037612200565b9050612041611a33565b6120ee57600060606120568d8d8d868b612d99565b9150915061206f612065612ebe565b83101560cc6121df565b612081600061207c612ebe565b612ec5565b6120948b61208d612ebe565b8403612ec5565b61209e8184612c16565b808a5167ffffffffffffffff811180156120b757600080fd5b506040519080825280602002602001820160405280156120e1578160200160208202803683370190505b5095509550505050611d7e565b6120f88882612373565b600060606121208d8d8d8d8d61210c611f39565b612116578d612119565b60005b898e612bfa565b915091506120948b83612ec5565b6000612138611e44565b6001600160a01b0316826001600160a01b0316141561215a5750600019611a2d565b6121648383612ecf565b9050611a2d565b6000611a6c612efa565b6009546001600160a01b031681565b80611be981612f97565b600061219b848484613015565b506001901b60001901811b1992909216911b1790565b60006121c18383111560016121df565b50900390565b60008183106121d657816121d8565b825b9392505050565b81611be957611be9816123ee565b611ba96121f86124ef565b6101926121df565b6060600061220c6128f8565b905060608167ffffffffffffffff8111801561222757600080fd5b50604051908082528060200260200182016040528015612251578160200160208202803683370190505b50905060005b8281101561236c577f00000000000000000000000000000000000000000000000000000000000000008114156122c5577f00000000000000000000000000000000000000000000000000000000000000008282815181106122b457fe5b602002602001018181525050612364565b7f000000000000000000000000000000000000000000000000000000000000000081141561231a577f00000000000000000000000000000000000000000000000000000000000000008282815181106122b457fe5b7f000000000000000000000000000000000000000000000000000000000000000081141561236457670de0b6b3a764000082828151811061235757fe5b6020026020010181815250505b600101612257565b5091505090565b815181516123829082906128fd565b60005b818110156123dc576123bd84828151811061239c57fe5b60200260200101518483815181106123b057fe5b602002602001015161305c565b8482815181106123c957fe5b6020908102919091010152600101612385565b50505050565b60006121d8838361305c565b611b35817f42414c0000000000000000000000000000000000000000000000000000000000613092565b600061242782151560046121df565b8261243457506000611a2d565b670de0b6b3a7640000838102906124579085838161244e57fe5b041460056121df565b82818161246057fe5b04915050611a2d565b60006121d88383612418565b60008282016121d884821015836121df565b6001600160a01b0380841660008181526001602090815260408083209487168084529490915290819020849055517f8c5be1e5ebec7d5bd14f71427d1e84f3dd0314c0f7b2291e5b200ac8c7c3b925906124e290859061415d565b60405180910390a3505050565b60006124f9612530565b421180611a6c57505060075460ff161590565b7f000000000000000000000000000000000000000000000000000000000000000090565b7f000000000000000000000000000000000000000000000000000000000000000090565b61256b6001600160a01b03841615156101986121df565b6125826001600160a01b03831615156101996121df565b61258d838383613010565b6001600160a01b0383166000908152602081905260409020546125b390826101a061310d565b6001600160a01b0380851660009081526020819052604080822093909355908416815220546125e29082612475565b6001600160a01b0380841660008181526020819052604090819020939093559151908516907fddf252ad1be2c89b69c2b068fc378daa952ba7f163c4a11628f55a4df523b3ef906124e290859061415d565b60006126636000357fffffffff0000000000000000000000000000000000000000000000000000000016611da8565b9050611b356126728233613123565b6101916121df565b61268f61268561320c565b82101560cb6121df565b6126a461269a613215565b82111560ca6121df565b6008546126b5908260c0603f61218e565b6008556040517fa9ba3ffe0b6c366b81232caab38605a0699ad5398d6cce76f91ee809e322dafc906126e890839061415d565b60405180910390a150565b80156127135761270e61270461250c565b42106101936121df565b612728565b61272861271e612530565b42106101a96121df565b600780547fffffffffffffffffffffffffffffffffffffffffffffffffffffffffffffff00168215151790556040517f9e3a5e37224532dea67b89face185703738a228a6e8a23dee546960180d3be64906126e890839061413a565b600061278e611b38565b9050600061279a611e44565b6001600160a01b031663b05f8e4883866040518363ffffffff1660e01b81526004016127c7929190614166565b60806040518083038186803b1580156127df57600080fd5b505afa1580156127f3573d6000803e3d6000fd5b505050506040513d601f19601f820116820180604052508101906128179190613e4b565b6040517f18e736d40000000000000000000000000000000000000000000000000000000081529094506001600160a01b03851693506318e736d49250612864915085908790600401614243565b600060405180830381600087803b15801561287e57600080fd5b505af1158015612001573d6000803e3d6000fd5b6008546128a1908260ff613221565b6008556040517feff3d4d215b42bf0960be9c6d5e05c22cba4df6627a3a523e2acee733b5854c8906128d490839061413a565b60405180910390a180611b3557611b35611ba9565b6001901b6000190191901c1690565b600390565b611be981831460676121df565b60006060600061291984613248565b9050600181600181111561292957fe5b1461293e576129396101636123ee565b61294e565b612948888561325e565b90935091505b509850989650505050505050565b8151815161296b9082906128fd565b60005b818110156123dc576129a684828151811061298557fe5b602002602001015184838151811061299957fe5b6020026020010151612418565b8482815181106129b257fe5b602090810291909101015260010161296e565b333014612ab4576000306001600160a01b03166000366040516129e9929190614045565b6000604051808303816000865af19150503d8060008114612a26576040519150601f19603f3d011682016040523d82523d6000602084013e612a2b565b606091505b505090508060008114612a3a57fe5b60046000803e6000517fffffffff00000000000000000000000000000000000000000000000000000000167f43adbafb000000000000000000000000000000000000000000000000000000008114612a96573d6000803e3d6000fd5b506020600460003e604060205260243d03602460403e601c3d016000f35b612abc612be8565b6060612ac6612200565b9050612ad28782612373565b60006060612aea8c8c8c8c8c8c898d8d63ffffffff16565b91509150612afc81848663ffffffff16565b80517fffffffffffffffffffffffffffffffffffffffffffffffffffffffffffffffe082018390526343adbafb7fffffffffffffffffffffffffffffffffffffffffffffffffffffffffffffffc08301526020027fffffffffffffffffffffffffffffffffffffffffffffffffffffffffffffffdc82016044820181fd5b6000808251118015611a2d575060ff801682806020019051810190612b9f9190613e8b565b60ff161492915050565b611ba9612bb4611f39565b6101b66121df565b600060606000612bcb84613301565b90506060612bda878784613317565b919791965090945050505050565b611ba96121ed565b611be982826133c6565b60006060612c096101636123ee565b9850989650505050505050565b81518151612c259082906128fd565b60005b818110156123dc57612c60848281518110612c3f57fe5b6020026020010151848381518110612c5357fe5b6020026020010151613492565b848281518110612c6c57fe5b6020908102919091010152600101612c28565b6000612c89611e44565b6001600160a01b031663aaabadc56040518163ffffffff1660e01b815260040160206040518083038186803b158015612cc157600080fd5b505afa158015612cd5573d6000803e3d6000fd5b505050506040513d601f19601f82011682018060405250810190611a6c9190613ad7565b1c60019081161490565b60408051604180825260808201909252606091829190602082018180368337019050509050836020820152826040820152846060820153949350505050565b6000612d4d856134e0565b9050612d63612d5d8783876134fc565b836121df565b612d72428410156101b86121df565b5050506001600160a01b039092166000908152600660205260409020805460010190555050565b60006060612da56121ed565b7f0000000000000000000000000000000000000000000000000000000000000000612de06001600160a01b03888116908316146101566121df565b612e00816001600160a01b0316876001600160a01b0316146101566121df565b6060612e0b856135c9565b9050612e6a817f000000000000000000000000000000000000000000000000000000000000000081518110612e3c57fe5b60200260200101517f00000000000000000000000000000000000000000000000000000000000000006123e2565b817f000000000000000000000000000000000000000000000000000000000000000081518110612e9657fe5b60209081029190910101526dffffffffffffffffffffffffffff999098509650505050505050565b620f424090565b611be982826135df565b6001600160a01b03918216600090815260016020908152604080832093909416825291909152205490565b60007f00000000000000000000000000000000000000000000000000000000000000007f00000000000000000000000000000000000000000000000000000000000000007f0000000000000000000000000000000000000000000000000000000000000000612f67613672565b30604051602001612f7c959493929190614217565b60405160208183030381529060405280519060200120905090565b600281511015612fa657611b35565b600081600081518110612fb557fe5b602002602001015190506000600190505b8251811015613010576000838281518110612fdd57fe5b60200260200101519050613006816001600160a01b0316846001600160a01b03161060656121df565b9150600101612fc6565b505050565b613024610100831060646121df565b61304d60018210158015613046575061304260ff84610100036121c7565b8211155b60646121df565b61301083821c156101b46121df565b600082820261308084158061307957508385838161307657fe5b04145b60036121df565b670de0b6b3a764000090049392505050565b7f08c379a000000000000000000000000000000000000000000000000000000000600090815260206004526007602452600a808404818106603090810160081b958390069590950190829004918206850160101b01602363ffffff0060e086901c160160181b0190930160c81b60445260e882901c90606490fd5b600061311c84841115836121df565b5050900390565b600073ba1ba1ba1ba1ba1ba1ba1ba1ba1ba1ba1ba1ba1b613142611e20565b6001600160a01b03161415801561315d575061315d83613676565b156131855761316a611e20565b6001600160a01b0316336001600160a01b0316149050611a2d565b61318d612c7f565b6001600160a01b0316639be2a8848484306040518463ffffffff1660e01b81526004016131bc9392919061417d565b60206040518083038186803b1580156131d457600080fd5b505afa1580156131e8573d6000803e3d6000fd5b505050506040513d601f19601f820116820180604052508101906121649190613999565b64e8d4a5100090565b67016345785d8a000090565b60006001821b198416828461323757600061323a565b60015b60ff16901b17949350505050565b600081806020019051810190611a2d9190613b41565b60006060600061326d846136e4565b90506060855167ffffffffffffffff8111801561328957600080fd5b506040519080825280602002602001820160405280156132b3578160200160208202803683370190505b50905060005b86518110156132f5578681815181106132ce57fe5b60200260200101518282815181106132e257fe5b60209081029190910101526001016132b9565b50909590945092505050565b6000818060200190518101906121d89190613ea7565b606060006133258385612418565b9050845167ffffffffffffffff8111801561333f57600080fd5b50604051908082528060200260200182016040528015613369578160200160208202803683370190505b50915060005b85518110156133bd5761339e8287838151811061338857fe5b602002602001015161305c90919063ffffffff16565b8382815181106133aa57fe5b602090810291909101015260010161336f565b50509392505050565b6133dd6001600160a01b038316151561019b6121df565b6133e982600083613010565b6001600160a01b03821660009081526020819052604090205461340f90826101b261310d565b6001600160a01b03831660009081526020819052604090205561344261343d82613437611a33565b906136fa565b613708565b60006001600160a01b0316826001600160a01b03167fddf252ad1be2c89b69c2b068fc378daa952ba7f163c4a11628f55a4df523b3ef83604051613486919061415d565b60405180910390a35050565b60006134a182151560046121df565b826134ae57506000611a2d565b670de0b6b3a7640000838102906134c89085838161244e57fe5b8260018203816134d457fe5b04600101915050611a2d565b60006134ea612efa565b82604051602001611ddd929190614055565b600061350e82516041146101b96121df565b60208281015160408085015160608601518251600080825295019283905292939092811a91600190613547908990859088908890614283565b6020604051602081039080840390855afa158015613569573d6000803e3d6000fd5b50506040517fffffffffffffffffffffffffffffffffffffffffffffffffffffffffffffffe001519150506001600160a01b038116158015906135bd5750876001600160a01b0316816001600160a01b0316145b98975050505050505050565b6060818060200190518101906121d89190613b8a565b6135eb60008383613010565b61360061343d826135fa611a33565b90612475565b6001600160a01b0382166000908152602081905260409020546136239082612475565b6001600160a01b0383166000818152602081905260408082209390935591519091907fddf252ad1be2c89b69c2b068fc378daa952ba7f163c4a11628f55a4df523b3ef9061348690859061415d565b4690565b60006136a17f38e9922e00000000000000000000000000000000000000000000000000000000611da8565b8214806136d557506136d27f50dd6ed900000000000000000000000000000000000000000000000000000000611da8565b82145b80611a2d5750611a2d8261370d565b6000818060200190518101906121d89190613b5d565b60006121d88383600161310d565b600255565b50600090565b604080518082019091526000808252602082015290565b6040805160c081018252600080825260208201819052918101829052606081018290526080810182905260a081019190915290565b8035611a2d8161459f565b600082601f83011261377a578081fd5b813561378d6137888261457f565b614558565b8181529150602080830190848101818402860182018710156137ae57600080fd5b60005b848110156137cd578135845292820192908201906001016137b1565b505050505092915050565b600082601f8301126137e8578081fd5b813567ffffffffffffffff8111156137fe578182fd5b61382f60207fffffffffffffffffffffffffffffffffffffffffffffffffffffffffffffffe0601f84011601614558565b915080825283602082850101111561384657600080fd5b8060208401602084013760009082016020015292915050565b8035611a2d816145b4565b60006020828403121561387b578081fd5b81356121d88161459f565b60008060408385031215613898578081fd5b82356138a38161459f565b915060208301356138b38161459f565b809150509250929050565b6000806000606084860312156138d2578081fd5b83356138dd8161459f565b925060208401356138ed8161459f565b929592945050506040919091013590565b600080600080600080600060e0888a031215613918578485fd5b87356139238161459f565b965060208801356139338161459f565b955060408801359450606088013593506080880135613951816145c1565b9699959850939692959460a0840135945060c09093013592915050565b60008060408385031215613980578182fd5b823561398b8161459f565b946020939093013593505050565b6000602082840312156139aa578081fd5b815180151581146121d8578182fd5b6000602082840312156139ca578081fd5b5051919050565b600080600080600080600060e0888a0312156139eb578081fd5b8735965060208801356139fd8161459f565b95506040880135613a0d8161459f565b9450606088013567ffffffffffffffff80821115613a29578283fd5b613a358b838c0161376a565b955060808a0135945060a08a0135935060c08a0135915080821115613a58578283fd5b50613a658a828b016137d8565b91505092959891949750929550565b60008060408385031215613a86578182fd5b505080516020909101519092909150565b600060208284031215613aa8578081fd5b81357fffffffff00000000000000000000000000000000000000000000000000000000811681146121d8578182fd5b600060208284031215613ae8578081fd5b81516121d88161459f565b60008060408385031215613b05578182fd5b8235613b108161459f565b9150602083013567ffffffffffffffff811115613b2b578182fd5b613b37858286016137d8565b9150509250929050565b600060208284031215613b52578081fd5b81516121d8816145b4565b60008060408385031215613b6f578182fd5b8251613b7a816145b4565b6020939093015192949293505050565b60008060408385031215613b9c578182fd5b825160048110613baa578283fd5b8092505060208084015167ffffffffffffffff811115613bc8578283fd5b8401601f81018613613bd8578283fd5b8051613be66137888261457f565b81815283810190838501858402850186018a1015613c02578687fd5b8694505b83851015613c24578051835260019490940193918501918501613c06565b5080955050505050509250929050565b60008060008060808587031215613c49578182fd5b843567ffffffffffffffff80821115613c60578384fd5b818701915061012080838a031215613c76578485fd5b613c7f81614558565b9050613c8b898461385f565b8152613c9a896020850161375f565b6020820152613cac896040850161375f565b6040820152606083013560608201526080830135608082015260a083013560a0820152613cdc8960c0850161375f565b60c0820152613cee8960e0850161375f565b60e08201526101008084013583811115613d06578687fd5b613d128b8287016137d8565b828401525050809650506020870135915080821115613d2f578384fd5b50613d3c8782880161376a565b949794965050505060408301359260600135919050565b600060a08284031215613d64578081fd5b613d6e60a0614558565b8251613d798161459f565b81526020830151613d898161459f565b6020820152604083015160038110613d9f578283fd5b6040820152606083015160058110613db5578283fd5b60608201526080928301519281019290925250919050565b600060c08284031215613dde578081fd5b613de860c0614558565b8251613df38161459f565b808252506020830151602082015260408301516040820152606083015160608201526080830151608082015260a083015160a08201528091505092915050565b600060208284031215613e44578081fd5b5035919050565b60008060008060808587031215613e60578182fd5b8451935060208501519250604085015191506060850151613e808161459f565b939692955090935050565b600060208284031215613e9c578081fd5b81516121d8816145c1565b60008060408385031215613eb9578182fd5b8251613b7a816145c1565b6001600160a01b03169052565b6000815180845260208085019450808401835b83811015613f0057815187529582019590820190600101613ee4565b509495945050505050565b60008151808452815b81811015613f3057602081850181015186830182015201613f14565b81811115613f415782602083870101525b50601f017fffffffffffffffffffffffffffffffffffffffffffffffffffffffffffffffe0169290920160200192915050565b6000610120825160028110613f8557fe5b808552506020830151613f9b6020860182613ec4565b506040830151613fae6040860182613ec4565b50606083015160608501526080830151608085015260a083015160a085015260c0830151613fdf60c0860182613ec4565b5060e0830151613ff260e0860182613ec4565b5061010080840151828287015261400b83870182613f0b565b9695505050505050565b9182527fffffffff0000000000000000000000000000000000000000000000000000000016602082015260240190565b6000828483379101908152919050565b7f190100000000000000000000000000000000000000000000000000000000000081526002810192909252602282015260420190565b6001600160a01b0391909116815260200190565b6001600160a01b03978816815295871660208701529390951660408501526060840191909152608083015260a082019290925260c081019190915260e00190565b6001600160a01b03929092168252602082015260400190565b6000602082526121d86020830184613ed1565b60006040825261411f6040830185613ed1565b82810360208401526141318185613ed1565b95945050505050565b901515815260200190565b92151583526020830191909152604082015260600190565b90815260200190565b9182526001600160a01b0316602082015260400190565b9283526001600160a01b03918216602084015216604082015260600190565b9788526001600160a01b03968716602089015294861660408801526060870193909352608086019190915290921660a084015260c083019190915260e08201526101000190565b9586526001600160a01b0394851660208701529290931660408501526060840152608083019190915260a082015260c00190565b9485526020850193909352604084019190915260608301526001600160a01b0316608082015260a00190565b60008382526040602083015261425c6040830184613f0b565b949350505050565b6000848252836020830152606060408301526141316060830184613f74565b93845260ff9290921660208401526040830152606082015260800190565b6000602082526121d86020830184613f0b565b60208082526016908201527f496e76616c6964207377617070656420746f6b656e7300000000000000000000604082015260600190565b60208082526018908201527f4f726465722062656c6f77206d696e696d756d2073697a650000000000000000604082015260600190565b60208082526023908201527f496e73756666696369656e7420706f6f6c20746f6b656e73207377617070656460408201527f20696e0000000000000000000000000000000000000000000000000000000000606082015260800190565b6020808252600c908201527f496e76616c696420737761700000000000000000000000000000000000000000604082015260600190565b60208082526030908201527f496e73756666696369656e7420706f6f6c20746f6b656e73207377617070656460408201527f20696e20666f722063757272656e637900000000000000000000000000000000606082015260800190565b60208082526030908201527f496e73756666696369656e7420706f6f6c20746f6b656e73207377617070656460408201527f20696e20666f7220736563757269747900000000000000000000000000000000606082015260800190565b6020808252601d908201527f494e53554646494349454e545f494e5445524e414c5f42414c414e4345000000604082015260600190565b6000606082526144ba6060830185613f74565b90508251600381106144c857fe5b80602084015250602083015160408301529392505050565b82516001600160a01b0390811682526020808501519083015260408085015190830152606080850151908301526080808501519083015260a09384015193820193909352911660c082015260e00190565b60008382526040602083015261425c6040830184613ed1565b60ff91909116815260200190565b60405181810167ffffffffffffffff8111828210171561457757600080fd5b604052919050565b600067ffffffffffffffff821115614595578081fd5b5060209081020190565b6001600160a01b0381168114611b3557600080fd5b60028110611b3557600080fd5b60ff81168114611b3557600080fdfea2646970667358221220c77cc95619d6d4bb7f078a4707bd11e8668cf5a6528f3d25bf5de5919cc8f51d64736f6c634300070100336101006040523480156200001257600080fd5b50604051620035a1380380620035a18339810160408190526200003591620000de565b620000403362000070565b6001600160601b0319606094851b811660c05292841b831660805290831b821660a05290911b1660e0526200013e565b600080546001600160a01b038381166001600160a01b0319831681178455604051919092169283917f8be0079c531659141344cd1fd0a4f28419497f9722a3daafe3b4186f6b6457e09190a35050565b80516001600160a01b0381168114620000d857600080fd5b92915050565b60008060008060808587031215620000f4578384fd5b620001008686620000c0565b9350620001118660208701620000c0565b9250620001228660408701620000c0565b9150620001338660608701620000c0565b905092959194509250565b60805160601c60a05160601c60c05160601c60e05160601c6133b8620001e96000398061020c52806125be5250806107cc52806109245280610a82525080610418528061073452806108df5280610a36528061118f528061136b52806116d752806121ec5250806101e5528061037452806103d952806106e352806109e15280610d74528061120d52806112ed528061143c52806119ad5280611f62528061205952506133b86000f3fe608060405234801561001057600080fd5b50600436106100df5760003560e01c8063715018a61161008c5780638da5cb5b116100665780638da5cb5b14610195578063ca142f751461019d578063d61aed7a146101bd578063f2fde38b146101d0576100df565b8063715018a6146101655780637ef938901461016f57806381b5da1d14610182576100df565b80635487e8cf116100bd5780635487e8cf1461012a5780635778472a1461013d5780636945c1fd1461015d576100df565b80632541897f146100e457806338fff2d01461010257806346764e5e14610117575b600080fd5b6100ec6101e3565b6040516100f99190612ffe565b60405180910390f35b61010a610207565b6040516100f99190613036565b61010a610125366004612ecf565b6102a1565b61010a610138366004612f31565b6104b7565b61015061014b366004612e45565b610797565b6040516100f9919061329c565b6100ec6108dd565b61016d610901565b005b61016d61017d366004612f1d565b610919565b61016d610190366004612ea4565b610a77565b6100ec610bf1565b6101b06101ab366004612e1a565b610c00565b6040516100f991906132f9565b61010a6101cb366004612e75565b610cc1565b61016d6101de366004612dfe565b610e2a565b7f000000000000000000000000000000000000000000000000000000000000000090565b6000807f00000000000000000000000000000000000000000000000000000000000000006001600160a01b03166338fff2d06040518163ffffffff1660e01b815260040160206040518083038186803b15801561026357600080fd5b505afa158015610277573d6000803e3d6000fd5b505050506040513d601f19601f8201168201806040525081019061029b9190612e5d565b91505090565b60006102c1336102af610bf1565b6001600160a01b0316146101aa610e59565b60026000858152600760205260409020600101547501000000000000000000000000000000000000000000900460ff1660048111156102fc57fe5b146103225760405162461bcd60e51b81526004016103199061322e565b60405180910390fd5b60c08201516000858152600760205260409020546001600160a01b039081169116146103605760405162461bcd60e51b8152600401610319906131f7565b6000848152600760205260408120600101547f00000000000000000000000000000000000000000000000000000000000000006001600160a01b039081169116146103ac5760016103af565b60005b90506103bc848683610e6b565b6000600760008781526020019081526020016000206002015490507f00000000000000000000000000000000000000000000000000000000000000006001600160a01b031684602001516001600160a01b0316148061045057507f00000000000000000000000000000000000000000000000000000000000000006001600160a01b031684602001516001600160a01b0316145b1561047a57610463846060015182610f2d565b6000878152600760205260409020600201556104ae565b600086815260076020526040902060020154606085015161049b9190610f46565b6000878152600760205260409020600201555b95945050505050565b60006104c5336102af610bf1565b60608301516104e65760405162461bcd60e51b81526004016103199061311b565b6000825160028111156104f557fe5b148061050d575060018251600281111561050b57fe5b145b6105295760405162461bcd60e51b8152600401610319906130ad565b6005544214610538574261053f565b6005546001015b600581905560c084015160405160009261055c9291602001612fc9565b60405160208183030381529060405280519060200120905061057c612c1d565b6040518060a001604052808660c001516001600160a01b0316815260200186602001516001600160a01b03168152602001856000015160028111156105bd57fe5b8152602001600281526060870151602091820152600084815260078252604090819020835181547fffffffffffffffffffffffff00000000000000000000000000000000000000009081166001600160a01b0392831617835593850151600183018054909516911617808455918401519394508493909290917fffffffffffffffffffffff00ffffffffffffffffffffffffffffffffffffffff167401000000000000000000000000000000000000000083600281111561067a57fe5b021790555060608201516001820180547fffffffffffffffffffff00ffffffffffffffffffffffffffffffffffffffffff1675010000000000000000000000000000000000000000008360048111156106cf57fe5b0217905550608082015181600201559050507f00000000000000000000000000000000000000000000000000000000000000006001600160a01b031681602001516001600160a01b031614156107325761072d846020015183610f54565b61077e565b7f00000000000000000000000000000000000000000000000000000000000000006001600160a01b031681602001516001600160a01b0316141561077e5761077e846020015183610fdb565b61078c828560200151611061565b925050505b92915050565b61079f612c1d565b6107a7610bf1565b6001600160a01b0316336001600160a01b031614806107ee5750336001600160a01b037f000000000000000000000000000000000000000000000000000000000000000016145b8061080f57506000828152600760205260409020546001600160a01b031633145b61082b5760405162461bcd60e51b815260040161031990613152565b600082815260076020908152604091829020825160a08101845281546001600160a01b0390811682526001830154908116938201939093529290919083019074010000000000000000000000000000000000000000900460ff16600281111561089057fe5b600281111561089b57fe5b81526020016001820160159054906101000a900460ff1660048111156108bd57fe5b60048111156108c857fe5b81526020016002820154815250509050919050565b7f000000000000000000000000000000000000000000000000000000000000000090565b61090d336102af610bf1565b6109176000611a05565b565b336001600160a01b037f00000000000000000000000000000000000000000000000000000000000000001614806109685750610953610bf1565b6001600160a01b0316336001600160a01b0316145b6109845760405162461bcd60e51b8152600401610319906131c0565b60008381526007602052604090206002810180548401905560010180547fffffffffffffffffffff00ffffffffffffffffffffffffffffffffffffffffff16750200000000000000000000000000000000000000000017908190557f00000000000000000000000000000000000000000000000000000000000000006001600160a01b0390811691161415610a2257610a1d8184610f54565b610a72565b6000838152600760205260409020600101547f00000000000000000000000000000000000000000000000000000000000000006001600160a01b0390811691161415610a7257610a728184610fdb565b505050565b336001600160a01b037f0000000000000000000000000000000000000000000000000000000000000000161480610ac65750610ab1610bf1565b6001600160a01b0316336001600160a01b0316145b610ae25760405162461bcd60e51b8152600401610319906131c0565b600092835260076020908152604080852080547fffffffffffffffffffffffff00000000000000000000000000000000000000009081168255600180830180547fffffffffffffffffffff0000000000000000000000000000000000000000000090811690915560028085018a9055978952848920805484168155808301805490921690915580880189905592546001600160a01b0390811689526008808752858a20888b528752858a208054851681558084018b9055808a018b905560038082018c905560048083018d905560059283018d905596549093168b52908752858a20978a5296909552928720805490911681559182018690559381018590559081018490559182018390550155565b6000546001600160a01b031690565b610c08612c4c565b610c10610bf1565b6001600160a01b0316336001600160a01b03161480610c375750336001600160a01b038416145b610c535760405162461bcd60e51b815260040161031990613265565b506001600160a01b03918216600090815260086020908152604080832093835292815290829020825160c0810184528154909416845260018101549184019190915260028101549183019190915260038101546060830152600481015460808301526005015460a082015290565b6000610ccf336102af610bf1565b60026000848152600760205260409020600101547501000000000000000000000000000000000000000000900460ff166004811115610d0a57fe5b14610d275760405162461bcd60e51b81526004016103199061322e565b6000838152600760205260409020546001600160a01b03838116911614610d605760405162461bcd60e51b8152600401610319906131f7565b6000838152600760205260408120600101547f00000000000000000000000000000000000000000000000000000000000000006001600160a01b03908116911614610dac576001610daf565b60005b9050610dbb8482611a6d565b505050600090815260076020526040812060028101805482547fffffffffffffffffffffffff0000000000000000000000000000000000000000168355600190920180547fffffffffffffffffffff000000000000000000000000000000000000000000001690559190915590565b610e36336102af610bf1565b610e4d6001600160a01b03821615156101ab610e59565b610e5681611a05565b50565b81610e6757610e6781611c7d565b5050565b8015610ecf576000828152600260205260409020546001548110610ea15760405162461bcd60e51b815260040161031990613076565b8360018281548110610eaf57fe5b6000918252602090912060029091020155610ec981611ca7565b50610a72565b6000828152600460205260409020546003548110610eff5760405162461bcd60e51b815260040161031990613189565b8360038281548110610f0d57fe5b6000918252602090912060029091020155610f2781611d7f565b50505050565b6000828201610f3f8482101583610e59565b9392505050565b6000610f3f83836001611e57565b604080518082019091528281526020810182815260038054600181018255600082905292517fc2575a0e9e593c00f959f8c92f12db2869c3395a3b0502d05e2516446f71f85b60029094029384015590517fc2575a0e9e593c00f959f8c92f12db2869c3395a3b0502d05e2516446f71f85c909201919091555460001901610a7281611e6d565b6040805180820190915282815260208101828152600180548082018255600082905292517fb10e2d527612073b26eecdfd717e6a320cf44b4afac2b0732d9fcbe2b7fa0cf660029094029384015590517fb10e2d527612073b26eecdfd717e6a320cf44b4afac2b0732d9fcbe2b7fa0cf7909201919091555460001901610a7281611ed9565b60008060008080600080600060606110798b8b611f45565b9b50909250905081611095578a98505050505050505050610791565b600092505b80518310156119595760008b8152600760205260409020600201546110be57611959565b8a8184815181106110cb57fe5b60200260200101516020015114158015611136575060008b815260076020819052604082205483516001600160a01b03909116929084908790811061110c57fe5b6020908102919091018101518101518252810191909152604001600020546001600160a01b031614155b8015611188575060006007600083868151811061114f57fe5b602002602001015160200151815260200190815260200160002060010160159054906101000a900460ff16600481111561118557fe5b14155b15611422577f00000000000000000000000000000000000000000000000000000000000000006001600160a01b0316600760008386815181106111c757fe5b6020908102919091018101518101518252810191909152604001600020600101546001600160a01b031614801561123b575060008b8152600760205260409020600101547f00000000000000000000000000000000000000000000000000000000000000006001600160a01b039081169116145b156112eb578981848151811061124d57fe5b602002602001015160000151101580611264575089155b80611286575080838151811061127657fe5b6020026020010151600001516000145b156112e65780838151811061129757fe5b6020026020010151600001516000146112c7578083815181106112b657fe5b6020026020010151600001516112c9565b895b96508083815181106112d757fe5b60200260200101516020015197505b611422565b7f00000000000000000000000000000000000000000000000000000000000000006001600160a01b03166007600083868151811061132557fe5b6020908102919091018101518101518252810191909152604001600020600101546001600160a01b0316148015611399575060008b8152600760205260409020600101547f00000000000000000000000000000000000000000000000000000000000000006001600160a01b039081169116145b1561142257898184815181106113ab57fe5b6020026020010151600001511115806113c2575089155b15611422578083815181106113d357fe5b602002602001015160000151600014611403578083815181106113f257fe5b602002602001015160000151611405565b895b965080838151811061141357fe5b60200260200101516020015195505b87156116bd5760008b8152600760205260409020600101547f00000000000000000000000000000000000000000000000000000000000000006001600160a01b03908116911614156116b85760008881526007602052604090206002015461148a908861233d565b60008c81526007602052604090206002015490955085106116045760008b81526007602052604090206002015494506114c3858861238e565b6000898152600760205260409020600201549094506114e29085610f46565b60008981526007602052604080822060029081019384558e8352908220018190558990525461154757600088815260076020526040902060010180547fffffffffffffffffffff00ffffffffffffffffffffffffffffffffffffffffff1690556115bc565b6000888152600760205260409020600190810180547fffffffffffffffffffff00ffffffffffffffffffffffffffffffffffffffffff1675010000000000000000000000000000000000000000008302179055506115bc8184815181106115aa57fe5b60200260200101516000015189610fdb565b60008b815260076020526040902060010180547fffffffffffffffffffff00ffffffffffffffffffffffffffffffffffffffffff1690556115ff8b8987876123c4565b6116b8565b84156116b857611614858861238e565b60008c8152600760205260409020600201549094506116339086610f46565b60008c8152600760205260408082206002808201949094558b8352908220928301829055600192830180547fffffffffffffffffffff00ffffffffffffffffffffffffffffffffffffffffff908116909155918e905291909101805490911675010000000000000000000000000000000000000000001790556116b88b8987876123c4565b61194e565b851561194e5760008b8152600760205260409020600101547f00000000000000000000000000000000000000000000000000000000000000006001600160a01b039081169116141561194e57600086815260076020526040902060020154611725908861238e565b60008c815260076020526040902060020154909450841061189a5760008b815260076020526040902060020154935061175e848861233d565b60008781526007602052604090206002015490955061177d9086610f46565b60008781526007602052604080822060029081019384558e835290822001819055879052546117e257600086815260076020526040902060010180547fffffffffffffffffffff00ffffffffffffffffffffffffffffffffffffffffff169055611857565b6000868152600760205260409020600190810180547fffffffffffffffffffff00ffffffffffffffffffffffffffffffffffffffffff16750100000000000000000000000000000000000000000083021790555061185781848151811061184557fe5b60200260200101516000015187610f54565b60008b815260076020526040902060010180547fffffffffffffffffffff00ffffffffffffffffffffffffffffffffffffffffff1690556116b88b8787876123c4565b831561194e576118aa848861233d565b60008c8152600760205260409020600201549095506118c99085610f46565b60008c815260076020526040808220600280820194909455898352908220928301829055600192830180547fffffffffffffffffffff00ffffffffffffffffffffffffffffffffffffffffff908116909155918e9052919091018054909116750100000000000000000000000000000000000000000017905561194e8b8787876123c4565b60019092019161109a565b6000808c8152600760205260409020600101547501000000000000000000000000000000000000000000900460ff16600481111561199357fe5b14156119f65760008b8152600760205260408120600101547f00000000000000000000000000000000000000000000000000000000000000006001600160a01b039081169116146119e55760016119e8565b60005b90506119f48c82611a6d565b505b50989998505050505050505050565b600080546001600160a01b038381167fffffffffffffffffffffffff0000000000000000000000000000000000000000831681178455604051919092169283917f8be0079c531659141344cd1fd0a4f28419497f9722a3daafe3b4186f6b6457e09190a35050565b8015611b7a576000828152600260205260409020546001548110611aa35760405162461bcd60e51b815260040161031990613076565b6001546000190181811415611ae0576001805480611abd57fe5b600082815260208120600260001990930192830201818155600101559055611b64565b60018181548110611aed57fe5b906000526020600020906002020160018381548110611b0857fe5b60009182526020909120825460029092020190815560019182015490820155805480611b3057fe5b600082815260208120600260001990930192830201818155600190810191909155915554821015611b6457611b6482611ca7565b5050600082815260026020526040812055610e67565b6000828152600460205260409020546003548110611baa5760405162461bcd60e51b815260040161031990613189565b6003546000190181811415611be7576003805480611bc457fe5b600082815260208120600260001990930192830201818155600101559055611c69565b60038181548110611bf457fe5b906000526020600020906002020160038381548110611c0f57fe5b6000918252602090912082546002909202019081556001918201549101556003805480611c3857fe5b600082815260208120600260001990930192830201818155600101559055600354821015611c6957611c6982611d7f565b505050600090815260046020526040812055565b610e56817f42414c000000000000000000000000000000000000000000000000000000000061268c565b6001545b6002828102600181019101838383108015611d01575060018181548110611cce57fe5b90600052602060002090600202016000015460018481548110611ced57fe5b906000526020600020906002020160000154115b15611d095750815b8382108015611d53575060018181548110611d2057fe5b90600052602060002090600202016000015460018381548110611d3f57fe5b906000526020600020906002020160000154115b15611d5b5750805b84811415611d6b57505050610e67565b611d7585826126ed565b9350611cab915050565b6003545b6002828102600181019101838383108015611dd9575060038181548110611da657fe5b90600052602060002090600202016000015460038481548110611dc557fe5b906000526020600020906002020160000154105b15611de15750815b8382108015611e2b575060038181548110611df857fe5b90600052602060002090600202016000015460038381548110611e1757fe5b906000526020600020906002020160000154105b15611e335750805b84811415611e4357505050610e67565b611e4d8582612822565b9350611d83915050565b6000611e668484111583610e59565b5050900390565b8015610e565760006002600019830104905060038181548110611e8c57fe5b90600052602060002090600202016000015460038381548110611eab57fe5b90600052602060002090600202016000015410611ec85750610e56565b611ed28282612822565b9050611e6d565b8015610e565760006002600019830104905060018181548110611ef857fe5b90600052602060002090600202016000015460018381548110611f1757fe5b90600052602060002090600202016000015411611f345750610e56565b611f3e82826126ed565b9050611ed9565b6000828152600760205260408120600101546060908290819083907f00000000000000000000000000000000000000000000000000000000000000006001600160a01b03908116911614611fec5760035467ffffffffffffffff81118015611fac57600080fd5b50604051908082528060200260200182016040528015611fe657816020015b611fd3612c81565b815260200190600190039081611fcb5790505b50612041565b60015467ffffffffffffffff8111801561200557600080fd5b5060405190808252806020026020018201604052801561203f57816020015b61202c612c81565b8152602001906001900390816120245790505b505b600088815260076020526040812060010154919250907f00000000000000000000000000000000000000000000000000000000000000006001600160a01b03908116911614156121d8575b600154156121d357600061209e61292e565b9050801580156120ac575087155b156120d057600654156120c557506006549650866120cb565b506121d3565b6120e5565b801580156120dd57508715155b156120e55750865b878110156120f357506121d3565b6120fb612975565b83838151811061210757fe5b602002602001018190525060008084848151811061212157fe5b602002602001015160000151116121385781612151565b83838151811061214457fe5b6020026020010151600001515b905061219c85612197836007600089898151811061216b57fe5b60200260200101516020015181526020019081526020016000206002015461233d90919063ffffffff16565b610f2d565b60008b81526007602052604090206002015490955085106121c95750929550909350859250612336915050565b505060010161208c565b61232c565b6000888152600760205260409020600101547f00000000000000000000000000000000000000000000000000000000000000006001600160a01b039081169116141561232c575b6003541580159061223f575086612234612ab1565b11158061223f575086155b1561232c57600061224e612ab1565b90508015801561225c575087155b156122805760065415612275575060065496508661227b565b5061232c565b612295565b8015801561228d57508715155b156122955750865b61229d612ae1565b8383815181106122a957fe5b60200260200101819052506122f884612197600760008787815181106122cb57fe5b6020026020010151602001518152602001908152602001600020600201548461238e90919063ffffffff16565b60008a8152600760205260409020600201549094508410612323575091945092508491506123369050565b5060010161221f565b5090935091508390505b9250925092565b600061234c8215156004610e59565b8261235957506000610791565b670de0b6b3a76400008381029061237c9085838161237357fe5b04146005610e59565b82818161238557fe5b04915050610791565b60008282026123b28415806123ab5750838583816123a857fe5b04145b6003610e59565b670de0b6b3a764000090049392505050565b60058054600101908190556123d7612c4c565b6040518060c001604052806007600089815260200190815260200160002060000160009054906101000a90046001600160a01b03166001600160a01b031681526020018781526020018681526020018381526020018581526020018481525090508060086000600760008a815260200190815260200160002060000160009054906101000a90046001600160a01b03166001600160a01b03166001600160a01b03168152602001908152602001600020600084815260200190815260200160002060008201518160000160006101000a8154816001600160a01b0302191690836001600160a01b031602179055506020820151816001015560408201518160020155606082015181600301556080820151816004015560a0820151816005015590505080600860006007600089815260200190815260200160002060000160009054906101000a90046001600160a01b03166001600160a01b03166001600160a01b03168152602001908152602001600020600084815260200190815260200160002060008201518160000160006101000a8154816001600160a01b0302191690836001600160a01b031602179055506020820151816001015560408201518160020155606082015181600301556080820151816004015560a082015181600501559050507f00000000000000000000000000000000000000000000000000000000000000006001600160a01b03167f7905ef94d8bcd34dab6c31415ecb3b825f4582c3a3d6753ccaac2c9bdacf7dc26007600089815260200190815260200160002060000160009054906101000a90046001600160a01b03166007600089815260200190815260200160002060000160009054906101000a90046001600160a01b0316846060015160405161266f93929190613012565b60405180910390a2612681838561233d565b600655505050505050565b62461bcd60e51b600090815260206004526007602452600a808404818106603090810160081b958390069590950190829004918206850160101b01602363ffffff0060e086901c160160181b0190930160c81b60445260e882901c90606490fd5b6126f5612c81565b6001838154811061270257fe5b90600052602060002090600202016040518060400160405290816000820154815260200160018201548152505090506001828154811061273e57fe5b90600052602060002090600202016001848154811061275957fe5b90600052602060002090600202016000820154816000015560018201548160010155905050806001838154811061278c57fe5b906000526020600020906002020160008201518160000155602082015181600101559050508260026000600186815481106127c357fe5b9060005260206000209060020201600101548152602001908152602001600020819055508160026000600185815481106127f957fe5b906000526020600020906002020160010154815260200190815260200160002081905550505050565b61282a612c81565b6003838154811061283757fe5b90600052602060002090600202016040518060400160405290816000820154815260200160018201548152505090506003828154811061287357fe5b90600052602060002090600202016003848154811061288e57fe5b9060005260206000209060020201600082015481600001556001820154816001015590505080600383815481106128c157fe5b906000526020600020906002020160008201518160000155602082015181600101559050508260046000600386815481106128f857fe5b9060005260206000209060020201600101548152602001908152602001600020819055508160046000600385815481106127f957fe5b6001546000906129505760405162461bcd60e51b8152600401610319906130e4565b600160008154811061295e57fe5b906000526020600020906002020160000154905090565b61297d612c81565b60015461299c5760405162461bcd60e51b8152600401610319906130e4565b6129a4612c81565b60016000815481106129b257fe5b60009182526020918290206040805180820190915260029092020180548252600190810154928201929092529054909150600019018015612a6c57600181815481106129fa57fe5b90600052602060002090600202016001600081548110612a1657fe5b60009182526020909120825460029092020190815560019182015490820155805480612a3e57fe5b6000828152602081206002600019909301928302018181556001018190559155612a6790611ca7565b612a96565b6001805480612a7757fe5b6000828152602081206002600019909301928302018181556001015590555b50602080820151600090815260029091526040812055905090565b600354600090612ad35760405162461bcd60e51b81526004016103199061303f565b600360008154811061295e57fe5b612ae9612c81565b600354612b085760405162461bcd60e51b81526004016103199061303f565b612b10612c81565b6003600081548110612b1e57fe5b600091825260209182902060408051808201909152600290920201805482526001015491810191909152600354909150600019018015612bd85760038181548110612b6557fe5b90600052602060002090600202016003600081548110612b8157fe5b6000918252602090912082546002909202019081556001918201549101556003805480612baa57fe5b6000828152602081206002600019909301928302018181556001018190559155612bd390611d7f565b612c02565b6003805480612be357fe5b6000828152602081206002600019909301928302018181556001015590555b50602080820151600090815260049091526040812055905090565b6040805160a0810182526000808252602082018190529091820190815260200160008152602001600081525090565b6040805160c081018252600080825260208201819052918101829052606081018290526080810182905260a081019190915290565b604080518082019091526000808252602082015290565b80356107918161336d565b600082601f830112612cb3578081fd5b813567ffffffffffffffff811115612cc9578182fd5b612cfa60207fffffffffffffffffffffffffffffffffffffffffffffffffffffffffffffffe0601f84011601613346565b9150808252836020828501011115612d1157600080fd5b8060208401602084013760009082016020015292915050565b80356002811061079157600080fd5b6000610120808385031215612d4c578182fd5b612d5581613346565b915050612d628383612d2a565b8152612d718360208401612c98565b6020820152612d838360408401612c98565b6040820152606082013560608201526080820135608082015260a082013560a0820152612db38360c08401612c98565b60c0820152612dc58360e08401612c98565b60e08201526101008083013567ffffffffffffffff811115612de657600080fd5b612df285828601612ca3565b82840152505092915050565b600060208284031215612e0f578081fd5b8135610f3f8161336d565b60008060408385031215612e2c578081fd5b8235612e378161336d565b946020939093013593505050565b600060208284031215612e56578081fd5b5035919050565b600060208284031215612e6e578081fd5b5051919050565b60008060408385031215612e87578182fd5b823591506020830135612e998161336d565b809150509250929050565b600080600060608486031215612eb8578081fd5b505081359360208301359350604090920135919050565b600080600060608486031215612ee3578283fd5b8335925060208401359150604084013567ffffffffffffffff811115612f07578182fd5b612f1386828701612d39565b9150509250925092565b600080600060608486031215612eb8578283fd5b6000808284036060811215612f44578283fd5b833567ffffffffffffffff811115612f5a578384fd5b612f6686828701612d39565b93505060407fffffffffffffffffffffffffffffffffffffffffffffffffffffffffffffffe082011215612f98578182fd5b50612fa36040613346565b602084013560038110612fb4578283fd5b81526040939093013560208401525092909150565b60609290921b7fffffffffffffffffffffffffffffffffffffffff000000000000000000000000168252601482015260340190565b6001600160a01b0391909116815260200190565b6001600160a01b039384168152919092166020820152604081019190915260600190565b90815260200190565b60208082526017908201527f53656c6c204f72646572626f6f6b20697320656d707479000000000000000000604082015260600190565b60208082526013908201527f427579204f72646572206e6f7420666f756e6400000000000000000000000000604082015260600190565b60208082526012908201527f496e76616c6964206f7264657220747970650000000000000000000000000000604082015260600190565b60208082526016908201527f427579204f72646572626f6f6b20697320656d70747900000000000000000000604082015260600190565b60208082526015908201527f54726164656420616d6f756e74206973207a65726f0000000000000000000000604082015260600190565b6020808252601d908201527f556e617574686f72697a65642061636365737320746f206f7264657273000000604082015260600190565b60208082526014908201527f53656c6c204f72646572206e6f7420666f756e64000000000000000000000000604082015260600190565b60208082526013908201527f556e617574686f72697a65642061636365737300000000000000000000000000604082015260600190565b6020808252601b908201527f53656e646572206973206e6f74206f726465722063726561746f720000000000604082015260600190565b60208082526017908201527f4f7264657220697320616c72656164792066696c6c6564000000000000000000604082015260600190565b6020808252601d908201527f556e617574686f72697a65642061636365737320746f20747261646573000000604082015260600190565b600060a0820190506001600160a01b03808451168352806020850151166020840152506040830151600381106132ce57fe5b60408301526060830151600581106132e257fe5b806060840152506080830151608083015292915050565b600060c0820190506001600160a01b0383511682526020830151602083015260408301516040830152606083015160608301526080830151608083015260a083015160a083015292915050565b60405181810167ffffffffffffffff8111828210171561336557600080fd5b604052919050565b6001600160a01b0381168114610e5657600080fdfea2646970667358221220b18579facd7347855de6f53b46f390c274d174391b09102afe9ed9765fa9e88764736f6c63430007010033",
  "linkReferences": {},
  "deployedLinkReferences": {}
}