{
  "_format": "hh-sol-artifact-1",
  "contractName": "SecondaryIssuePoolFactory",
  "sourceName": "contracts/SecondaryIssuePoolFactory.sol",
  "abi": [
    {
      "inputs": [
        {
          "internalType": "contract IVault",
          "name": "vault",
          "type": "address"
        },
        {
          "internalType": "contract IProtocolFeePercentagesProvider",
          "name": "protocolFeeProvider",
          "type": "address"
        }
      ],
      "stateMutability": "nonpayable",
      "type": "constructor"
    },
    {
      "anonymous": false,
      "inputs": [],
      "name": "FactoryDisabled",
      "type": "event"
    },
    {
      "anonymous": false,
      "inputs": [
        {
          "indexed": true,
          "internalType": "address",
          "name": "pool",
          "type": "address"
        }
      ],
      "name": "PoolCreated",
      "type": "event"
    },
    {
      "inputs": [
        {
          "internalType": "string",
          "name": "name",
          "type": "string"
        },
        {
          "internalType": "string",
          "name": "symbol",
          "type": "string"
        },
        {
          "internalType": "address",
          "name": "security",
          "type": "address"
        },
        {
          "internalType": "address",
          "name": "currency",
          "type": "address"
        },
        {
          "internalType": "uint256",
          "name": "minOrderSize",
          "type": "uint256"
        },
        {
          "internalType": "uint256",
          "name": "tradeFeePercentage",
          "type": "uint256"
        }
      ],
      "name": "create",
      "outputs": [
        {
          "internalType": "address",
          "name": "",
          "type": "address"
        }
      ],
      "stateMutability": "nonpayable",
      "type": "function"
    },
    {
      "inputs": [],
      "name": "disable",
      "outputs": [],
      "stateMutability": "nonpayable",
      "type": "function"
    },
    {
      "inputs": [
        {
          "internalType": "bytes4",
          "name": "selector",
          "type": "bytes4"
        }
      ],
      "name": "getActionId",
      "outputs": [
        {
          "internalType": "bytes32",
          "name": "",
          "type": "bytes32"
        }
      ],
      "stateMutability": "view",
      "type": "function"
    },
    {
      "inputs": [],
      "name": "getAuthorizer",
      "outputs": [
        {
          "internalType": "contract IAuthorizer",
          "name": "",
          "type": "address"
        }
      ],
      "stateMutability": "view",
      "type": "function"
    },
    {
      "inputs": [],
      "name": "getCreationCode",
      "outputs": [
        {
          "internalType": "bytes",
          "name": "",
          "type": "bytes"
        }
      ],
      "stateMutability": "view",
      "type": "function"
    },
    {
      "inputs": [],
      "name": "getCreationCodeContracts",
      "outputs": [
        {
          "internalType": "address",
          "name": "contractA",
          "type": "address"
        },
        {
          "internalType": "address",
          "name": "contractB",
          "type": "address"
        }
      ],
      "stateMutability": "view",
      "type": "function"
    },
    {
      "inputs": [],
      "name": "getPauseConfiguration",
      "outputs": [
        {
          "internalType": "uint256",
          "name": "pauseWindowDuration",
          "type": "uint256"
        },
        {
          "internalType": "uint256",
          "name": "bufferPeriodDuration",
          "type": "uint256"
        }
      ],
      "stateMutability": "view",
      "type": "function"
    },
    {
      "inputs": [],
      "name": "getProtocolFeePercentagesProvider",
      "outputs": [
        {
          "internalType": "contract IProtocolFeePercentagesProvider",
          "name": "",
          "type": "address"
        }
      ],
      "stateMutability": "view",
      "type": "function"
    },
    {
      "inputs": [],
      "name": "getVault",
      "outputs": [
        {
          "internalType": "contract IVault",
          "name": "",
          "type": "address"
        }
      ],
      "stateMutability": "view",
      "type": "function"
    },
    {
      "inputs": [],
      "name": "isDisabled",
      "outputs": [
        {
          "internalType": "bool",
          "name": "",
          "type": "bool"
        }
      ],
      "stateMutability": "view",
      "type": "function"
    },
    {
      "inputs": [
        {
          "internalType": "address",
          "name": "pool",
          "type": "address"
        }
      ],
      "name": "isPoolFromFactory",
      "outputs": [
        {
          "internalType": "bool",
          "name": "",
          "type": "bool"
        }
      ],
      "stateMutability": "view",
      "type": "function"
    }
  ],
  "bytecode": "0x6101806040523480156200001257600080fd5b5060405162008fa038038062008fa08339810160408190526200003591620001fc565b8181604051806020016200004990620001ee565b601f1982820381018352601f90910116604052805183903090839060006002820460a081905280830360e08190528185529091508362000095816200010f602090811b6200043717901c565b60601b6001600160601b0319166080528285018051838252620000c4826200010f602090811b6200043717901c565b6001600160601b0319606091821b811660c05296909352905261010095909552505092821b831661012052509290921b90911661014052505050426276a70001610160525062000250565b80517f602038038060206000396000f3fefefefefefefefefefefefefefefefefefefe808352600091602081018484f090845291506200015d6001600160a01b03831615156101ac62000163565b50919050565b816200017457620001748162000178565b5050565b6200018a816210905360ea1b6200018d565b50565b62461bcd60e51b600090815260206004526007602452600a808404818106603090810160081b958390069590950190829004918206850160101b01602363ffffff0060e086901c160160181b0190930160c81b60445260e882901c90606490fd5b6182168062000d8a83390190565b600080604083850312156200020f578182fd5b82516200021c816200023a565b60208401519092506200022f816200023a565b809150509250929050565b6001600160a01b03811681146200018a57600080fd5b60805160601c60a05160c05160601c60e051610100516101205160601c6101405160601c61016051610ac1620002c9600039806101ec52806102155250806102c052508061039b52508061034b5250806104915250806101c3528061050d5250806104b25250806101a252806104e95250610ac16000f3fe608060405234801561001057600080fd5b50600436106100a85760003560e01c80636c57f5a9116100715780636c57f5a914610121578063739238d61461012957806374dcc7a41461013e578063851c1bb3146101515780638d928af814610171578063aaabadc514610179576100a8565b8062c194db146100ad578063174481fa146100cb5780632da47c40146100e15780632f2770db146100f75780636634b75314610101575b600080fd5b6100b5610181565b6040516100c2919061098e565b60405180910390f35b6100d36101a0565b6040516100c2929190610941565b6100e96101e6565b6040516100c2929190610a68565b6100ff610250565b005b61011461010f3660046107c7565b610297565b6040516100c2919061095b565b6101146102b5565b6101316102be565b6040516100c2919061092d565b61013161014c366004610847565b6102e2565b61016461015f366004610803565b610347565b6040516100c29190610966565b610131610399565b6101316103bd565b606061019b60405180602001604052806000815250610489565b905090565b7f00000000000000000000000000000000000000000000000000000000000000007f00000000000000000000000000000000000000000000000000000000000000009091565b600080427f000000000000000000000000000000000000000000000000000000000000000081101561024257807f000000000000000000000000000000000000000000000000000000000000000003925062278d00915061024b565b60009250600091505b509091565b610258610562565b610260610593565b6001805460ff1916811790556040517f432acbfd662dbb5d8b378384a67159b47ca9d0f1b79f97cf64cf8585fa362d5090600090a1565b6001600160a01b031660009081526020819052604090205460ff1690565b60015460ff1690565b7f000000000000000000000000000000000000000000000000000000000000000090565b60008060006102ef6101e6565b915091506103386102fe610399565b8c8c8c8c8c8c8c8c8b8b336040516020016103249c9b9a999897969594939291906109e1565b6040516020818303038152906040526105a8565b9b9a5050505050505050505050565b60007f00000000000000000000000000000000000000000000000000000000000000008260405160200161037c929190610915565b604051602081830303815290604052805190602001209050919050565b7f000000000000000000000000000000000000000000000000000000000000000090565b60006103c7610399565b6001600160a01b031663aaabadc56040518163ffffffff1660e01b815260040160206040518083038186803b1580156103ff57600080fd5b505afa158015610413573d6000803e3d6000fd5b505050506040513d601f19601f8201168201806040525081019061019b919061082b565b80517f602038038060206000396000f3fefefefefefefefefefefefefefefefefefefe808352600091602081018484f090845291506104836001600160a01b03831615156101ac610611565b50919050565b8051604080517f00000000000000000000000000000000000000000000000000000000000000007f0000000000000000000000000000000000000000000000000000000000000000818101858101848101602090810190965280855293957f00000000000000000000000000000000000000000000000000000000000000009592947f000000000000000000000000000000000000000000000000000000000000000094938801866000828a3c846000888301883c5060208981019089850101610554818386610623565b505050505050505050919050565b60006105796000356001600160e01b031916610347565b90506105906105888233610661565b610191610611565b50565b6105a661059e6102b5565b1560d3610611565b565b60006105b2610593565b60006105bd836106f1565b6001600160a01b038116600081815260208190526040808220805460ff191660011790555192935090917f83a48fbcfc991335314e74d0496aab6a1987e992ddc85dddbcc4d6dd6ef2e9fc9190a292915050565b8161061f5761061f81610725565b5050565b5b60208110610643578151835260209283019290910190601f1901610624565b905182516020929092036101000a6000190180199091169116179052565b600061066b6103bd565b6001600160a01b0316639be2a8848484306040518463ffffffff1660e01b815260040161069a9392919061096f565b60206040518083038186803b1580156106b257600080fd5b505afa1580156106c6573d6000803e3d6000fd5b505050506040513d601f19601f820116820180604052508101906106ea91906107e3565b9392505050565b600060606106fe83610489565b905060008151602083016000f090506001600160a01b0381166106ea573d6000803e3d6000fd5b62461bcd60e51b600090815260206004526007602452600a808304818106603090810160081b83860601918390049283060160101b016642414c230000300160c81b604452610590916210905360ea1b906242414c90606490fd5b60008083601f840112610791578182fd5b50813567ffffffffffffffff8111156107a8578182fd5b6020830191508360208285010111156107c057600080fd5b9250929050565b6000602082840312156107d8578081fd5b81356106ea81610a76565b6000602082840312156107f4578081fd5b815180151581146106ea578182fd5b600060208284031215610814578081fd5b81356001600160e01b0319811681146106ea578182fd5b60006020828403121561083c578081fd5b81516106ea81610a76565b60008060008060008060008060c0898b031215610862578384fd5b883567ffffffffffffffff80821115610879578586fd5b6108858c838d01610780565b909a50985060208b013591508082111561089d578586fd5b506108aa8b828c01610780565b90975095505060408901356108be81610a76565b935060608901356108ce81610a76565b979a969950949793969295929450505060808201359160a0013590565b60008284528282602086013780602084860101526020601f19601f85011685010190509392505050565b9182526001600160e01b031916602082015260240190565b6001600160a01b0391909116815260200190565b6001600160a01b0392831681529116602082015260400190565b901515815260200190565b90815260200190565b9283526001600160a01b03918216602084015216604082015260600190565b6000602080835283518082850152825b818110156109ba5785810183015185820160400152820161099e565b818111156109cb5783604083870101525b50601f01601f1916929092016040019392505050565b6001600160a01b038d16815261014060208201819052600090610a079083018d8f6108eb565b8281036040840152610a1a818c8e6108eb565b6001600160a01b039a8b166060850152988a166080840152505060a081019590955260c085019390935260e08401919091526101008301529092166101209092019190915295945050505050565b918252602082015260400190565b6001600160a01b038116811461059057600080fdfea2646970667358221220dc33555a09bbc98bc802162ca3b02639b3e5ed5fcaa995971216ec98b6e15e0964736f6c634300070100336102e06040523480156200001257600080fd5b506040516200821638038062008216833981016040819052620000359162000b88565b8960008a8a620000478b8b30620004d1565b6040805160038082526080820190925290602082016060803683370190505089898989828289898d85336001600160a01b031660001b8480604051806040016040528060018152602001603160f81b81525087878160039080519060200190620000b3929190620009f2565b508051620000c9906004906020840190620009f2565b50506005805460ff19166012179055508151602092830120608052805191012060a052507f8b73c3c69bb8fe3d512ecc4cf759cc79239f7b179b0ffacaa9a75d522b39400f60c05260e0526001600160601b0319606091821b81166101005291901b1661012052506200014790506276a700831115610194620005a0565b6200015b62278d00821115610195620005a0565b42909101610140819052016101605285516200017d906002111560c8620005a0565b620001976200018b620005b5565b8751111560c9620005a0565b620001ad86620005ba60201b62001e821760201c565b620001b884620005c6565b6040516309b2760f60e01b81526000906001600160a01b038c16906309b2760f90620001e9908d9060040162000d51565b602060405180830381600087803b1580156200020457600080fd5b505af115801562000219573d6000803e3d6000fd5b505050506040513d601f19601f820116820180604052508101906200023f919062000b50565b604051633354e3e960e11b81529091506001600160a01b038c16906366a9c7d290620002749084908b908b9060040162000cb5565b600060405180830381600087803b1580156200028f57600080fd5b505af1158015620002a4573d6000803e3d6000fd5b505050508061018081815250508a6001600160a01b031663d2946c2b6040518163ffffffff1660e01b815260040160206040518083038186803b158015620002eb57600080fd5b505afa15801562000300573d6000803e3d6000fd5b505050506040513d601f19601f8201168201806040525081019062000326919062000b69565b6001600160a01b03166101a0816001600160a01b031660601b815250505050505050505050505050866001600160a01b03166101c0816001600160a01b031660601b81525050856001600160a01b03166101e0816001600160a01b031660601b8152505089600a60006101000a8154816001600160a01b0302191690836001600160a01b031602179055506000806000620003c98a8a306200065a60201b60201c565b6102608190526102808390526102a082905291945092509050620003ed8a62000750565b61020052620003fc8962000750565b610220526102408890526001600160601b0319606085901b166102c05260405184908b908b9030906200042f9062000a77565b6200043e949392919062000c8a565b604051809103906000f0801580156200045b573d6000803e3d6000fd5b50600980546001600160a01b0319166001600160a01b0392831617908190556040518c8316927f32e7b5e5c88bb4ec1dca71e1e00fc2444e236858d09faa9ddbb9d8c710549ecb92620004b6928d928f9216908a9062000d6f565b60405180910390a25050505050505050505050505062000db8565b606060008080620004e48787876200065a565b60408051600380825260808201909252939650919450925060208201606080368337019050509350868484815181106200051a57fe5b60200260200101906001600160a01b031690816001600160a01b031681525050858483815181106200054857fe5b60200260200101906001600160a01b031690816001600160a01b031681525050848482815181106200057657fe5b60200260200101906001600160a01b031690816001600160a01b0316815250505050509392505050565b81620005b157620005b18162000824565b5050565b600390565b80620005b18162000839565b620005df620005d4620008c5565b82101560cb620005a0565b620005f8620005ed620008ce565b82111560ca620005a0565b6200061a8160c0603f600854620008da60201b62001e8c17909392919060201c565b6008556040517fa9ba3ffe0b6c366b81232caab38605a0699ad5398d6cce76f91ee809e322dafc906200064f90839062000d66565b60405180910390a150565b6000806000846001600160a01b0316866001600160a01b03161015620006e357836001600160a01b0316856001600160a01b03161015620006a657506000915060019050600262000747565b836001600160a01b0316866001600160a01b03161015620006d257506000915060029050600162000747565b506001915060029050600062000747565b846001600160a01b0316846001600160a01b031610156200070f57506002915060019050600062000747565b856001600160a01b0316846001600160a01b031610156200073b57506002915060009050600162000747565b50600191506000905060025b93509350939050565b60006001600160a01b038216301415620007745750670de0b6b3a76400006200081f565b6000826001600160a01b031663313ce5676040518163ffffffff1660e01b815260040160206040518083038186803b158015620007b057600080fd5b505afa158015620007c5573d6000803e3d6000fd5b505050506040513d601f19601f82011682018060405250810190620007eb919062000c67565b60ff16905060006200080a601283620008ff60201b62001eaf1760201c565b905080600a0a670de0b6b3a764000002925050505b919050565b62000836816210905360ea1b6200091c565b50565b6002815110156200084a5762000836565b6000816000815181106200085a57fe5b602002602001015190506000600190505b8251811015620008c05760008382815181106200088457fe5b60200260200101519050620008b5816001600160a01b0316846001600160a01b0316106065620005a060201b60201c565b91506001016200086b565b505050565b64e8d4a5100090565b67016345785d8a000090565b6000620008e98484846200097d565b506001901b60001901811b1992909216911b1790565b600062000911838311156001620005a0565b508082035b92915050565b62461bcd60e51b600090815260206004526007602452600a808404818106603090810160081b958390069590950190829004918206850160101b01602363ffffff0060e086901c160160181b0190930160c81b60445260e882901c90606490fd5b6200098e61010083106064620005a0565b620009c760018210158015620009bf5750620009bb60ff8461010003620009d860201b62001ec51760201c565b8211155b6064620005a0565b620008c083821c156101b4620005a0565b6000818310620009e95781620009eb565b825b9392505050565b828054600181600116156101000203166002900490600052602060002090601f016020900481019282601f1062000a3557805160ff191683800117855562000a65565b8280016001018555821562000a65579182015b8281111562000a6557825182559160200191906001019062000a48565b5062000a7392915062000a85565b5090565b6132618062004fb583390190565b5b8082111562000a73576000815560010162000a86565b8051620009168162000da2565b600082601f83011262000aba578081fd5b81516001600160401b038082111562000ad1578283fd5b6040516020601f8401601f191682018101838111838210171562000af3578586fd5b8060405250819450838252868185880101111562000b1057600080fd5b600092505b8383101562000b34578583018101518284018201529182019162000b15565b8383111562000b465760008185840101525b5050505092915050565b60006020828403121562000b62578081fd5b5051919050565b60006020828403121562000b7b578081fd5b8151620009eb8162000da2565b6000806000806000806000806000806101408b8d03121562000ba8578586fd5b62000bb48c8c62000a9c565b60208c0151909a506001600160401b038082111562000bd1578788fd5b62000bdf8e838f0162000aa9565b9a5060408d015191508082111562000bf5578788fd5b5062000c048d828e0162000aa9565b98505062000c168c60608d0162000a9c565b965062000c278c60808d0162000a9c565b955060a08b0151945060c08b0151935060e08b015192506101008b0151915062000c568c6101208d0162000a9c565b90509295989b9194979a5092959850565b60006020828403121562000c79578081fd5b815160ff81168114620009eb578182fd5b6001600160a01b03948516815292841660208401529083166040830152909116606082015260800190565b60006060820185835260206060818501528186518084526080860191508288019350845b8181101562000d015762000cee855162000d96565b8352938301939183019160010162000cd9565b505084810360408601528551808252908201925081860190845b8181101562000d435762000d30835162000d96565b8552938301939183019160010162000d1b565b509298975050505050505050565b602081016003831062000d6057fe5b91905290565b90815260200190565b9384526001600160a01b039283166020850152908216604084015216606082015260800190565b6001600160a01b031690565b6001600160a01b03811681146200083657600080fd5b60805160a05160c05160e0516101005160601c6101205160601c6101405161016051610180516101a05160601c6101c05160601c6101e05160601c61020051610220516102405161026051610280516102a0516102c05160601c6140a262000f13600039806129b1525080611fc55280612a1d5280612a77525080611f5f52508061130352806114c45280611501528061153f528061201a5250806113cc52806118ab525080610e5b5280611fed5280612a50525080610e275280611f87525080610582528061061852806109a15280610a325280610ddc5280610f8c528061144f52806119495250806105c15280610658528061083252806109185280610a965280610b045280610f4d528061141052806117e5525080611c5c5250806118385250806122165250806121f2525080611b44525080611b20525080611aaa525080612b08525080612b4a525080612b2952506140a26000f3fe608060405234801561001057600080fd5b50600436106102535760003560e01c806370a0823111610146578063a457c2d7116100c3578063d2946c2b11610087578063d2946c2b14610499578063d505accf146104a1578063d5c096c4146104b4578063dd62ed3e146104c7578063ed24911d146104da578063fd19cac8146104e257610253565b8063a457c2d71461045b578063a9059cbb1461046e578063aaabadc514610481578063b35056b814610489578063b7b814fc1461049157610253565b806387ec68171161010a57806387ec68171461041d578063893d20e8146104305780638d928af81461043857806390193b7c1461044057806395d89b411461045357610253565b806370a08231146103bb57806374f3b009146103ce5780637ecebe00146103ef5780638456cb5914610402578063851c1bb31461040a57610253565b806338e9922e116101d457806350dd6ed91161019857806350dd6ed91461036f57806354a844ba1461038257806355c676281461038a5780636028bfd4146103925780636945c1fd146103b357610253565b806338e9922e1461032f57806338fff2d014610344578063395093511461034c5780633f4ba83a1461035f5780634d6d0fd01461036757610253565b80631dd746ea1161021b5780631dd746ea146102d557806323b872dd146102ea5780632541897f146102fd578063313ce567146103125780633644e5151461032757610253565b806301ec954a1461025857806306fdde0314610281578063095ea7b31461029657806318160ddd146102b65780631c0de051146102be575b600080fd5b61026b61026636600461379e565b6104ea565b6040516102789190613c76565b60405180910390f35b610289611684565b6040516102789190613dba565b6102a96102a43660046134f0565b61171a565b6040516102789190613c53565b61026b611731565b6102c6611737565b60405161027893929190613c5e565b6102dd611760565b6040516102789190613c12565b6102a96102f8366004613440565b61176f565b6103056117e3565b6040516102789190613ba4565b61031a611807565b6040516102789190613fc6565b61026b611810565b61034261033d36600461399d565b61181a565b005b61026b611836565b6102a961035a3660046134f0565b61185a565b610342611895565b61026b6118a9565b61034261037d36600461365d565b6118cd565b6103426118eb565b61026b6118fd565b6103a56103a0366004613553565b611910565b604051610278929190613fad565b610305611947565b61026b6103c93660046133ec565b61196b565b6103e16103dc366004613553565b611986565b604051610278929190613c25565b61026b6103fd3660046133ec565b611a89565b610342611a94565b61026b610418366004613619565b611aa6565b6103a561042b366004613553565b611af8565b610305611b1e565b610305611b42565b61026b61044e3660046133ec565b611b66565b610289611b81565b6102a96104693660046134f0565b611be2565b6102a961047c3660046134f0565b611c20565b610305611c2d565b6102a9611c37565b610342611c48565b610305611c5a565b6103426104af366004613480565b611c7e565b6103e16104c2366004613553565b611d09565b61026b6104d5366004613408565b611e2c565b61026b611e69565b610305611e73565b600084608001516105176104fc611b42565b6001600160a01b0316336001600160a01b03161460cd611edd565b61052c610522611836565b82146101f4611edd565b610534611eeb565b60008651600181111561054357fe5b148061055b575060018651600181111561055957fe5b145b6105805760405162461bcd60e51b815260040161057790613e77565b60405180910390fd5b7f00000000000000000000000000000000000000000000000000000000000000006001600160a01b031686604001516001600160a01b031614806105f957507f00000000000000000000000000000000000000000000000000000000000000006001600160a01b031686604001516001600160a01b0316145b80610610575060408601516001600160a01b031630145b8061065057507f00000000000000000000000000000000000000000000000000000000000000006001600160a01b031686602001516001600160a01b0316145b8061069057507f00000000000000000000000000000000000000000000000000000000000000006001600160a01b031686602001516001600160a01b0316145b806106a7575060208601516001600160a01b031630145b6106c35760405162461bcd60e51b815260040161057790613dcd565b60606106cd611efe565b90506106d98682612071565b6106e16132b3565b6000808080808c5160018111156106f457fe5b14156107255761071b8c60600151878c8151811061070e57fe5b60200260200101516120e0565b60608d0152610754565b60018c51600181111561073457fe5b14156107545761074e8c60600151878b8151811061070e57fe5b60608d01525b6101008c015151156113b3578b610100015180602001905181019061077991906135f6565b909450925064131a5b5a5d60da1b915083610f17576107966132ca565b60095460c08e015160405163ca142f7560e01b81526001600160a01b039092169163ca142f75916107cb918890600401613bf9565b60c06040518083038186803b1580156107e357600080fd5b505afa1580156107f7573d6000803e3d6000fd5b505050506040513d601f19601f8201168201806040525081019061081b9190613937565b60095460c08f015182519293506001600160a01b037f000000000000000000000000000000000000000000000000000000000000000081169392811692635778472a92908216911614610872578360400151610878565b83602001515b6040518263ffffffff1660e01b81526004016108949190613c76565b60a06040518083038186803b1580156108ac57600080fd5b505afa1580156108c0573d6000803e3d6000fd5b505050506040513d601f19601f820116820180604052508101906108e491906138bd565b602001516001600160a01b031614610907576763757272656e637960c01b610914565b67736563757269747960c01b5b92507f00000000000000000000000000000000000000000000000000000000000000006001600160a01b03168d604001516001600160a01b0316148015610967575060008d51600181111561096557fe5b145b1561099f57806080015191508c606001518160a001511461099a5760405162461bcd60e51b815260040161057790613eed565b610a2e565b7f00000000000000000000000000000000000000000000000000000000000000006001600160a01b03168d604001516001600160a01b03161480156109f0575060008d5160018111156109ee57fe5b145b15610a23578060a0015191508c6060015181608001511461099a5760405162461bcd60e51b815260040161057790613e9d565b610a2e6101636120ec565b60007f00000000000000000000000000000000000000000000000000000000000000006001600160a01b03168e604001516001600160a01b0316148015610a81575060208e01516001600160a01b031630145b15610a9457506314d95b1b60e21b610b02565b7f00000000000000000000000000000000000000000000000000000000000000006001600160a01b03168e604001516001600160a01b0316148015610ae5575060208e01516001600160a01b031630145b15610af757506242757960e81b610b02565b610b026101636120ec565b7f00000000000000000000000000000000000000000000000000000000000000006001600160a01b03167fd6a806535ec4f172139ede2e9d6bbbe20957ca8a454fd40c9747fe139efe42478f60c001516001600160a01b031684600001516001600160a01b031614610b78578360400151610b7e565b83602001515b67736563757269747960c01b8714610c19576009546040808701519051632bbc239560e11b81526001600160a01b0390921691635778472a91610bc391600401613c76565b60a06040518083038186803b158015610bdb57600080fd5b505afa158015610bef573d6000803e3d6000fd5b505050506040513d601f19601f82011682018060405250810190610c1391906138bd565b51610c9e565b6009546020860151604051632bbc239560e11b81526001600160a01b0390921691635778472a91610c4c91600401613c76565b60a06040518083038186803b158015610c6457600080fd5b505afa158015610c78573d6000803e3d6000fd5b505050506040513d601f19601f82011682018060405250810190610c9c91906138bd565b515b6763757272656e637960c01b8814610d39576009546040808801519051632bbc239560e11b81526001600160a01b0390921691635778472a91610ce391600401613c76565b60a06040518083038186803b158015610cfb57600080fd5b505afa158015610d0f573d6000803e3d6000fd5b505050506040513d601f19601f82011682018060405250810190610d3391906138bd565b51610dbe565b6009546020870151604051632bbc239560e11b81526001600160a01b0390921691635778472a91610d6c91600401613c76565b60a06040518083038186803b158015610d8457600080fd5b505afa158015610d98573d6000803e3d6000fd5b505050506040513d601f19601f82011682018060405250810190610dbc91906138bd565b515b85610dda88608001518960a001516120fc90919063ffffffff16565b7f00000000000000000000000000000000000000000000000000000000000000008a8a60600151604051610e15989796959493929190613cb5565b60405180910390a2610e4b82608001517f000000000000000000000000000000000000000000000000000000000000000061214d565b608083015260a0820151610e7f907f000000000000000000000000000000000000000000000000000000000000000061214d565b60a083015260095460c08f01516040516335ca73db60e21b81526001600160a01b039092169163d729cf6c91610eb9918990600401613bf9565b600060405180830381600087803b158015610ed357600080fd5b505af1158015610ee7573d6000803e3d6000fd5b50505050610f0883898d81518110610efb57fe5b602002602001015161214d565b9950505050505050505061167b565b8184148015610f2557508215155b15610f465760408051808201909152806001815260200184905294506113ae565b82611114577f00000000000000000000000000000000000000000000000000000000000000006001600160a01b03168c604001516001600160a01b03161480610fc457507f00000000000000000000000000000000000000000000000000000000000000006001600160a01b03168c604001516001600160a01b0316145b8015610fdc575060208c01516001600160a01b031630145b8015610ff4575060008c516001811115610ff257fe5b145b156111045760095460c08d0151604051636b0d76bd60e11b81526001600160a01b039092169163d61aed7a9161102f91889190600401613c7f565b602060405180830381600087803b15801561104957600080fd5b505af115801561105d573d6000803e3d6000fd5b505050506040513d601f19601f82011682018060405250810190611081919061353b565b90508b6060015181146110a65760405162461bcd60e51b815260040161057790613e34565b60008051602061404d8339815191528c60c001518d602001518e604001518f6060015187428a6040516110df9796959493929190613bb8565b60405180910390a16110f781878b81518110610efb57fe5b975050505050505061167b565b61110f6101636120ec565b6113ae565b82156113a35760208c01516001600160a01b031630148015611142575060008c51600181111561114057fe5b145b1561122557600960009054906101000a90046001600160a01b03166001600160a01b03166346764e5e85858f6040518463ffffffff1660e01b815260040161118c93929190613d7d565b602060405180830381600087803b1580156111a657600080fd5b505af11580156111ba573d6000803e3d6000fd5b505050506040513d601f19601f820116820180604052508101906111de919061353b565b90506111ee818d60600151611eaf565b905060008051602061404d8339815191528c60c001518d604001518e602001518487428a6040516110df9796959493929190613bb8565b60408c01516001600160a01b03163014801561124d575060008c51600181111561124b57fe5b145b1561110457600960009054906101000a90046001600160a01b03166001600160a01b03166346764e5e85858f6040518463ffffffff1660e01b815260040161129793929190613d7d565b602060405180830381600087803b1580156112b157600080fd5b505af11580156112c5573d6000803e3d6000fd5b505050506040513d601f19601f820116820180604052508101906112e9919061353b565b90506112f98c6060015182612159565b90508b606001518b7f00000000000000000000000000000000000000000000000000000000000000008151811061132c57fe5b602002602001015110156113525760405162461bcd60e51b815260040161057790613f3d565b60008051602061404d8339815191528c60c001518d602001518e604001518487428a6040516113879796959493929190613bb8565b60405180910390a16110f78c60600151878b81518110610efb57fe5b6113ae6101636120ec565b6113ca565b604080518082019091526000808252602082015294505b7f00000000000000000000000000000000000000000000000000000000000000008c60600151101561140e5760405162461bcd60e51b815260040161057790613dfd565b7f00000000000000000000000000000000000000000000000000000000000000006001600160a01b03168c602001516001600160a01b0316148061148757507f00000000000000000000000000000000000000000000000000000000000000006001600160a01b03168c602001516001600160a01b0316145b801561149f575060408c01516001600160a01b031630145b80156114b7575060008c5160018111156114b557fe5b145b1561160e578b606001518b7f0000000000000000000000000000000000000000000000000000000000000000815181106114ed57fe5b602002602001015111156115fe5761153c8b7f00000000000000000000000000000000000000000000000000000000000000008151811061152a57fe5b60200260200101518d60600151611eaf565b8b7f00000000000000000000000000000000000000000000000000000000000000008151811061156857fe5b6020908102919091010152600954604051635487e8cf60e01b81526001600160a01b0390911690635487e8cf906115a5908f908990600401613f74565b602060405180830381600087803b1580156115bf57600080fd5b505af11580156115d3573d6000803e3d6000fd5b505050506040513d601f19601f820116820180604052508101906115f7919061353b565b9150611609565b6116096102016120ec565b611619565b6116196101636120ec565b60008051602061404d8339815191528c60c001518d602001518e604001518f60600151896020015142886040516116569796959493929190613bb8565b60405180910390a16116728c60600151878b81518110610efb57fe5b97505050505050505b50949350505050565b60038054604080516020601f60026000196101006001881615020190951694909404938401819004810282018101909252828152606093909290918301828280156117105780601f106116e557610100808354040283529160200191611710565b820191906000526020600020905b8154815290600101906020018083116116f357829003601f168201915b5050505050905090565b600061172733848461216b565b5060015b92915050565b60025490565b60008060006117446121d3565b15925061174f6121f0565b9150611759612214565b9050909192565b606061176a611efe565b905090565b60008061177c8533611e2c565b90506117a0336001600160a01b03871614806117985750838210155b61019e611edd565b6117ab858585612238565b336001600160a01b038616148015906117c657506000198114155b156117d8576117d8853385840361216b565b506001949350505050565b7f000000000000000000000000000000000000000000000000000000000000000090565b60055460ff1690565b600061176a611e69565b611822612318565b61182a611eeb565b61183381612346565b50565b7f000000000000000000000000000000000000000000000000000000000000000090565b3360008181526001602090815260408083206001600160a01b038716845290915281205490916117279185906118909086612159565b61216b565b61189d612318565b6118a760006123bf565b565b7f000000000000000000000000000000000000000000000000000000000000000090565b6118d5612318565b6118dd611eeb565b6118e78282612432565b5050565b6118f3612318565b6118a76001612527565b60085460009061176a9060c0603f61257e565b60006060611926865161192161258d565b612592565b61193b8989898989898961259f6125f161265a565b97509795505050505050565b7f000000000000000000000000000000000000000000000000000000000000000090565b6001600160a01b031660009081526020819052604090205490565b606080886119956104fc611b42565b6119a0610522611836565b606060006119ad86612784565b156119d5576119ba6127b3565b6119cc896119c6611731565b886127c6565b92509050611a27565b6119dd6127f2565b60606119e7611efe565b90506119f38a82612071565b611a178d8d8d8d8d611a03611c37565b611a0d578d611a10565b60005b878e61259f565b93509150611a2583826125f1565b505b611a318b826127fa565b81895167ffffffffffffffff81118015611a4a57600080fd5b50604051908082528060200260200182016040528015611a74578160200160208202803683370190505b509450945050505b5097509795505050505050565b600061172b82611b66565b611a9c612318565b6118a760016123bf565b60007f000000000000000000000000000000000000000000000000000000000000000082604051602001611adb929190613b61565b604051602081830303815290604052805190602001209050919050565b60006060611b09865161192161258d565b61193b8989898989898961280461282061265a565b7f000000000000000000000000000000000000000000000000000000000000000090565b7f000000000000000000000000000000000000000000000000000000000000000090565b6001600160a01b031660009081526006602052604090205490565b60048054604080516020601f60026000196101006001881615020190951694909404938401819004810282018101909252828152606093909290918301828280156117105780601f106116e557610100808354040283529160200191611710565b600080611bef3385611e2c565b9050808310611c0957611c043385600061216b565b611c16565b611c16338585840361216b565b5060019392505050565b6000611727338484612238565b600061176a612889565b60085460009061176a9060ff612903565b611c50612318565b6118a76000612527565b7f000000000000000000000000000000000000000000000000000000000000000090565b60007f6e71edae12b1b97f4d1f60370fef10105fa2faae0126114a169c64845d6126c9888888611cad8c611b66565b89604051602001611cc396959493929190613cfc565b604051602081830303815290604052805190602001209050611cf48882611ceb87878761290d565b886101f861294c565b611cff88888861216b565b5050505050505050565b60608088611d186104fc611b42565b611d23610522611836565b611d2b6127f2565b6060611d35611efe565b9050611d3f611731565b611dec5760006060611d548d8d8d868b6129a3565b91509150611d6d611d63612ac8565b83101560cc611edd565b611d7f6000611d7a612ac8565b612acf565b611d928b611d8b612ac8565b8403612acf565b611d9c8184612820565b808a5167ffffffffffffffff81118015611db557600080fd5b50604051908082528060200260200182016040528015611ddf578160200160208202803683370190505b5095509550505050611a7c565b611df68882612071565b60006060611e1e8d8d8d8d8d611e0a611c37565b611e14578d611e17565b60005b898e612804565b91509150611d928b83612acf565b6000611e36611b42565b6001600160a01b0316826001600160a01b03161415611e58575060001961172b565b611e628383612ad9565b905061172b565b600061176a612b04565b6009546001600160a01b031681565b806118e781612ba1565b6000611e99848484612c1f565b506001901b60001901811b1992909216911b1790565b6000611ebf838311156001611edd565b50900390565b6000818310611ed45781611ed6565b825b9392505050565b816118e7576118e7816120ec565b6118a7611ef66121d3565b610192611edd565b60606000611f0a61258d565b905060608167ffffffffffffffff81118015611f2557600080fd5b50604051908082528060200260200182016040528015611f4f578160200160208202803683370190505b50905060005b8281101561206a577f0000000000000000000000000000000000000000000000000000000000000000811415611fc3577f0000000000000000000000000000000000000000000000000000000000000000828281518110611fb257fe5b602002602001018181525050612062565b7f0000000000000000000000000000000000000000000000000000000000000000811415612018577f0000000000000000000000000000000000000000000000000000000000000000828281518110611fb257fe5b7f000000000000000000000000000000000000000000000000000000000000000081141561206257670de0b6b3a764000082828151811061205557fe5b6020026020010181815250505b600101611f55565b5091505090565b81518151612080908290612592565b60005b818110156120da576120bb84828151811061209a57fe5b60200260200101518483815181106120ae57fe5b6020026020010151612c66565b8482815181106120c757fe5b6020908102919091010152600101612083565b50505050565b6000611ed68383612c66565b611833816210905360ea1b612c9c565b600061210b8215156004611edd565b826121185750600061172b565b670de0b6b3a76400008381029061213b9085838161213257fe5b04146005611edd565b82818161214457fe5b0491505061172b565b6000611ed683836120fc565b6000828201611ed68482101583611edd565b6001600160a01b0380841660008181526001602090815260408083209487168084529490915290819020849055517f8c5be1e5ebec7d5bd14f71427d1e84f3dd0314c0f7b2291e5b200ac8c7c3b925906121c6908590613c76565b60405180910390a3505050565b60006121dd612214565b42118061176a57505060075460ff161590565b7f000000000000000000000000000000000000000000000000000000000000000090565b7f000000000000000000000000000000000000000000000000000000000000000090565b61224f6001600160a01b0384161515610198611edd565b6122666001600160a01b0383161515610199611edd565b612271838383612c1a565b6001600160a01b03831660009081526020819052604090205461229790826101a0612cfd565b6001600160a01b0380851660009081526020819052604080822093909355908416815220546122c69082612159565b6001600160a01b0380841660008181526020819052604090819020939093559151908516907fddf252ad1be2c89b69c2b068fc378daa952ba7f163c4a11628f55a4df523b3ef906121c6908590613c76565b600061232f6000356001600160e01b031916611aa6565b905061183361233e8233612d13565b610191611edd565b61235b612351612dfc565b82101560cb611edd565b612370612366612e05565b82111560ca611edd565b600854612381908260c0603f611e8c565b6008556040517fa9ba3ffe0b6c366b81232caab38605a0699ad5398d6cce76f91ee809e322dafc906123b4908390613c76565b60405180910390a150565b80156123df576123da6123d06121f0565b4210610193611edd565b6123f4565b6123f46123ea612214565b42106101a9611edd565b6007805460ff19168215151790556040517f9e3a5e37224532dea67b89face185703738a228a6e8a23dee546960180d3be64906123b4908390613c53565b600061243c611836565b90506000612448611b42565b6001600160a01b031663b05f8e4883866040518363ffffffff1660e01b8152600401612475929190613c7f565b60806040518083038186803b15801561248d57600080fd5b505afa1580156124a1573d6000803e3d6000fd5b505050506040513d601f19601f820116820180604052508101906124c591906139b5565b604051630639cdb560e21b81529094506001600160a01b03851693506318e736d492506124f9915085908790600401613d5c565b600060405180830381600087803b15801561251357600080fd5b505af1158015611cff573d6000803e3d6000fd5b600854612536908260ff612e11565b6008556040517feff3d4d215b42bf0960be9c6d5e05c22cba4df6627a3a523e2acee733b5854c890612569908390613c53565b60405180910390a180611833576118336118a7565b6001901b6000190191901c1690565b600390565b6118e78183146067611edd565b6000606060006125ae84612e38565b905060018160018111156125be57fe5b146125d3576125ce6101636120ec565b6125e3565b6125dd8885612e4e565b90935091505b509850989650505050505050565b81518151612600908290612592565b60005b818110156120da5761263b84828151811061261a57fe5b602002602001015184838151811061262e57fe5b60200260200101516120fc565b84828151811061264757fe5b6020908102919091010152600101612603565b333014612718576000306001600160a01b031660003660405161267e929190613b79565b6000604051808303816000865af19150503d80600081146126bb576040519150601f19603f3d011682016040523d82523d6000602084013e6126c0565b606091505b5050905080600081146126cf57fe5b60046000803e6000516001600160e01b0319166343adbafb60e01b81146126fa573d6000803e3d6000fd5b506020600460003e604060205260243d03602460403e601c3d016000f35b6127206127f2565b606061272a611efe565b90506127368782612071565b6000606061274e8c8c8c8c8c8c898d8d63ffffffff16565b9150915061276081848663ffffffff16565b8051601f1982018390526343adbafb603f1983015260200260231982016044820181fd5b600080825111801561172b575060ff8016828060200190518101906127a991906139f5565b60ff161492915050565b6118a76127be611c37565b6101b6611edd565b6000606060006127d584612ef1565b905060606127e4878784612f07565b919791965090945050505050565b6118a7611eeb565b6118e78282612fb6565b600060606128136101636120ec565b9850989650505050505050565b8151815161282f908290612592565b60005b818110156120da5761286a84828151811061284957fe5b602002602001015184838151811061285d57fe5b6020026020010151613082565b84828151811061287657fe5b6020908102919091010152600101612832565b6000612893611b42565b6001600160a01b031663aaabadc56040518163ffffffff1660e01b815260040160206040518083038186803b1580156128cb57600080fd5b505afa1580156128df573d6000803e3d6000fd5b505050506040513d601f19601f8201168201806040525081019061176a9190613641565b1c60019081161490565b60408051604180825260808201909252606091829190602082018180368337019050509050836020820152826040820152846060820153949350505050565b6000612957856130d0565b905061296d6129678783876130ec565b83611edd565b61297c428410156101b8611edd565b5050506001600160a01b039092166000908152600660205260409020805460010190555050565b600060606129af611eeb565b7f00000000000000000000000000000000000000000000000000000000000000006129ea6001600160a01b0388811690831614610156611edd565b612a0a816001600160a01b0316876001600160a01b031614610156611edd565b6060612a158561319b565b9050612a74817f000000000000000000000000000000000000000000000000000000000000000081518110612a4657fe5b60200260200101517f00000000000000000000000000000000000000000000000000000000000000006120e0565b817f000000000000000000000000000000000000000000000000000000000000000081518110612aa057fe5b60209081029190910101526dffffffffffffffffffffffffffff999098509650505050505050565b620f424090565b6118e782826131b1565b6001600160a01b03918216600090815260016020908152604080832093909416825291909152205490565b60007f00000000000000000000000000000000000000000000000000000000000000007f00000000000000000000000000000000000000000000000000000000000000007f0000000000000000000000000000000000000000000000000000000000000000612b71613244565b30604051602001612b86959493929190613d30565b60405160208183030381529060405280519060200120905090565b600281511015612bb057611833565b600081600081518110612bbf57fe5b602002602001015190506000600190505b8251811015612c1a576000838281518110612be757fe5b60200260200101519050612c10816001600160a01b0316846001600160a01b0316106065611edd565b9150600101612bd0565b505050565b612c2e61010083106064611edd565b612c5760018210158015612c505750612c4c60ff8461010003611ec5565b8211155b6064611edd565b612c1a83821c156101b4611edd565b6000828202612c8a841580612c83575083858381612c8057fe5b04145b6003611edd565b670de0b6b3a764000090049392505050565b62461bcd60e51b600090815260206004526007602452600a808404818106603090810160081b958390069590950190829004918206850160101b01602363ffffff0060e086901c160160181b0190930160c81b60445260e882901c90606490fd5b6000612d0c8484111583611edd565b5050900390565b600073ba1ba1ba1ba1ba1ba1ba1ba1ba1ba1ba1ba1ba1b612d32611b1e565b6001600160a01b031614158015612d4d5750612d4d83613248565b15612d7557612d5a611b1e565b6001600160a01b0316336001600160a01b031614905061172b565b612d7d612889565b6001600160a01b0316639be2a8848484306040518463ffffffff1660e01b8152600401612dac93929190613c96565b60206040518083038186803b158015612dc457600080fd5b505afa158015612dd8573d6000803e3d6000fd5b505050506040513d601f19601f82011682018060405250810190611e62919061351b565b64e8d4a5100090565b67016345785d8a000090565b60006001821b1984168284612e27576000612e2a565b60015b60ff16901b17949350505050565b60008180602001905181019061172b91906136ab565b600060606000612e5d84613284565b90506060855167ffffffffffffffff81118015612e7957600080fd5b50604051908082528060200260200182016040528015612ea3578160200160208202803683370190505b50905060005b8651811015612ee557868181518110612ebe57fe5b6020026020010151828281518110612ed257fe5b6020908102919091010152600101612ea9565b50909590945092505050565b600081806020019051810190611ed69190613a11565b60606000612f1583856120fc565b9050845167ffffffffffffffff81118015612f2f57600080fd5b50604051908082528060200260200182016040528015612f59578160200160208202803683370190505b50915060005b8551811015612fad57612f8e82878381518110612f7857fe5b6020026020010151612c6690919063ffffffff16565b838281518110612f9a57fe5b6020908102919091010152600101612f5f565b50509392505050565b612fcd6001600160a01b038316151561019b611edd565b612fd982600083612c1a565b6001600160a01b038216600090815260208190526040902054612fff90826101b2612cfd565b6001600160a01b03831660009081526020819052604090205561303261302d82613027611731565b9061329a565b6132a8565b60006001600160a01b0316826001600160a01b03167fddf252ad1be2c89b69c2b068fc378daa952ba7f163c4a11628f55a4df523b3ef836040516130769190613c76565b60405180910390a35050565b60006130918215156004611edd565b8261309e5750600061172b565b670de0b6b3a7640000838102906130b89085838161213257fe5b8260018203816130c457fe5b0460010191505061172b565b60006130da612b04565b82604051602001611adb929190613b89565b60006130fe82516041146101b9611edd565b60208281015160408085015160608601518251600080825295019283905292939092811a91600190613137908990859088908890613d9c565b6020604051602081039080840390855afa158015613159573d6000803e3d6000fd5b5050604051601f1901519150506001600160a01b0381161580159061318f5750876001600160a01b0316816001600160a01b0316145b98975050505050505050565b606081806020019051810190611ed691906136f4565b6131bd60008383612c1a565b6131d261302d826131cc611731565b90612159565b6001600160a01b0382166000908152602081905260409020546131f59082612159565b6001600160a01b0383166000818152602081905260408082209390935591519091907fddf252ad1be2c89b69c2b068fc378daa952ba7f163c4a11628f55a4df523b3ef90613076908590613c76565b4690565b600061325a631c74c91760e11b611aa6565b82148061327557506132726350dd6ed960e01b611aa6565b82145b8061172b575061172b826132ad565b600081806020019051810190611ed691906136c7565b6000611ed683836001612cfd565b600255565b50600090565b604080518082019091526000808252602082015290565b6040805160c081018252600080825260208201819052918101829052606081018290526080810182905260a081019190915290565b803561172b8161401b565b600082601f83011261331a578081fd5b813561332d61332882613ffb565b613fd4565b81815291506020808301908481018184028601820187101561334e57600080fd5b60005b8481101561336d57813584529282019290820190600101613351565b505050505092915050565b600082601f830112613388578081fd5b813567ffffffffffffffff81111561339e578182fd5b6133b1601f8201601f1916602001613fd4565b91508082528360208285010111156133c857600080fd5b8060208401602084013760009082016020015292915050565b803561172b81614030565b6000602082840312156133fd578081fd5b8135611ed68161401b565b6000806040838503121561341a578081fd5b82356134258161401b565b915060208301356134358161401b565b809150509250929050565b600080600060608486031215613454578081fd5b833561345f8161401b565b9250602084013561346f8161401b565b929592945050506040919091013590565b600080600080600080600060e0888a03121561349a578485fd5b87356134a58161401b565b965060208801356134b58161401b565b9550604088013594506060880135935060808801356134d38161403d565b9699959850939692959460a0840135945060c09093013592915050565b60008060408385031215613502578182fd5b823561350d8161401b565b946020939093013593505050565b60006020828403121561352c578081fd5b81518015158114611ed6578182fd5b60006020828403121561354c578081fd5b5051919050565b600080600080600080600060e0888a03121561356d578081fd5b87359650602088013561357f8161401b565b9550604088013561358f8161401b565b9450606088013567ffffffffffffffff808211156135ab578283fd5b6135b78b838c0161330a565b955060808a0135945060a08a0135935060c08a01359150808211156135da578283fd5b506135e78a828b01613378565b91505092959891949750929550565b60008060408385031215613608578182fd5b505080516020909101519092909150565b60006020828403121561362a578081fd5b81356001600160e01b031981168114611ed6578182fd5b600060208284031215613652578081fd5b8151611ed68161401b565b6000806040838503121561366f578182fd5b823561367a8161401b565b9150602083013567ffffffffffffffff811115613695578182fd5b6136a185828601613378565b9150509250929050565b6000602082840312156136bc578081fd5b8151611ed681614030565b600080604083850312156136d9578182fd5b82516136e481614030565b6020939093015192949293505050565b60008060408385031215613706578182fd5b825160048110613714578283fd5b8092505060208084015167ffffffffffffffff811115613732578283fd5b8401601f81018613613742578283fd5b805161375061332882613ffb565b81815283810190838501858402850186018a101561376c578687fd5b8694505b8385101561378e578051835260019490940193918501918501613770565b5080955050505050509250929050565b600080600080608085870312156137b3578182fd5b843567ffffffffffffffff808211156137ca578384fd5b818701915061012080838a0312156137e0578485fd5b6137e981613fd4565b90506137f589846133e1565b815261380489602085016132ff565b602082015261381689604085016132ff565b6040820152606083013560608201526080830135608082015260a083013560a08201526138468960c085016132ff565b60c08201526138588960e085016132ff565b60e08201526101008084013583811115613870578687fd5b61387c8b828701613378565b828401525050809650506020870135915080821115613899578384fd5b506138a68782880161330a565b949794965050505060408301359260600135919050565b600060a082840312156138ce578081fd5b6138d860a0613fd4565b82516138e38161401b565b815260208301516138f38161401b565b6020820152604083015160038110613909578283fd5b604082015260608301516005811061391f578283fd5b60608201526080928301519281019290925250919050565b600060c08284031215613948578081fd5b61395260c0613fd4565b825161395d8161401b565b808252506020830151602082015260408301516040820152606083015160608201526080830151608082015260a083015160a08201528091505092915050565b6000602082840312156139ae578081fd5b5035919050565b600080600080608085870312156139ca578182fd5b84519350602085015192506040850151915060608501516139ea8161401b565b939692955090935050565b600060208284031215613a06578081fd5b8151611ed68161403d565b60008060408385031215613a23578182fd5b82516136e48161403d565b6001600160a01b03169052565b6000815180845260208085019450808401835b83811015613a6a57815187529582019590820190600101613a4e565b509495945050505050565b60008151808452815b81811015613a9a57602081850181015186830182015201613a7e565b81811115613aab5782602083870101525b50601f01601f19169290920160200192915050565b6000610120825160028110613ad157fe5b808552506020830151613ae76020860182613a2e565b506040830151613afa6040860182613a2e565b50606083015160608501526080830151608085015260a083015160a085015260c0830151613b2b60c0860182613a2e565b5060e0830151613b3e60e0860182613a2e565b50610100808401518282870152613b5783870182613a75565b9695505050505050565b9182526001600160e01b031916602082015260240190565b6000828483379101908152919050565b61190160f01b81526002810192909252602282015260420190565b6001600160a01b0391909116815260200190565b6001600160a01b03978816815295871660208701529390951660408501526060840191909152608083015260a082019290925260c081019190915260e00190565b6001600160a01b03929092168252602082015260400190565b600060208252611ed66020830184613a3b565b600060408252613c386040830185613a3b565b8281036020840152613c4a8185613a3b565b95945050505050565b901515815260200190565b92151583526020830191909152604082015260600190565b90815260200190565b9182526001600160a01b0316602082015260400190565b9283526001600160a01b03918216602084015216604082015260600190565b9788526001600160a01b03968716602089015294861660408801526060870193909352608086019190915290921660a084015260c083019190915260e08201526101000190565b9586526001600160a01b0394851660208701529290931660408501526060840152608083019190915260a082015260c00190565b9485526020850193909352604084019190915260608301526001600160a01b0316608082015260a00190565b600083825260406020830152613d756040830184613a75565b949350505050565b600084825283602083015260606040830152613c4a6060830184613ac0565b93845260ff9290921660208401526040830152606082015260800190565b600060208252611ed66020830184613a75565b602080825260169082015275496e76616c6964207377617070656420746f6b656e7360501b604082015260600190565b60208082526018908201527f4f726465722062656c6f77206d696e696d756d2073697a650000000000000000604082015260600190565b60208082526023908201527f496e73756666696369656e7420706f6f6c20746f6b656e7320737761707065646040820152621034b760e91b606082015260800190565b6020808252600c908201526b0496e76616c696420737761760a41b604082015260600190565b60208082526030908201527f496e73756666696369656e7420706f6f6c20746f6b656e73207377617070656460408201526f20696e20666f722063757272656e637960801b606082015260800190565b60208082526030908201527f496e73756666696369656e7420706f6f6c20746f6b656e73207377617070656460408201526f20696e20666f7220736563757269747960801b606082015260800190565b6020808252601d908201527f494e53554646494349454e545f494e5445524e414c5f42414c414e4345000000604082015260600190565b600060608252613f876060830185613ac0565b9050825160038110613f9557fe5b80602084015250602083015160408301529392505050565b600083825260406020830152613d756040830184613a3b565b60ff91909116815260200190565b60405181810167ffffffffffffffff81118282101715613ff357600080fd5b604052919050565b600067ffffffffffffffff821115614011578081fd5b5060209081020190565b6001600160a01b038116811461183357600080fd5b6002811061183357600080fd5b60ff8116811461183357600080fdfe9b85ff671b830162b81f1cb1253d54a6fee66e6f9760fc15cfc3fecccca8f118a2646970667358221220394fb63ac819d9c98d407a5ea62e487768b7e44a3a2d83e5b2fbae3c0b88bd0264736f6c6343000701003360806040523480156200001157600080fd5b506040516200326138038062003261833981016040819052620000349162000101565b6200003f3362000093565b600c80546001600160a01b039586166001600160a01b031991821617909155600a805494861694821694909417909355600b805492851692841692909217909155600d805491909316911617905562000161565b600080546001600160a01b038381166001600160a01b0319831681178455604051919092169283917f8be0079c531659141344cd1fd0a4f28419497f9722a3daafe3b4186f6b6457e09190a35050565b80516001600160a01b0381168114620000fb57600080fd5b92915050565b6000806000806080858703121562000117578384fd5b620001238686620000e3565b9350620001348660208701620000e3565b9250620001458660408701620000e3565b9150620001568660608701620000e3565b905092959194509250565b6130f080620001716000396000f3fe608060405234801561001057600080fd5b50600436106101005760003560e01c80637ef9389011610097578063d61aed7a11610066578063d61aed7a146101f3578063d729cf6c14610206578063e43372e914610219578063f2fde38b1461022157610100565b80637ef93890146101a557806381b5da1d146101b85780638da5cb5b146101cb578063ca142f75146101d357610100565b80635487e8cf116100d35780635487e8cf146101605780635778472a146101735780636945c1fd14610193578063715018a61461019b57610100565b80632541897f1461010557806338fff2d01461012357806346764e5e1461013857806346b8b7301461014b575b600080fd5b61010d610234565b60405161011a9190612e45565b60405180910390f35b61012b610243565b60405161011a9190612e9d565b61012b610146366004612d47565b6102d2565b61015361046f565b60405161011a9190612e59565b61012b61016e366004612da9565b610568565b610186610181366004612cbd565b61075d565b60405161011a9190612fdb565b61010d610874565b6101a3610883565b005b6101a36101b3366004612d95565b61089b565b6101a36101c6366004612d1c565b610972565b61010d610a9e565b6101e66101e1366004612c92565b610aad565b60405161011a9190613036565b61012b610201366004612ced565b610b6e565b6101a3610214366004612c92565b610c79565b610153610d1e565b6101a361022f366004612c76565b610d7f565b600a546001600160a01b031690565b600080600d60009054906101000a90046001600160a01b03166001600160a01b03166338fff2d06040518163ffffffff1660e01b815260040160206040518083038186803b15801561029457600080fd5b505afa1580156102a8573d6000803e3d6000fd5b505050506040513d601f19601f820116820180604052508101906102cc9190612cd5565b91505090565b60006102f2336102e0610a9e565b6001600160a01b0316146101aa610dae565b6002600085815260076020526040902060010154600160a81b900460ff16600481111561031b57fe5b146103415760405162461bcd60e51b815260040161033890612f6d565b60405180910390fd5b60c08201516000858152600760205260409020546001600160a01b0390811691161461037f5760405162461bcd60e51b815260040161033890612f36565b600a5460008581526007602052604081206001015490916001600160a01b039182169116146103af5760016103b2565b60005b90506103bf848683610dc0565b600085815260076020908152604090912060020154600a549185015190916001600160a01b03918216911614806104085750600b5460208501516001600160a01b039081169116145b156104325761041b846060015182610e60565b600087815260076020526040902060020155610466565b60008681526007602052604090206002015460608501516104539190610e79565b6000878152600760205260409020600201555b95945050505050565b600354606090819067ffffffffffffffff8111801561048d57600080fd5b506040519080825280602002602001820160405280156104b7578160200160208202803683370190505b50600354909150600090815b8181101561055f57336001600160a01b031660076000600384815481106104e657fe5b600091825260208083206001600290930201919091015483528201929092526040019020546001600160a01b03161415610557576003818154811061052757fe5b90600052602060002090600202016001015484848151811061054557fe5b60209081029190910101526001909201915b6001016104c3565b50919250505090565b6000610576336102e0610a9e565b60008251600281111561058557fe5b148061059d575060018251600281111561059b57fe5b145b6105a657600080fd5b60055442146105b557426105bc565b6005546001015b600581905560c08401516040516000926105d99291602001612e23565b6040516020818303038152906040528051906020012090506105f9612ab3565b6040518060a001604052808660c001516001600160a01b0316815260200186602001516001600160a01b031681526020018560000151600281111561063a57fe5b8152602001600281526060870151602091820152600084815260078252604090819020835181546001600160a01b03199081166001600160a01b03928316178355938501516001830180549095169116178084559184015193945084939092909160ff60a01b1916600160a01b8360028111156106b357fe5b0217905550606082015160018201805460ff60a81b1916600160a81b8360048111156106db57fe5b021790555060809190910151600290910155600a5460208201516001600160a01b039081169116141561071b57610716846020015183610e8f565b610744565b600b5460208201516001600160a01b0390811691161415610744576107448460200151836110a2565b6107528285602001516112b7565b925050505b92915050565b610765612ab3565b61076d610a9e565b6001600160a01b0316336001600160a01b031614806107965750600c546001600160a01b031633145b806107b757506000828152600760205260409020546001600160a01b031633145b6107d35760405162461bcd60e51b815260040161033890612ed2565b600082815260076020908152604091829020825160a08101845281546001600160a01b03908116825260018301549081169382019390935292909190830190600160a01b900460ff16600281111561082757fe5b600281111561083257fe5b81526020016001820160159054906101000a900460ff16600481111561085457fe5b600481111561085f57fe5b81526020016002820154815250509050919050565b600b546001600160a01b031690565b61088f336102e0610a9e565b6108996000611a2f565b565b600c546001600160a01b03163314806108cc57506108b7610a9e565b6001600160a01b0316336001600160a01b0316145b6108e85760405162461bcd60e51b815260040161033890612f09565b600083815260076020526040902060028101805484019055600101805460ff60a81b1916600160a91b1790819055600a546001600160a01b039182169116141561093b576109368184610e8f565b61096d565b600b546000848152600760205260409020600101546001600160a01b039081169116141561096d5761096d81846110a2565b505050565b600c546001600160a01b03163314806109a3575061098e610a9e565b6001600160a01b0316336001600160a01b0316145b6109bf5760405162461bcd60e51b815260040161033890612f09565b600092835260076020908152604080852080546001600160a01b03199081168255600180830180546001600160b01b031990811690915560028085018a9055978952848920805484168155808301805490921690915580880189905592546001600160a01b0390811689526008808752858a20888b528752858a208054851681558084018b9055808a018b905560038082018c905560048083018d905560059283018d905596549093168b52908752858a20978a5296909552928720805490911681559182018690559381018590559081018490559182018390550155565b6000546001600160a01b031690565b610ab5612ae2565b610abd610a9e565b6001600160a01b0316336001600160a01b03161480610ae45750336001600160a01b038416145b610b005760405162461bcd60e51b815260040161033890612fa4565b506001600160a01b03918216600090815260086020908152604080832093835292815290829020825160c0810184528154909416845260018101549184019190915260028101549183019190915260038101546060830152600481015460808301526005015460a082015290565b6000610b7c336102e0610a9e565b6002600084815260076020526040902060010154600160a81b900460ff166004811115610ba557fe5b14610bc25760405162461bcd60e51b815260040161033890612f6d565b6000838152600760205260409020546001600160a01b03838116911614610bfb5760405162461bcd60e51b815260040161033890612f36565b600a5460008481526007602052604081206001015490916001600160a01b03918216911614610c2b576001610c2e565b60005b9050610c3a8482611a7f565b505050600090815260076020526040812060028101805482546001600160a01b0319168355600190920180546001600160b01b03191690559190915590565b610c85336102e0610a9e565b6001600160a01b038216600090815260096020526040812054905b81811015610d18576001600160a01b0384166000908152600960205260409020805484919083908110610ccf57fe5b90600052602060002001541415610d10576001600160a01b0384166000908152600960205260409020805482908110610d0457fe5b60009182526020822001555b600101610ca0565b50505050565b33600090815260096020908152604091829020805483518184028101840190945280845260609392830182828015610d7557602002820191906000526020600020905b815481526020019060010190808311610d61575b5050505050905090565b610d8b336102e0610a9e565b610da26001600160a01b03821615156101ab610dae565b610dab81611a2f565b50565b81610dbc57610dbc81611beb565b5050565b8015610e1157600082815260026020526040902054600180548592908110610de457fe5b60009182526020808320600292830201939093558482529091526040902054610936576109366000611bfb565b600082815260046020526040902054600380548592908110610e2f57fe5b600091825260208083206002909202909101929092558381526004909152604090205461096d5761096d6000611de9565b6000828201610e728482101583610dae565b9392505050565b6000610e89838311156001610dae565b50900390565b60408051808201909152828152602081018281526003805460018082018355600083815294517fc2575a0e9e593c00f959f8c92f12db2869c3395a3b0502d05e2516446f71f85b60029093029283015592517fc2575a0e9e593c00f959f8c92f12db2869c3395a3b0502d05e2516446f71f85c9091015554610f1091610e79565b90506000610f218260026000611fd5565b90505b600082118015610f6f575060038281548110610f3c57fe5b90600052602060002090600202016000015460038281548110610f5b57fe5b906000526020600020906002020160000154115b15610d1857610f7c612b17565b60038281548110610f8957fe5b906000526020600020906002020160405180604001604052908160008201548152602001600182015481525050905060038381548110610fc557fe5b906000526020600020906002020160038381548110610fe057fe5b9060005260206000209060020201600082015481600001556001820154816001015590505081600460006003868154811061101757fe5b906000526020600020906002020160010154815260200190815260200160002081905550806003848154811061104957fe5b906000526020600020906002020160008201518160000155602082015181600101559050508260046000836020015181526020019081526020016000208190555081925061109a8360026000611fd5565b915050610f24565b6040805180820190915282815260208101828152600180548082018255600082815293517fb10e2d527612073b26eecdfd717e6a320cf44b4afac2b0732d9fcbe2b7fa0cf660029092029182015591517fb10e2d527612073b26eecdfd717e6a320cf44b4afac2b0732d9fcbe2b7fa0cf790920191909155805461112591610e79565b905060006111368260026000611fd5565b90505b60008211801561118457506001828154811061115157fe5b9060005260206000209060020201600001546001828154811061117057fe5b906000526020600020906002020160000154105b15610d1857611191612b17565b6001828154811061119e57fe5b9060005260206000209060020201604051806040016040529081600082015481526020016001820154815250509050600183815481106111da57fe5b9060005260206000209060020201600183815481106111f557fe5b9060005260206000209060020201600082015481600001556001820154816001015590505081600260006001868154811061122c57fe5b906000526020600020906002020160010154815260200190815260200160002081905550806001848154811061125e57fe5b90600052602060002090600202016000820151816000015560208201518160010155905050826002600083602001518152602001908152602001600020819055508192506112af8360026000611fd5565b915050611139565b60008060008080600080600060606112cf8b8b611ffd565b9b509092509050816112eb578a98505050505050505050610757565b600092505b80518310156119b15760008b815260076020526040902060020154611314576119b1565b8a81848151811061132157fe5b6020026020010151602001511415801561138c575060008b815260076020819052604082205483516001600160a01b03909116929084908790811061136257fe5b6020908102919091018101518101518252810191909152604001600020546001600160a01b031614155b80156113de57506000600760008386815181106113a557fe5b602002602001015160200151815260200190815260200160002060010160159054906101000a900460ff1660048111156113db57fe5b14155b1561160e57600b5481516001600160a01b039091169060079060009084908790811061140657fe5b6020908102919091018101518101518252810191909152604001600020600101546001600160a01b031614801561145c5750600a5460008c8152600760205260409020600101546001600160a01b039081169116145b1561150c578981848151811061146e57fe5b602002602001015160000151101580611485575089155b806114a7575080838151811061149757fe5b6020026020010151600001516000145b15611507578083815181106114b857fe5b6020026020010151600001516000146114e8578083815181106114d757fe5b6020026020010151600001516114ea565b895b96508083815181106114f857fe5b60200260200101516020015197505b61160e565b600a5481516001600160a01b039091169060079060009084908790811061152f57fe5b6020908102919091018101518101518252810191909152604001600020600101546001600160a01b03161480156115855750600b5460008c8152600760205260409020600101546001600160a01b039081169116145b1561160e578981848151811061159757fe5b6020026020010151600001511115806115ae575089155b1561160e578083815181106115bf57fe5b6020026020010151600001516000146115ef578083815181106115de57fe5b6020026020010151600001516115f1565b895b96508083815181106115ff57fe5b60200260200101516020015195505b87156117df57600a5460008c8152600760205260409020600101546001600160a01b03908116911614156117da57600088815260076020526040902060020154611658908861239d565b60008c81526007602052604090206002015490955085106117535760008b815260076020526040902060020154945061169185886123ee565b6000898152600760205260409020600201549094506116b09085610e79565b60008981526007602052604080822060029081019384558e835290822001819055899052546116fa576000888152600760205260409020600101805460ff60a81b19169055611726565b6000888152600760205260409020600101805460ff60a81b1916600160a81b17905561172687896110a2565b60008b8152600760205260409020600101805460ff60a81b1916905561174e8b898787612424565b6117da565b84156117da5761176385886123ee565b60008c8152600760205260409020600201549094506117829086610e79565b60008c8152600760205260408082206002808201949094558b83529082209283018290556001928301805460ff60a81b19908116909155918e9052919091018054909116600160a81b1790556117da8b898787612424565b6119a6565b85156119a657600b5460008c8152600760205260409020600101546001600160a01b03908116911614156119a65760008681526007602052604090206002015461182990886123ee565b60008c815260076020526040902060020154909450841061191f5760008b8152600760205260409020600201549350611862848861239d565b6000878152600760205260409020600201549095506118819086610e79565b60008781526007602052604080822060029081019384558e835290822001819055879052546118cb576000868152600760205260409020600101805460ff60a81b191690556118f7565b6000868152600760205260409020600101805460ff60a81b1916600160a81b1790556118f78787610e8f565b60008b8152600760205260409020600101805460ff60a81b191690556117da8b878787612424565b83156119a65761192f848861239d565b60008c81526007602052604090206002015490955061194e9085610e79565b60008c8152600760205260408082206002808201949094558983529082209283018290556001928301805460ff60a81b19908116909155918e9052919091018054909116600160a81b1790556119a68b878787612424565b6001909201916112f0565b6000808c815260076020526040902060010154600160a81b900460ff1660048111156119d957fe5b1415611a2057600a5460008c81526007602052604081206001015490916001600160a01b03918216911614611a0f576001611a12565b60005b9050611a1e8c82611a7f565b505b50989998505050505050505050565b600080546001600160a01b038381166001600160a01b0319831681178455604051919092169283917f8be0079c531659141344cd1fd0a4f28419497f9722a3daafe3b4186f6b6457e09190a35050565b8015611b3857600082815260026020526040902054611aa657611aa061272c565b50611b33565b60018054611ab49082610e79565b81548110611abe57fe5b90600052602060002090600202016001600260008581526020019081526020016000205481548110611aec57fe5b60009182526020909120825460029092020190815560019182015490820155805480611b1457fe5b6000828152602081206002600019909301928302018181556001015590555b610dbc565b600082815260046020526040902054611b5957611b53612871565b50610dbc565b60038054611b68906001610e79565b81548110611b7257fe5b90600052602060002090600202016003600460008581526020019081526020016000205481548110611ba057fe5b6000918252602090912082546002909202019081556001918201549101556003805480611bc957fe5b6000828152602081206002600019909301928302018181556001015590555050565b610dab816210905360ea1b6129ae565b60018054611c0891610e79565b611c13826002612a0f565b1015610dab576000611c26826002612a0f565b9050600060018281548110611c3757fe5b6000918252602082206002909102015491506001611c558482610e60565b81548110611c5f57fe5b906000526020600020906002020160000154905080821015611c8957611c86836001610e60565b92505b60018381548110611c9657fe5b90600052602060002090600202016000015460018581548110611cb557fe5b9060005260206000209060020201600001541115611cd557505050610dab565b611cdd612b17565b60018581548110611cea57fe5b906000526020600020906002020160405180604001604052908160008201548152602001600182015481525050905060018481548110611d2657fe5b906000526020600020906002020160018681548110611d4157fe5b90600052602060002090600202016000820154816000015560018201548160010155905050846002600060018781548110611d7857fe5b9060005260206000209060020201600101548152602001908152602001600020819055508060018581548110611daa57fe5b6000918252602080832084516002938402909101908155938101516001909401939093559282015181529190526040902083905550909150611bfb9050565b600354611df7906001610e79565b611e02826002612a0f565b1015610dab576000611e15826002612a0f565b9050600060038281548110611e2657fe5b6000918252602082206002909102015491506003611e45846001610e60565b81548110611e4f57fe5b906000526020600020906002020160000154905080821115611e7957611e76836001610e60565b92505b60038381548110611e8657fe5b90600052602060002090600202016000015460038581548110611ea557fe5b9060005260206000209060020201600001541015611ec557505050610dab565b611ecd612b17565b60038581548110611eda57fe5b906000526020600020906002020160405180604001604052908160008201548152602001600182015481525050905060038481548110611f1657fe5b906000526020600020906002020160038681548110611f3157fe5b90600052602060002090600202016000820154816000015560018201548160010155905050846004600060038781548110611f6857fe5b9060005260206000209060020201600101548152602001908152602001600020819055508060038581548110611f9a57fe5b60009182526020808320845160029093020191825592830151600190910155918101518252600490526040902083905550909150611de99050565b600081611feb57611fe68484612a29565b611ff5565b611ff58484612a49565b949350505050565b600a5460008381526007602052604081206001015490916060918391829184916001600160a01b039182169116146120885760035467ffffffffffffffff8111801561204857600080fd5b5060405190808252806020026020018201604052801561208257816020015b61206f612b17565b8152602001906001900390816120675790505b506120dd565b60015467ffffffffffffffff811180156120a157600080fd5b506040519080825280602002602001820160405280156120db57816020015b6120c8612b17565b8152602001906001900390816120c05790505b505b600a54600089815260076020526040812060010154929350916001600160a01b0390811691161415612256575b6001541561225157600061211c612a7c565b90508015801561212a575087155b1561214e57600654156121435750600654965086612149565b50612251565b612163565b8015801561215b57508715155b156121635750865b878110156121715750612251565b61217961272c565b83838151811061218557fe5b602002602001018190525060008084848151811061219f57fe5b602002602001015160000151116121b657816121cf565b8383815181106121c257fe5b6020026020010151600001515b905061221a8561221583600760008989815181106121e957fe5b60200260200101516020015181526020019081526020016000206002015461239d90919063ffffffff16565b610e60565b60008b81526007602052604090206002015490955085106122475750929550909350859250612396915050565b505060010161210a565b61238c565b600b546000898152600760205260409020600101546001600160a01b039081169116141561238c575b6003541580159061229f575086612294612aa3565b11158061229f575086155b1561238c5760006122ae612aa3565b9050801580156122bc575087155b156122e057600654156122d557506006549650866122db565b5061238c565b6122f5565b801580156122ed57508715155b156122f55750865b6122fd612871565b83838151811061230957fe5b6020026020010181905250612358846122156007600087878151811061232b57fe5b602002602001015160200151815260200190815260200160002060020154846123ee90919063ffffffff16565b60008a8152600760205260409020600201549094508410612383575091945092508491506123969050565b5060010161227f565b5090935091508390505b9250925092565b60006123ac8215156004610dae565b826123b957506000610757565b670de0b6b3a7640000838102906123dc908583816123d357fe5b04146005610dae565b8281816123e557fe5b04915050610757565b600082820261241284158061240b57508385838161240857fe5b04145b6003610dae565b670de0b6b3a764000090049392505050565b6005805460010190819055612437612ae2565b6040518060c001604052806007600089815260200190815260200160002060000160009054906101000a90046001600160a01b03166001600160a01b031681526020018781526020018681526020018381526020018581526020018481525090508060086000600760008a815260200190815260200160002060000160009054906101000a90046001600160a01b03166001600160a01b03166001600160a01b03168152602001908152602001600020600084815260200190815260200160002060008201518160000160006101000a8154816001600160a01b0302191690836001600160a01b031602179055506020820151816001015560408201518160020155606082015181600301556080820151816004015560a0820151816005015590505080600860006007600089815260200190815260200160002060000160009054906101000a90046001600160a01b03166001600160a01b03166001600160a01b03168152602001908152602001600020600084815260200190815260200160002060008201518160000160006101000a8154816001600160a01b0302191690836001600160a01b031602179055506020820151816001015560408201518160020155606082015181600301556080820151816004015560a08201518160050155905050600960006007600089815260200190815260200160002060000160009054906101000a90046001600160a01b03166001600160a01b03166001600160a01b0316815260200190815260200160002081606001519080600181540180825580915050600190039060005260206000200160009091909190915055600960006007600088815260200190815260200160002060000160009054906101000a90046001600160a01b03166001600160a01b03166001600160a01b0316815260200190815260200160002081606001519080600181540180825580915050600190039060005260206000200160009091909190915055612721848461239d90919063ffffffff16565b600655505050505050565b612734612b17565b6001546127535760405162461bcd60e51b815260040161033890612ea6565b61275b612b17565b600160008154811061276957fe5b906000526020600020906002020160405180604001604052908160008201548152602001600182015481525050905060016127aa6001805490506001610e79565b815481106127b457fe5b906000526020600020906002020160016000815481106127d057fe5b90600052602060002090600202016000820154816000015560018201548160010155905050600060026000600160008154811061280957fe5b906000526020600020906002020160010154815260200190815260200160002081905550600180548061283857fe5b600082815260208120600260001990930192830201818155600190810182905591909255541561286b5761286b81611bfb565b50905090565b612879612b17565b6003546128985760405162461bcd60e51b815260040161033890612ea6565b6128a0612b17565b60036000815481106128ae57fe5b906000526020600020906002020160405180604001604052908160008201548152602001600182015481525050905060036128ef6003805490506001610e79565b815481106128f957fe5b9060005260206000209060020201600360008154811061291557fe5b90600052602060002090600202016000820154816000015560018201548160010155905050600060046000600360008154811061294e57fe5b906000526020600020906002020160010154815260200190815260200160002081905550600380548061297d57fe5b60008281526020812060026000199093019283020181815560010181905591556003541561286b5761286b81611de9565b62461bcd60e51b600090815260206004526007602452600a808404818106603090810160081b958390069590950190829004918206850160101b01602363ffffff0060e086901c160160181b0190930160c81b60445260e882901c90606490fd5b6000828202610e7284158061240b57508385838161240857fe5b6000612a388215156004610dae565b818381612a4157fe5b049392505050565b6000612a588215156004610dae565b82612a6557506000610757565b816001840381612a7157fe5b046001019050610757565b60006001600081548110612a8c57fe5b906000526020600020906002020160000154905090565b60006003600081548110612a8c57fe5b6040805160a0810182526000808252602082018190529091820190815260200160008152602001600081525090565b6040805160c081018252600080825260208201819052918101829052606081018290526080810182905260a081019190915290565b604080518082019091526000808252602082015290565b8035610757816130a5565b600082601f830112612b49578081fd5b813567ffffffffffffffff811115612b5f578182fd5b612b72601f8201601f191660200161307e565b9150808252836020828501011115612b8957600080fd5b8060208401602084013760009082016020015292915050565b80356002811061075757600080fd5b6000610120808385031215612bc4578182fd5b612bcd8161307e565b915050612bda8383612ba2565b8152612be98360208401612b2e565b6020820152612bfb8360408401612b2e565b6040820152606082013560608201526080820135608082015260a082013560a0820152612c2b8360c08401612b2e565b60c0820152612c3d8360e08401612b2e565b60e08201526101008083013567ffffffffffffffff811115612c5e57600080fd5b612c6a85828601612b39565b82840152505092915050565b600060208284031215612c87578081fd5b8135610e72816130a5565b60008060408385031215612ca4578081fd5b8235612caf816130a5565b946020939093013593505050565b600060208284031215612cce578081fd5b5035919050565b600060208284031215612ce6578081fd5b5051919050565b60008060408385031215612cff578182fd5b823591506020830135612d11816130a5565b809150509250929050565b600080600060608486031215612d30578081fd5b505081359360208301359350604090920135919050565b600080600060608486031215612d5b578283fd5b8335925060208401359150604084013567ffffffffffffffff811115612d7f578182fd5b612d8b86828701612bb1565b9150509250925092565b600080600060608486031215612d30578283fd5b6000808284036060811215612dbc578283fd5b833567ffffffffffffffff811115612dd2578384fd5b612dde86828701612bb1565b9350506040601f1982011215612df2578182fd5b50612dfd604061307e565b602084013560038110612e0e578283fd5b81526040939093013560208401525092909150565b60609290921b6bffffffffffffffffffffffff19168252601482015260340190565b6001600160a01b0391909116815260200190565b6020808252825182820181905260009190848201906040850190845b81811015612e9157835183529284019291840191600101612e75565b50909695505050505050565b90815260200190565b6020808252601290820152714f72646572626f6f6b20697320656d70747960701b604082015260600190565b6020808252601d908201527f556e617574686f72697a65642061636365737320746f206f7264657273000000604082015260600190565b602080825260139082015272556e617574686f72697a65642061636365737360681b604082015260600190565b6020808252601b908201527f53656e646572206973206e6f74206f726465722063726561746f720000000000604082015260600190565b60208082526017908201527f4f7264657220697320616c72656164792066696c6c6564000000000000000000604082015260600190565b6020808252601d908201527f556e617574686f72697a65642061636365737320746f20747261646573000000604082015260600190565b81516001600160a01b03908116825260208084015190911690820152604082015160a08201906003811061300b57fe5b604083015260608301516005811061301f57fe5b806060840152506080830151608083015292915050565b81516001600160a01b031681526020808301519082015260408083015190820152606080830151908201526080808301519082015260a0918201519181019190915260c00190565b60405181810167ffffffffffffffff8111828210171561309d57600080fd5b604052919050565b6001600160a01b0381168114610dab57600080fdfea2646970667358221220f930f88d752c8d7ce90a494371c2ba60e7b56e4f1aab8e1737aed550ddd136d164736f6c63430007010033",
  "linkReferences": {},
  "deployedLinkReferences": {}
}